:020000040800F2
:10000000D007002055020008B11D0008CD1B0008D4
:10001000AD1D00084D040008B520000800000000D8
:10002000000000000000000000000000B51E0008F5
:100030006904000800000000B11E0008B91E000895
:100040006F0200086F0200086F0200086F020008CC
:100050006F0200086F0200086F0200086F020008BC
:100060006F0200086F0200086F0200086F020008AC
:100070006F0200086F0200086F0200086F0200089C
:100080006F0200086F0200086F0200085D0400089C
:10009000510400086F0200086F0200086F02000898
:1000A0006F0200086F0200086F0200086F0200086C
:1000B0006F0200086F0200086F0200086F0200085C
:1000C0006F0200086F0200086F0200086F0200084C
:1000D0006F0200086F0200086F0200086F0200083C
:1000E0006F0200086F0200086F0200086F0200082C
:1000F0006F0200086F0200086F0200086F0200081C
:100100006F0200086F0200086F0200086F0200080B
:100110006F0200086F0200086F0200086F020008FB
:100120006F0200086F0200086F0200086F020008EB
:100130006F0200086F0200086F0200086F020008DB
:100140006F0200086F0200086F0200086F020008CB
:100150006F0200086F0200086F0200086F020008BB
:100160006F0200086F0200086F0200086F020008AB
:100170006F0200086F0200086F0200080000000014
:100180006F0200086F02000800F002F800F052F859
:1001900014A696E8000CB244B344DA4501D100F04D
:1001A00049F8BAE80F000FA696E83000A5EB040561
:1001B00004EB0607AAEB0704A7F101074FEA1515A0
:1001C0004FEA3414A4F10104AC4201D300F032F838
:1001D00013F0010F18BFFB1A43F0010300F001F800
:1001E000DBE71847A41F0000C41F0000103A24BF1B
:1001F00078C878C1FAD8520724BF30C830C144BF8C
:1002000004680C6070470000704700000023002461
:1002100000250026103A28BF78C1FBD8520728BF16
:1002200030C148BF0B6070471FB501F097FF1FBD7D
:1002300010B510BD00F0D4F81146FFF7F5FF01F03E
:100240003BFF00F0F2F803B4FFF7F2FF03BC00F04D
:10025000F5F800000948804709480047FEE7FEE737
:10026000FEE7FEE7FEE7FEE7FEE7FEE7FEE7FEE766
:1002700004480549054A064B70470000651F000801
:1002800089010008D0010020D0070020D003002001
:10029000D003002053EA020C00F069802DE9F04BF6
:1002A0004FF00006002B1FBFB3FA83F503FA05F4E5
:1002B00024FA05F65E4012BF1643B2FA82F502FA3E
:1002C00005F4C5F120051EBF22FA05FC44EA0C0422
:1002D000203556EA044C4FEA144418BF641C4FF012
:1002E00000084FF00009904271EB030C39D300294C
:1002F00019BFB1FA81F701FA07F6B0FA80F700FAF0
:1003000007F6C7F120071EBF20FA07FC46EA0C06D5
:100310002037B6FBF4FCA7EB0507103F07F01F0BD7
:10032000CBF120062CFA06F60CFA0BFB44BFB346C1
:100330000026202FA4BF5E464FF0000B5BEA060CA0
:1003400008BF4FF0010B19EB0B0948EB0608ABFB9C
:10035000027C06FB02CC0BFB03CCC01B71EB0C0137
:10036000C1E70B46024641464846BDE8F08B13B54F
:10037000084318BF4FF0FF300146AFF30080BDE8DF
:100380001C4070474FF0000200B513469446964655
:10039000203922BFA0E80C50A0E80C50B1F1200198
:1003A000BFF4F7AF090728BFA0E80C5048BF0CC046
:1003B0005DF804EB890028BF40F8042B08BF7047A4
:1003C00048BF20F8022B11F0804F18BF00F8012B16
:1003D0007047704770477047004870471000002012
:1003E0007546FFF7F9FFAE4605006946534620F013
:1003F0000700854618B020B5FFF73AFFBDE820405A
:100400004FF000064FF000074FF000084FF0000BD0
:10041000AC46ACE8C009ACE8C009ACE8C009ACE83F
:10042000C00921F007018D46704710B50446AFF3AF
:1004300000802046BDE81040FFF705BF01491820A5
:10044000ABBEFEE72600020070470000FEE700009A
:1004500040F25C10C2F2000000F0FAB940F25C1009
:10046000C2F2000000F0F4B97047000072B600BF9D
:10047000FEE7000010B58AB0002040F25C14CDE920
:1004800005000121CDE90000CDE9020004900E2015
:10049000C2F20004CDE9071109906946204600F038
:1004A000CDF8204600F002FC2046022100F05CF866
:1004B0000AB010BDB0B50C46054600F017FD40F27D
:1004C000BC0205EB8501C2F2000202EB8101096961
:1004D000411A0020A14298BF0120B0BD70B546F27C
:1004E000A81E49F6586C7045CFF6FF7CA8BF704631
:1004F0006045D8BF60467145A8BF71466145D8BF09
:1005000061467245A8BF72466245D8BF62467345D0
:10051000B8BF9E4640F29803C2F200030024E645AD
:10052000D8BFE646C3E905440C0AD971110A9C46B6
:10053000587119724FEA1E21000A40F2FF16082571
:10054000997219460CF8040F40F25C10DD619C7141
:100550005A7241F80C6FC2F20000624683F80BE059
:10056000BDE8704000F018B890F82020013A012A48
:1005700008D8006800F114020020136819431160C4
:10058000704700BF00F1240201204FF4802113685E
:10059000194311607047000010B590F820E0D0F8C2
:1005A00000C0AEF1010EBEF1010FDCF808E011D879
:1005B0001EF0E05F18D0CEF301640120A040186067
:1005C0008B68DBB1D1F804E0C86840EACE0040EAAD
:1005D000030E17E000F1240301204FF480211A6874
:1005E0001143196010BD00BF00F1240301204FF436
:1005F00000111A681143196010BD00BF0868CB686C
:1006000043EA405E0CF5C07000EB0413240140F88F
:1006100004E00C69184640F8044F097D012903D114
:10062000016841F48071016050680121D860106850
:10063000986000201A681143196010BD90F82020BE
:10064000013A012A30D8B0B546F20060C4F2000089
:10065000026842F001020260026822F47C520260E9
:10066000D1F814E0CC694A6A0368012C43EA0222FB
:1006700002600EF01F024FF0010303FA02F2C36999
:100680006FEA020C23EA0203C36113D02CBBC368D8
:1006900003EA0C03C360CB688C8844EA034300EB95
:1006A000CE0423640B4611E0416A41F4802141628B
:1006B00001207047C3681343C3600B688C8844EA09
:1006C000034300EBCE04236401F10C038C681B8808
:1006D00043EA044300EBCE04636443688D6943EA54
:1006E0000204D1F810E0096A002D08BF03EA0C04E7
:1006F00044604369BEF1000F43EA020408BF03EA05
:100700000C040129446102D1C1691143C16101682E
:1007100021F0010101600020B0BD00007047000021
:10072000B0B590F82040013C012C7DD8D0F800C035
:1007300000290CBFDCF80C40DCF81040A4077DD089
:100740000CF5D8754FEA011C55F80C4014F0040460
:10075000946055F80CE005EB011C19BF4FEADE056B
:1007600055604FEA5E551560DCF80050E64605F02E
:100770000205D5605EF8044F24075ABFDEF800403A
:1007800004F00F0408241461DEF800400029C4F3CB
:1007900007249461DEF800504FEA15455561DCF8F6
:1007A00008201A70026802EB0112D2F8B8214FEA51
:1007B00012225A70026802EB0112D2F8B8214FEAF5
:1007C00012429A70026802EB0112D2F8B8214FEA85
:1007D0001262DA70026802EB0112D2F8BC211A71BF
:1007E000026802EB0112D2F8BC214FEA12225A71C0
:1007F000026802EB0112D2F8BC214FEA12429A7150
:10080000026802EB0112D2F8BC214FEA1262DA71DF
:1008100000680CBF00F10C0100F110010020202243
:100820000B681A430A60B0BD00F1240101204FF4A7
:1008300080220B681A430A60B0BD00BF00F124019A
:1008400001204FF400120B681A430A60B0BD00008B
:100850002DE9F04F81B0044600684669D0F8049055
:100860008768D0F80CB0D0F810A0D0F81880F10745
:1008700004D1002530071DD424E000BFF90710D0B3
:100880000121BA07816009D4780700F1AF803807E9
:1008900000F1B680204600F037FA02E0204600F072
:1008A00035FA0025F80500F18780F80300F1B180E2
:1008B000300707D51BF0100004D0206845F4007500
:1008C0001021C160700708D51BF0080005D0206812
:1008D0000821C160204600F0AFF9B00706D52068B6
:1008E000C068800702D0204600F0A8F9700607D53E
:1008F0001AF0100004D0206845F4806510210161D1
:10090000B00608D51AF0080005D02068082101615A
:10091000204600F0C5F9F00606D52068006980077A
:1009200002D0204600F0BEF9B00308D519F010003F
:1009300005D0206810214160204600F0B5F9F00391
:1009400008D519F0080005D020680821416020462C
:1009500000F0E6F9300440F19B805FEA497040F115
:10096000948006F4807008EA102028435FEA8871BA
:10097000014648BF41F00201B20558BF01465FEA97
:1009800048700D4648BF45F00405700558BF0D4638
:10099000300540F17A8018F0700000F07680103851
:1009A000000905286CD8DFE800F003655D6159692E
:1009B00045F0080564E000BF20684FF48071BA0577
:1009C00081600BD4780515D438051DD4204600F07D
:1009D0009FF9F8037FF56CAF1BE000BF204600F0E5
:1009E00099F9F8037FF564AF13E000BF4FF4006599
:1009F00058E700BF05F50055F8037FF559AF08E04B
:100A00004FF480554EE700BF05F58045F8037FF5AC
:100A10004FAF20684FF48031BA0381600AD4780365
:100A200010D4380314D4204600F076F930073FF58F
:100A300041AF47E7204600F071F930073FF53AAF84
:100A400040E700BF05F5004530073FF533AF39E714
:100A500005F5803530073FF52DAF33E745F08005CC
:100A60000EE000BF45F020050AE000BF45F040055C
:100A700006E000BF45F0100502E000BF45F48075B8
:100A80002068816921F07001816120680421416042
:100A900055B1606A40EA05012046616201B0BDE8D7
:100AA000F04FFFF73BBE00BF01B0BDE8F08F000084
:100AB000002804BF01207047B0B5044690F820001C
:100AC00010B9204600F06EF82068016841F001017D
:100AD000016000F00BFA054620684168C90705D19E
:100AE00000F004FA401B0B28F6D310E0016821F057
:100AF0000201016000F0FAF9054600BF2068416874
:100B000089070DD500F0F2F9401B0B28F6D3606A77
:100B1000052140F400306062012084F82010B0BD4F
:100B2000217E0268012922F0800208BF8032026023
:100B3000617E0268012922F0400208BF4032026053
:100B4000A17E0268012922F0200208BF2032026043
:100B5000E17E0268012922F0100218BF1032026003
:100B6000217F0268012922F0080208BF08320260D2
:100B7000617F0268012922F0040208BF043202608A
:100B8000D4E901C2D4E9033561691A432A43114308
:100B9000ACF101021143C16100200121606284F8BF
:100BA0002010B0BD80B586B046F200410068C4F2A6
:100BB0000001002288420592CDE9032202920192AF
:100BC00002D006B080BD00BF43F630000092C4F2F0
:100BD0000200036943F000730361036903F00073CB
:100BE0000093009B0092036843F0080303600068D1
:100BF000022300F008000090009803200190049068
:100C00000920059001F5D43001A9CDE9023200F0A8
:100C10009DF813200021002200F0EAF9132000F0D3
:100C2000D5F914200021002200F0E2F9142000F090
:100C3000CDF906B080BD00007047000010B58AB045
:100C400003AA01AB0021FFF76BFD08B10AB010BD8C
:100C50000398A0F5037111F1070FF7D3FC30BDF82D
:100C60000410C2B2920009BA52FA80F040F2BC02FB
:100C7000090CC2F2000202EB800422F82010BDF839
:100C80000600BDF808109DF80A20C0BAC9BAC4E928
:100C90000101227300F02AF920610AB010BD0000A2
:100CA000704700007047000070470000B0B5044670
:100CB00090F8200001281DD1022084F8200020682F
:100CC000016821F00101016000F010F9054600BF44
:100CD00020684068C00713D000F008F9401B0B28BB
:100CE000F6D3606A40F400306062052084F820008A
:100CF0000120B0BD606A40F4002060620120B0BDF8
:100D000000206062B0BD0000704700007047000026
:100D100070470000704700007047000070470000F7
:100D200070470000B0B5044600F0E0F8054640F218
:100D30000000C2F200000078611C18BF044400BF2C
:100D400000F0D4F8401BA042FAD3B0BD2DE9F04F1B
:100D500083B000F1200200F13E4741F600450092C9
:100D600007F1FF77C4F2020508224FEAB726A8422E
:100D700008BF072200254FF000084FF00009072E9A
:100D800038BF4FEAB72201920AE000BF09F101091A
:100D900008F10208B9F1100F05F1040500F0A28076
:100DA0000F68012202FA09FE17EA0E0AEED0D1F806
:100DB00004C003220CF003077E1E02FA08F4012E81
:100DC0006FEA040B12D88468CE6804EA0B0406FAB2
:100DD00008F634438460446824EA0E06CCF3001419
:100DE00004FA09F42643466004E000BF032F01D152
:100DF00003271EE0C6688C6806EA0B0604FA08F4AE
:100E00002643022FC66014D16FF00302009E02EA4F
:100E1000590756F807C005F01C040F220B69A240C1
:100E20002CEA0202A3401A43F251D1F804C00CF09C
:100E30000307026807FA08F302EA0B021A431CF4DC
:100E4000403F0260A2D0002243F644030292C4F263
:100E500002031A6843F6004442F480421A601A689A
:100E6000C4F2010402F480420292029A29F00302C1
:100E70004FF6084C2244CFF6FF7C52F80C3005F0B8
:100E80000C070F26BE40B343019E06FA07F73B430B
:100E900042F80C30A2684B6842EA0A0743F60C4C51
:100EA000DE0258BF22EA0A07A760C4F2010CDCF890
:100EB00000209E0242EA0A0758BF22EA0A07CCF83D
:100EC000007062689E0342EA0A0758BF22EA0A07D6
:100ED00067602268DB0342EA0A0758BF22EA0A0772
:100EE000276053E703B0BDE8F08F000040F2CC105C
:100EF000C2F200000068704740F2000040F2CC11DE
:100F0000C2F20000C2F2000100780A6810440860D2
:100F10007047000080B543F60040C4F2020001684B
:100F200041F400710160016841F480610160016871
:100F300041F480710160032000F086F80F2000F07A
:100F400005F800F027F8002080BD000070B540F2E1
:100F50000006C2F2000640F208013278C2F2000137
:100F60004FF47A730968B3FBF2F20446B1FBF2F175
:100F7000084600F039FB0F2C4FF0010508D838B9AE
:100F80004FF0FF3021460022002500F031F8746058
:100F9000284670BD82B0002043F640010190C4F2A3
:100FA00002014A6842F480424A604A6802F4804280
:100FB0000192019A0090086840F08050086008682B
:100FC00000F080500090009802B07047002848BFA1
:100FD000704700F01F01012202FA01F11C2202EA0F
:100FE000D0004EF20012CEF2000281507047000095
:100FF00010B54EF60C5CCEF2000CDCF80030C3F3FA
:10100000022E8EF00704042C28BF0424BEF1030333
:101010004FF0FF3E0EFA04F438BF0023A14399407D
:101020000EFA03F39A43114300F00F0200F16043FC
:101030000901043A03F564436244002848BF02F101
:101040000C03197010BD00004EF60C51CEF20001D9
:101050000A684FF6FF031A4060F30A2242F08060EC
:1010600040F0FD7008607047002804BF0120704701
:101070002DE9F04143F60808C4F202080446D8F806
:10108000F8030D4600F00700814207D988F8F853AD
:10109000D8F8F80300F00700A84277D1206881074C
:1010A00017D5410705D5D8F8001041F4E051C8F82C
:1010B0000010010705D5D8F8001041F46041C8F8C8
:1010C0000010D8F80010A26821F0F0011143C8F810
:1010D0000010C00740D1D8F8F80300F0070085429F
:1010E00007D288F8F853D8F8F80300F00700A842B0
:1010F0004CD12068410707D5D8F80010E26821F4E8
:10110000E0511143C8F80010000708D5D8F80000D6
:10111000216920F4604040EAC100C8F8000000F0F6
:1011200055F8D8F8001042F27612C1F30311C0F658
:101130000002515C40F2080220FA01F140F2040082
:10114000C2F200000068C2F200021160FFF7FEFE6A
:101150000020BDE8F08100BF6068811E022907D22F
:1011600058F8081C89015CBF0120BDE8F08111E03E
:10117000012807D158F8081C89035CBF0120BDE88D
:10118000F08107E058F8081C890703D40120BDE866
:10119000F08100BFD8F8001021F003010843C8F81F
:1011A0000000FFF7A3FE064641F28837D8F800009A
:1011B000616800F00C00B0EB810F8CD0FFF796FE59
:1011C000801BB842F2D90320BDE8F08110B543F688
:1011D0000404C4F202046168C1F3810142F20040D8
:1011E000C0F2F400DFE801F002040A0210BD00BF03
:1011F00047F64000C0F27D1010BD00BF2068216896
:101200002368490247F64001C0F27D1100F03F0219
:10121000C3F388105CBF42F20041C0F2F401A1FBAD
:1012200000010023FFF736F821680222C1F30141D3
:1012300002EB4101B0FBF1F010BD0000002804BF3B
:10124000012070472DE9F04182B00446007843F652
:101250000006C007C4F202060CD0B06800F00C0013
:10126000042840F081803068800303D5606800283E
:1012700000F06881207880071BD5B06810F00C0F53
:1012800009D0B06800F00C00082840F08780706832
:10129000400200F183803068800703D5E0680128B0
:1012A00040F050813068216920F0F80040EAC10028
:1012B00030602078000713D4207840072AD4A5692D
:1012C000002D00F03A81B06800F00C00082840F0D2
:1012D000A580012D40F00E81012002B0BDE8F08113
:1012E0006069002800F082800020C4F247200121BC
:1012F000C0F8801EFFF7FAFD054600BF706F80073B
:10130000DAD4FFF7F3FD401B0228F7D9032002B01F
:10131000BDE8F081306C5FEAC0080AD4002001907B
:10132000306C40F080503064306C00F080500190A0
:10133000019847F20007C4F200073868C00547D497
:10134000386840F480703860FFF7D0FD054600BF74
:101350003868C0053CD4FFF7C9FD401B0228F7D907
:10136000032002B0BDE8F081B06800F00C0008284E
:1013700003D1706840023FF576AF61683068B1F51F
:10138000803F07D0B1F5A02F40F09A8040F4802034
:101390003060306840F4803030609AE0E0680028C7
:1013A00040F20000C4F247205CD001210160FFF749
:1013B0009DFD0546306880073FF574AFFFF796FD49
:1013C000401B0228F6D9032002B0BDE8F08100BF1F
:1013D000A168306F012905D0052955D140F00400DE
:1013E0003067306F40F00100306756E00020C4F2F3
:1013F00047200021C0F8801EFFF778FD054600BF9A
:10140000706F80077FF558AFFFF770FD401B022813
:10141000F6D9032002B0BDE8F08100BF0027C4F276
:10142000472700203866FFF761FD022D05460DD1E4
:101430003068800140F18A80FFF758FD401B022888
:101440004FF00300F4D902B0BDE8F08130688001AC
:1014500073D5FFF74BFD401B02284FF00300F5D971
:10146000F1E700BF00210160FFF740FD054600BF26
:10147000306880077FF51DAFFFF738FD401B02285D
:101480004FF00300F4D9DEE720F001003067306F41
:10149000002920F0040030677AD0FFF727FD0546C9
:1014A00041F28837306F800700F18480FFF71EFD1E
:1014B000401BB842F6D9032002B0BDE8F08100BF5E
:1014C00020F4803030603068002920F480203060C3
:1014D0007AD0FFF70BFD0546306880033FF5CAAEB2
:1014E000FFF704FD401B6428F6D9032002B0BDE8D5
:1014F000F08100BF7068E16900F480028A4221D166
:10150000216A00F03F028A421CD147F6C071626A2C
:101510000140B1EB821F15D1A16A4FF6FF73C903D9
:10152000994300F44032A1F580318A420AD1E16A40
:1015300000F07060B0EB016F04D1002002B0BDE894
:10154000F08100BF012002B0BDE8F08104F11C056C
:101550002FCD084340EA8210D9034FF6FF72914322
:10156000A1F5803140EA05600843706001203866CB
:10157000FFF7BCFC044600BF30688001DDD4FFF7F4
:10158000B5FC001B02284FF00300F5D95BE700BF54
:10159000FFF7ACFC054641F2883700BF306F80078B
:1015A00008D5FFF7A3FC401BB8424FF00300F5D964
:1015B00049E700BFB8F1000F3FF581AE306C20F075
:1015C000805030647BE600BFFFF790FC054600BF0B
:1015D000306880037FF54EAEFFF788FC401B64281F
:1015E0004FF00300F4D92EE7411E0020B0EB116F3D
:1015F0001CBF012070474EF21002CEF20002516073
:101600004EF62351CEF20001F0230B7007219060BB
:101610001160704790F83C20012A04BF02207047F7
:10162000B0B501F108053CCDD1E900CE23F47C53DF
:1016300022F470521A432EF4F0431A432CF4E04380
:101640001A4324F4C0431A432A43C96922F480424E
:10165000036811435964002180F83C100020B0BD9C
:1016600090F83C20012A4FF0020254D010B580F8C7
:101670003D200268D2F804E0D2F808C00C682EF0D1
:101680007003234341F2FF74C4F20004A24253608A
:101690000EDC40F2FF73C4F200039A4216DCB2F192
:1016A000804F2BD040F20043C4F2000324E000BF7F
:1016B00040F2FF33C4F201039A4213DC41F6000307
:1016C000C4F200039A4219D0002313E040F600034D
:1016D000C4F200039A4211D040F60043C4F2000362
:1016E0000AE000BF44F20003C4F201039A4205D0AD
:1016F00040F20043C4F201039A4204D149682CF03D
:101700008003194391600121002280F83D1080F888
:101710003C20BDE81040104670470000002804BF80
:101720000120704710B5044690F83D0028B900200C
:1017300084F83C00204600F01FF8022084F83D00A9
:101740002068211D00F018FC012084F8460084F870
:101750003E0084F83F0084F8400084F8410084F89B
:10176000420084F8430084F8440084F8450084F87B
:101770003D00002010BD000000680021C4F20101FE
:10178000884218BF704781B00020009043F64400A3
:10179000C4F20200016841F001010160006800F03C
:1017A00001000090009801B07047000090F83C20C4
:1017B000012A4FF002026CD080B580F83D20D0F8AD
:1017C00000C04FF67772DCF8083023EA0202CCF84A
:1017D00008200B684F2B29DC1F2B45DD202B46D022
:1017E000302B44D0402B40F0AF80D1F804E0C968E2
:1017F000DCF82030DCF8202022F00102CCF8202098
:10180000DCF8182022F0F00242EA011123F00A026B
:1018100042EA0E02CCF81810CCF82020DCF80810B0
:1018200041F0470121F0300128E000BF6F2B33DD8C
:10183000B3F5005F74D0B3F5805F21D0702B40F01A
:101840008380D1E901E3C968DCF8082043EA0E038C
:1018500022F47F4243EA01211143CCF80810DCF85E
:10186000081041F0770109E00BB1102B6CD1DCF8C6
:10187000081021F07001194341F00701CCF808105D
:101880000022012180F83D10002180F83C10BDE8C5
:1018900080401046704700BF502B21D0602B53D1A1
:1018A000D1F804E0C968DCF82030DCF8202022F010
:1018B0001002CCF82020DCF8182022F4704242EA12
:1018C000013123F0A00242EA0E12CCF81810CCF835
:1018D0002020DCF8081041F0670121F01001CDE76D
:1018E000D1F804E0C968DCF82030DCF8202022F0D0
:1018F0000102CCF82020DCF8182022F0F00242EAA5
:10190000011123F00A0242EA0E02CCF81810CCF8BA
:101910002020DCF8081041F0570121F02001ADE74C
:10192000D1E901E3C968DCF8082043EA0E0322F498
:101930007F4243EA01211143CCF80810DCF808107B
:1019400041F480419AE700BF01229AE790F83C30C9
:10195000012B04BF022070474FEAB202032A00F2B3
:10196000FF802DE9F043DFE802F003B13F7F00BFC5
:10197000036840F200461C6A1A6A24F0020422F04E
:1019800001021A621A46D3F804C052F818EF8F68A1
:1019900043F48065C4F20106B54244EA070405D168
:1019A000CF6824F00C0427F004073C430F68B542CD
:1019B00006D1D1E905582CF440762E4346EA080CAE
:1019C0002EF073063743C3F804C09F614F6809695E
:1019D0005F631C629F6947F008079F619F6927F05A
:1019E00004079F61B1E000BF036840F200481C6A31
:1019F0001A6A24F4007422F480721A621A46D3F828
:101A000004C052F81CEF8F6843F48065C4F20108EB
:101A1000454544EA072408D1CF6840F2FF463F021B
:101A200024F4406427EA06063443D1F80090454583
:101A300006D1D1E905562CF440572E4347EA061C3F
:101A40002EF0730747EA0907C3F804C0DF614F6847
:101A50000969DF631C62DF6947F00807DF61DF693E
:101A600027F00407DF6170E0036840F20045D3F817
:101A700020C01A6A43F4806722F480521A621A4620
:101A80005C6852F81C8FD1F800E08E68C4F2010542
:101A9000AF4204D14D6924F4804444EA85142CF407
:101AA000005747EA063728F4E64646EA0E265C6009
:101AB000DE614E6809691E641F62DF6947F40067D2
:101AC000DF61DF6927F48067DF613DE0036840F292
:101AD00000481C6A1A6A24F0200422F010021A62DC
:101AE0001A46D3F804C052F818EF8F6843F48065A3
:101AF000C4F20108454544EA071407D1CF686FF0E6
:101B0000400624F0C00406EA07163443D1F80090DA
:101B1000454506D1D1E905562CF440672E4347EAE6
:101B2000860C2EF4E64747EA0927C3F804C09F61F4
:101B30004F6809699F631C629F6947F400679F6152
:101B40009F6927F480679F61090213681943116038
:101B50000021BDE8F043002280F83C200846704791
:101B60000121002280F83C2008467047002804BF6D
:101B70000120704710B5044690F83D0028B90020B8
:101B800084F83C00204600F01FF8022084F83D0055
:101B90002068211D00F0F0F9012084F8460084F847
:101BA0003E0084F83F0084F8400084F8410084F847
:101BB000420084F8430084F8440084F8450084F827
:101BC0003D00002010BD000070470000FEE700004F
:101BD00080B540F25C1046F20041C2F20000C4F24F
:101BE0000001032200234FF4302C80E80E004FF454
:101BF0008071C0E9033C43610183C0F81A30FEF7ED
:101C000057FF002808BF80BDBDE88040FEF72EBC0E
:101C100083B0002043F630010290C4F202010A684A
:101C200042F001020A600A6802F001020292029A7E
:101C300001900A6842F008020A600A6802F008028D
:101C40000192019A0090086840F0800008600868DE
:101C500000F080000090009803B0704770B59CB011
:101C6000002540F28410C4F201050021C2F20000F8
:101C70004FF6FF721591CDE913111191CDE90F11B6
:101C8000CDE90D11CDE90B11CDE90911CDE9071110
:101C9000CDE90511CDE90311CDE90111C0E90051EC
:101CA000C0E90212C0E904118161FFF737FD002885
:101CB00018BFFEF7DBFB4FF48050129040F2841007
:101CC000C2F2000012A9FFF771FD002818BFFEF74D
:101CD000CDFB40F28410C2F20000FFF747FF00285E
:101CE00018BFFEF7C3FB40F284100024C2F20000CC
:101CF00010A9CDE91044FFF7B3FC002818BFFEF788
:101D0000B5FB6020CDE9090440F28410C2F2000066
:101D100009A90022CDE90B44CDE90D440F94FFF74A
:101D200015FE002818BFFEF7A1FB40F284144FF403
:101D30000050C2F200040026069001A92046059634
:101D4000CDE90366CDE901660896FFF763FC00283C
:101D500018BFFEF78BFB20681B96A842CDE91966D9
:101D60001896179602D01CB070BD00BF002043F635
:101D700030011690C4F202010A6842F001020A60C2
:101D8000096801F00101169116994FF480711791BD
:101D90000221CDE918101A9001201B9005F5803022
:101DA00017A9FEF7D3FF1CB070BD0000FEE70000CE
:101DB000FEE7000030EE601A90ED030A90ED044A51
:101DC00031EE005AB4EE445AB0EE452AB1EE443A30
:101DD00080ED061AF1EE10FAC8BFB0EE442AB4EE58
:101DE000432AF1EE10FAB0EE420AB4EE445AB8BFFC
:101DF000B0EE430AF1EE10FA80ED035A08DCB4EEBF
:101E0000432AF1EE10FAB8BF80ED030A02E000BFEA
:101E100080ED030A90ED072A90ED003A90ED014A1B
:101E200090ED025A31EE422A21EE033A24EE000AE6
:101E300090ED056A22EE052A33EE000A30EE024AE2
:101E4000B4EE464AB0EE442AB1EE463AF1EE10FA4C
:101E5000C8BFB0EE462AB4EE432AF1EE10FAB0EE57
:101E6000420AB4EE464AB8BFB0EE430AF1EE10FAA9
:101E700080ED084A0ADCB4EE432AF1EE10FAB8BF4E
:101E800080ED080A80ED071A704700BF80ED080A50
:101E900080ED071A70470000002180EC030AC0EDB6
:101EA000041A80ED052AC160C0E90611016270477D
:101EB0007047000070470000FFF71EB870B592B081
:101EC00006AC20463021FEF75DFA002543F64000BF
:101ED0000595CDE90355CDE901550095C4F2020001
:101EE0000168022641F080510160006800F08050D6
:101EF0000090009847F200000095C4F200000168CD
:101F000041F480410160006800F480400090009836
:101F10000120099010200A9008200E90A820CDE9F9
:101F20000F060420119020460696CDE90C65FFF7B8
:101F300085F918B172B600BFFEE700BF0F20CDE9EA
:101F400001064FF4A05004904FF48050059001A872
:101F500005210395FFF788F810B172B6FEE700BFC0
:101F600012B070BD4EF68850CEF20000016841F408
:101F70007001016070470000B0B540F6FF3E056893
:101F8000C4F2000E40F2004C7045C4F2010C25DC96
:101F9000B0F1804F2FD040F20043C4F200039842CA
:101FA00029D040F60003C4F20003984223D041F642
:101FB000FF73C4F20003984228DC70453ADCB0F1AC
:101FC000804F5BD040F20043C4F20003984255D0EA
:101FD00040F60003C4F200034EE000BF40F60043A9
:101FE000C4F20003984206D0604504D00023C4F236
:101FF00001039842DBD14B6825F0700243EA0205E9
:1020000041F6FF73C4F200039842D6DD43F6FF7336
:10201000C4F2010398421FDC42F20003C4F2000341
:1020200098422BD00023C4F20103984226D0604589
:1020300024D028E040F60043C4F2000398421DD0AB
:1020400041F60003C4F20003984217D041F6004362
:10205000C4F2000310E000BF44F20003C4F2010325
:1020600098420BD044F60003C4F20103984205D015
:1020700044F20043C4F20103984204D1CB6825F432
:10208000407243EA02050A688C684B69C46240F4F6
:1020900080648262644504BF09690163026825F0B7
:1020A000800142F004021943026001224261016092
:1020B000B0BD0000FEE70000FEF72CFFFFF7FEFEBC
:1020C000FFF7A6FDFFF784FDFFF7C8FDFEF7D2F985
:1020D00040F27004C2F20004DFED1B0A9FED1B1AF0
:1020E000DFED1B1A9FED1B2A201DB2EE040AFFF73D
:1020F000D3FE9FED198A40F2BC05C2F2000500BF75
:1021000001204FF4FA71FEF7D5F995ED060AB8EE05
:10211000C09AFEF7EBFEFEF7E9FE214641F8040BFC
:102120000846B0EE480AF0EE490AFFF743FEBDEE5E
:10213000C00A10EE100A002100220346FEF7CEF975
:102140000120FEF7EFFDDBE78FC2D53F0AD7233C26
:1021500000401C460050434700001643F1EE100AB1
:102160004FF6FF71C0F2C03120EA010040F040702C
:10217000E1EE100A704700000000000000000102BC
:102180000304060708090000A82100080000002039
:1021900010000000EC010008B82100081000002029
:1021A000C00700000C020008010000001000000041
:0821B0000024F400000000000F
:040000050800018965
:00000001FF
