:020000040800F2
:10000000F80C002061020008E14B00085D43000885
:10001000DD4B0008CD170008055C0008000000005B
:100020000000000000000000000000007154000803
:10003000F11700080000000015520008A155000843
:100040007B0200087B0200087B0200087B0200089C
:100050007B0200087B0200087B0200087B0200088C
:100060007B0200087B0200087B0200087B0200087C
:100070007B0200087B0200087B0200087B0200086C
:10008000D1170008E11700087B0200087B02000876
:100090007B0200087B0200087B0200087B0200084C
:1000A0007B0200087B0200087B0200087B0200083C
:1000B0007B0200087B0200087B0200087B0200082C
:1000C0007B0200087B0200087B0200087B0200081C
:1000D0007B0200087B020008F55B00087B02000839
:1000E000F51700087B0200087B02000800F002F808
:1000F00000F0A6F814A696E8000CB244B344DA4522
:1001000001D100F09DF8BAE80F000FA696E8300084
:10011000A5EB040504EB0607AAEB0704A7F101070A
:100120004FEA15154FEA3414A4F10104AC4201D38F
:1001300000F086F813F0010F18BFFB1A43F001031B
:1001400000F001F8DBE71847D0780000F0780000F5
:10015000103A24BF78C878C1FAD8520724BF30C8F3
:1001600030C144BF04680C60704700007047000055
:100170000023002400250026103A28BF78C1FBD8B0
:10018000520728BF30C148BF0B6070476E2900F08E
:10019000C782702900F00984662906F0BF816529AD
:1001A00006F0BC81672906F0B981612906F0B881A3
:1001B00003681B0A28BF41F08001692900F074829E
:1001C000642900F07182752900F06E826F2900F0B9
:1001D0009783782900F0D583E92900F03183E42959
:1001E00000F02E83F52900F02B83EF2900F0948393
:1001F000F82900F0D4830368DB0928BF41F08001AF
:10020000632901F06381732901F06881E32901F01A
:100210007381F32901F07881002070471FB501F048
:10022000C9F904000020002106F062F9401C60605A
:100230000020002106F046F9E0601FBD10B510BD9A
:1002400001F08AF91146FFF7E9FF05F03DFD01F0E5
:1002500067FA03B4FFF7F2FF03BC01F0AFFA000046
:100260000948804709480047FEE7FEE7FEE7FEE74A
:10027000FEE7FEE7FEE7FEE7FEE7FEE70448054986
:10028000054A064B704700003D560008ED00000887
:10029000F8060020F80C0020F8080020F8080020DC
:1002A0000FB41CB5084B06AA7B446946009005981C
:1002B00000F04FFA04460020694600F05DFA20463F
:1002C0001CBC5DF814FB0000CD04000010B5431CFD
:1002D00002E010F8011B71B18107FAD14FF0013231
:1002E00002C88C1A8C4314EAC211F9D0C01A0A064B
:1002F00003D0C01E10BDC01A10BD0A0401D0801E5C
:1003000010BD0902FCD0401E10BD032A40F230800F
:1003100010F0030C00F0158011F8013BBCF1020F46
:10032000624498BF11F801CB00F8013B38BF11F8C7
:10033000013BA2F1040298BF00F801CB38BF00F8DE
:10034000013B11F0030300F0FF83083AC0F008807E
:1003500051F8043B083A51F804CBA0E80810F5E73F
:10036000121D5CBF51F8043B40F8043BAFF3008022
:10037000D20724BF11F8013B11F801CB48BF11F897
:10038000012B24BF00F8013B00F801CB48BF00F867
:10039000012B70474FF000020429C0F0128010F0CA
:1003A000030C00F01B80CCF1040CBCF1020F18BF51
:1003B00000F8012BA8BF20F8022BA1EB0C0100F0E4
:1003C0000DB85FEAC17C24BF00F8012B00F8012BB7
:1003D00048BF00F8012B70474FF0000200B51346EC
:1003E00094469646203922BFA0E80C50A0E80C5055
:1003F000B1F12001BFF4F7AF090728BFA0E80C5006
:1004000048BF0CC05DF804EB890028BF40F8042BFE
:1004100008BF704748BF20F8022B11F0804F18BF6B
:1004200000F8012B70470000014900F0BFBB00003D
:100430005800002010B503681C1404EB21449BB243
:1004400089B2194494FBF2F302FB134394FBF2F4D8
:1004500001EB034393FBF2F102FB113193FBF2F347
:1004600001E05B1E11440029FBDB016003EB04404B
:1004700010BD2DE9F04704464FF0FF3A86B0006802
:10048000029060680390A0680490E0680190206981
:100490000090656905F18040B0F1004F7DD83C22A5
:1004A000002102A8FFF7C6FF3C22014603A8FFF780
:1004B000C1FF1822014604A8FFF7BCFF411E40F20D
:1004C000B55201A8FFF7B6FF0C2206466846002188
:1004D000FFF7B0FF00EB860028443E4D00267D4428
:1004E0000FE09A1A491CCDE90012022902D00C290A
:1004F00007D104E0810704D0521C019201E0401CA6
:1005000000960099019B6A5C9A42EADD012906D1B6
:100510001C2B04D1810702D00221CDE90016A0F1E5
:1005200046018B2940D20199009B00220F4602E030
:10053000AE5C521C31449A42FADB012B02DD820789
:1005400000D0491E40F2B55540F26D16C21700EBBF
:10055000927292106A4300F0030505FB062285079C
:100560000A4400D1521E049D02EB4206DDF80C80C5
:10057000A94605EBC605184EC5EB0515DDF808C004
:1005800008EB850535442E14ADB2C6EB0616C5EB57
:100590000515B6000CEB850500E005E006EB1546F9
:1005A00066F31F45360C03D0504606B0BDE8F08711
:1005B000C4E904307F1C0720521CC4E9029792FB57
:1005C000F0F3E4E806C800FB132084E8030428469F
:1005D000EBE7000083600000A039CEFD7047704754
:1005E000704770B5044685690068C10601D530269C
:1005F00000E02026C00707D070BDD4E901213046B5
:100600009047206A401C20626D1EF6D570BD70B503
:10061000044685690078C00707D170BDD4E901217F
:1006200020209047206A401C20626D1EF6D570BDC8
:1006300009684A0501D540B27047C905FCD500B22A
:10064000704709684A0501D5C0B27047C905FCD595
:1006500080B2704770B50C460546012A05D028784F
:10066000800600D5EA69002302E0012305E05B1C57
:10067000934202D2E05C0028F9D1A869E618C01ABA
:10068000A861286A184428622846FFF7AAFF04E0F8
:10069000D5E9012114F8010B9047B442F8D328465C
:1006A000FFF7B5FF70BD00002DE9F04106460024BC
:1006B00010687529314616A510D0FFF7B9FF00283C
:1006C00002DA404213A507E031688A0701D512A576
:1006D00002E0490704D511A5012401E0FFF7B1FFAD
:1006E00000210A2206F1240709E0B0FBF2FCB0FB6E
:1006F000F2F302FB1C00303078541846491C0028E5
:10070000F3D123462A463046BDE8F04100F0EFBA67
:10071000000000002D0000002B0000002000000061
:1007200011680268006A530501D508700AE0D30514
:1007300001D5088006E0130603D5C217C1E90002FF
:1007400000E008600120704701694A1C02610878D6
:10075000704700B58FB0CDE9013100210591054901
:100760007944CDE903101146684600F029F90FB02D
:1007700000BD0000E5FFFFFF0A6802F8010B0A60F8
:10078000704700002DE9FF5F15468A460446DFF8F2
:10079000AC80F8440027D8E900103E46CDE90010AF
:1007A00010E03AF816106A4602A800F0B1FE411CAB
:1007B00007D02178890603D5E269391891420DD80E
:1007C0000744761C2078800602D5E069B84205DD32
:1007D000AE42E6DB3AF816000028E2D1A069C01B61
:1007E000A0612046FFF7FDFED8E90010CDE900101A
:1007F000002017E03AF818106A4602A800F088FEB8
:10080000B0F1FF3F81460BD000250DF1080B05E04C
:10081000D4E901211BF8050090476D1C4D45F7D325
:1008200008F10100B0428046E4DB206A38442062CF
:100830002046FFF7ECFEBDE8FF9F00008E5D000044
:100840002DE9F0418046D21D22F007020025D2E9B1
:100850000002F52915A614D0011E72F1000106DA76
:100860000023D0EB030063EB020211A608E0D8F8E6
:1008700000108B0701D50FA602E0490701D50EA68F
:1008800001251146002408F1240704E000F0EAF9EC
:1008900030323A55641C50EA0102F7D12B463246F9
:1008A00021464046BDE8F04100F021BA00000000BA
:1008B0002D0000002B0000002000000030B40021BB
:1008C00000F1240408E002F00705D208303542EABE
:1008D0004372DB086554491C52EA0305F3D10468EE
:1008E000002310A2250708D504F020040C4304D0EF
:1008F000C46901230CA2641EC46130BC00F0F7B9C6
:1009000010B5044621461068FFF79BFE02462046BC
:10091000BDE810400023D1E7D21D22F00701D1E944
:100920000023CBE70000000030000000F0B40D46CB
:100930000188090502D5214C7C4402E01F4C7C440F
:100940000E34002100F1240608E002F00F0712091E
:10095000E75D42EA03721B097754491C52EA030718
:10096000F3D102780023120704D5702D06D009B107
:10097000022311342246F0BC00F0B9B9012310342F
:10098000F8E770B504460D4621461068FFF759FE9A
:10099000024629462046BDE870400023C6E7D21D26
:1009A00022F00703D3E90023C0E70368126843F08D
:1009B000200303600823C3610023B7E7F05B000056
:1009C0002DE9F05F894604464FF0000ADFF874B164
:1009D000FB44C0F820A02046E1688847002874D076
:1009E000252806D0D4E901219047206A401C2062C6
:1009F000F1E700265F462046E16888472028054643
:100A000007DB312D05D2781910F8200C08B1064308
:100A1000F1E7B00701D526F00406C4F81CA00027B2
:100A2000C4F818A02A2D09D0284605F043FD38B394
:100A300004EB8708303DC8F8185019E059F8041B3A
:100A4000204604EB87029161E1688847012F054643
:100A500018D1E069002820DA26F020061DE0D8F839
:100A6000180000EB800005EB40003038C8F8180093
:100A70002046E1688847054605F01CFD0028EED1B8
:100A8000012F0AD02E2D08D12046E16888477F1C0F
:100A90000546022F46F02006C4DBA069002803DAD1
:100AA000404246F00106A061F00701D026F0100692
:100AB0006C2D0BD0682D09D04C2D39D06A2D35D036
:100AC000742D35D07A2D33D016E038E0E1682F460A
:100AD00020468847B842054609D16C2F26D04FF4EE
:100AE0008060E168064320468847054604E06C2F95
:100AF0001AD04FF4807006430DB3A5F141001928B8
:100B000002D8203546F400664A462946204626602B
:100B10004E46FFF73BFB80B101280BD0F61D26F0B7
:100B2000070000F1080956E74020E4E78020D8E7F5
:100B30000020D6E706F104094DE7284652E7206A6F
:100B4000BDE8F09F805B000010B5203AC0F00B803C
:100B5000B1E81850A0E81850B1E81850A0E81850B3
:100B6000203ABFF4F5AF5FEA027C24BFB1E8185029
:100B7000A0E8185044BF18C918C0BDE810405FEA8B
:100B8000827C24BF51F8043B40F8043B08BF704707
:100B9000D20728BF31F8023B48BF11F8012B28BF0C
:100BA00020F8023B48BF00F8012B704770B50C4697
:100BB000016800204A1C3ED03C22B1FBF2F302FB4C
:100BC0001313B1FBF2F12360B1FBF2F302FB131339
:100BD000B1FBF2F118226360B1FBF2F302FB1313D5
:100BE000B1FBF2F146F2E0320A440721A360B2FB06
:100BF000F1F301FB132140F2B553B2FBF3F5A16110
:100C0000B2FBF3F103FB15228900B2F5B77F08D3DD
:100C10009B10521EB2FBF3F52944B2FBF3F503FB24
:100C200015220F4BE261616189077B440CD03B2A9E
:100C30000AD3521C08E02C212046FFF7CDFB0120EF
:100C4000E0600AE0521A401C195C9142FAD9521C29
:100C5000C4E903204FF0FF302062204670BD000041
:100C60003759000030B5B0F10A0271F100034FEAC4
:100C7000900E4EEA817EB0EB0E0061EB91014FEADF
:100C8000101E4EEA017E10EB0E0041EB11114FEAEF
:100C9000102E4EEA016E10EB0E0041EB11214FEACF
:100CA000104E4EEA014E10EB0E0041EB1141401880
:100CB00041F100014FEAD00040EA41704FEAD10112
:100CC0004FEA810444EA907410EB800544EB010480
:100CD0006D1944EB0404521BA3414FF0000348BFBD
:100CE0000A3200D530BD401C41F1000130BD2DE974
:100CF000F0470D4699469246044600F124080168E3
:100D0000880604D5E06921F01001216000E001208F
:100D1000A84201DD471B00E00027A1697A1902EB18
:100D20000900081AA0612078C00602D42046FFF707
:100D300058FC002608E0D4E901211AF80600904783
:100D4000206A401C761C20624E45F4DB2078C006E9
:100D50000AD52046FFF745FC06E0D4E90121302002
:100D60009047206A401C2062381EA7F10107F4DC7E
:100D700007E0D4E9012118F805009047206A401CDB
:100D80002062281EA5F10105F3DC2046FFF73FFC99
:100D90002078000602D50220BDE8F0870120FBE79D
:100DA0002DE9FF4F0C461E464FF0FF378BB0D2E9BE
:100DB0000001DDF860800A908A46C1F30A5505B942
:100DC0003D46002108464FF00000BAF1000F00F444
:100DD000400005DA00EB80004FF4400101EA5000CA
:100DE0004FEA9059B9F1010F00DDB9460A9850EA6F
:100DF0004A000ED044F61050A5F2FF3545432F149B
:100E0000B8F1000F1ED07542291E1EDDC9F1000287
:100E10001CE0B8F1010F4FF0000001D0302103E0D9
:100E2000F24305E02154401CB042FBDB3046002277
:100E3000002121540B99C1F80880C1E900200FB0AE
:100E4000BDE8F08FBD1B6D1CDEE74A4600DA694243
:100E500006A800F0F3FB06AB93E8070003AB83E8BA
:100E6000070050460A9904F049FF8DE80700A0F5F5
:100E700000501F3800900398002D0ADD42F21F0138
:100E80004A460844002303A90390684605F0B2F9D6
:100E900009E0A0F500504A461F38002303A903903B
:100EA000684605F0BCF98DE807000004000C03D08B
:100EB0004FF0FF30410800E01046B8F1000F03D0BA
:100EC0000022009215461EE0751E05D4FFF7CAFEEB
:100ED000303262556D1EF9D5B3460122084302D067
:100EE00000227F1C04E02078302801D100227F1EE0
:100EF000002A099784D01DE0112D07DAFFF7B2FE12
:100F0000303262556D1C50EA0102F5D1084302D01F
:100F10000098C8B10EE00021681E05E0235C625C09
:100F200063542254401E491C8142F7DBAB46A81B88
:100F3000401E0990002004F80B000B98099AC0F895
:100F40000880C0E9002B7AE711264FF0000857E728
:100F50002DE9F04F88460446D21D22F0070191B0DA
:100F6000D1E90001CDE90A0105F090FA02460B989B
:100F7000C00F01D02D2007E02068810701D52B206C
:100F800002E0202101EAC000032A099001D0072ACB
:100F900005DB03464146204600F010FB0BE12078BC
:100FA000800601D5E06900E00620B8F1650F8146B2
:100FB00006D0B8F1660F18D0B8F1670F70D131E0E4
:100FC0000020B9F1110F009001DB112301E009F1BC
:100FD00001030AAA01A90CA8FFF7E2FEDDE90C70E3
:100FE000002609F10105834647E001204B460090A9
:100FF0004FF000470AAA01A90CA8FFF7D1FEDDE9CE
:101000000DB00C995D46002610B909F101000D18CC
:10101000B9EB050003D4C0F1FF3609F10105A5EBDA
:1010200009002BE0B9F1010F01DA4FF001090020AE
:10103000B9F1110F0090484601DD112300E003468D
:101040000AAA01A90CA8FFF7ABFEDDE90C704D461A
:1010500000268346207800070AD4AB4500DA5D46B7
:1010600001A8012D04DD411911F8011C302907D018
:101070004F4502DA17F1040F04DA012082460FE02F
:101080006D1EEEE7002F02DCED1B3E4403E0781CF2
:10109000A84200DD7D1CB81B00F1010A4FF000479B
:1010A0002078000703D4AA4501DB4FF0FF3A002166
:1010B000B7F1004F0DF143088DF8431024D0022002
:1010C0002B23002F01DA7F422D230A21021EA0F1DB
:1010D000010000DC5FB197FBF1FC97FBF1F201FB33
:1010E0001C7C17460CF1300C08F801CDEEE7A8F196
:1010F000010003702188090501D5452100E0652123
:10110000A0F1010800F8011C09980FA9A1EB08073C
:10111000FF1D00B10120411901EBEA70A1693844BB
:10112000081A401EA0612078C00602D42046FFF7AE
:1011300058FA099828B1D4E901219047206A401C47
:1011400020622078C00622D52046FFF74AFA1EE02A
:10115000002E04DBB34502DD01A8805D00E03020F5
:10116000D4E901219047206A401C2062761CAAF134
:1011700001005FEA000A0AD100F01CFAC0680168A9
:10118000405CD4E901219047206A401C2062281E5F
:10119000A5F10105DCDC07E0D4E9012118F8010B19
:1011A0009047206A401C2062381EA7F10107F3DC3B
:1011B0002046FFF72CFA032011B041E62DE9F04F4D
:1011C00004460D46D21D22F0070089B0D0E90097F1
:1011D0004846394605F05AF90246F80F01D02D234A
:1011E00007E02068810701D52B2302E0202101EAD6
:1011F000C0038DF820300BB1012000E00020032A4D
:10120000824601D0072A04DB2946204600F0D6F9A1
:101210003FE12078800601D40D2500E0E569C7F3A1
:101220000A560D2D49DA00214FEA175B08464FF0A8
:101230000000002F00F4400007DA00EB80004FF4BC
:10124000400100EBD07001EA60008115012901DD49
:101250004FF0FF3100224FEA850CBCF1180F06D386
:101260001346ACF118004FF08052C24003E04FF437
:10127000801323FA0CF30CF10C0CBCF1200F04D3F7
:10128000ACF1200C09FA0CF001E007FA0CF000298F
:101290004FF0004801DD18B90FE00ED140450CD3E6
:1012A00019EB02095F4121B9404502D19F4329EA68
:1012B0000209BBEB175F00D0761C2088000502D521
:1012C0007B48784402E07A487844193808AA3023E9
:1012D00002F80A30037C0AF10101002E0AF1020A29
:1012E00053546A4602DC4FF0300101E04FF0310107
:1012F0004FF001088DF8001002D0A6F2FF3603E08F
:1013000059EA470100D06B4E002D02DC2178090715
:1013100004D54FF002082E218DF80110C44600219B
:101320000BE0C7F303433F01C35C491C6D1E02F889
:101330000830052908F1010801DA002DF1DC00214F
:101340000CE000EB1973491C1B786D1E082902F88C
:1013500008304FEA091908F1010801DA002DF0DC24
:1013600021688B0602D516E0A8F10108E04505DDED
:1013700002EB080313F8013C302BF5D0B8F1000F55
:1013800009DD02EB080313F8013C2E2B03D10907FA
:1013900001D4A8F10108002D05DD3E2102F8081056
:1013A0006D1E08F10108407C002E02F8080008F1CB
:1013B000010804DA2D20764202F8080002E02B2012
:1013C00002F808000A214FF47A70864208F10108F9
:1013D0000BDB96FBF0F3303302F8083096FBF0F3AA
:1013E00008F1010800FB136601E0642E0CDB6420A9
:1013F00096FBF0F3303302F8083096FBF0F308F177
:10140000010800FB136601E00A2E06DB96FBF1F0F3
:10141000303002F8080008F1010896FBF1F001FBFA
:101420001060303002F80800A16908F1010808EBEB
:10143000050202EB0A00081AA0612078C00602D457
:101440002046FFF7CEF8216A08AE01EB0A002062C1
:1014500004E0D4E9012116F8010B9047BAF1010A22
:10146000F7D22078C00602D52046FFF7BAF86E46BC
:1014700009E016F8010B3E280FD0D4E9012190476E
:10148000206A401C2062B8F10108F2D22046FFF722
:10149000BEF809B00320BDE8F08F206A284420621E
:1014A00003E0D4E90121302090476D1EEBD3F8E72B
:1014B000BE52000002FCFFFF10B5436913B1AFF349
:1014C000008001E0FFF7C6F8012010BD127800F19E
:1014D00024010A7000224A700122EDE711684FF0E2
:1014E000FF32E9E710B5436913B1AFF3008001E0C3
:1014F000FFF748F9012010BD128800F12401828411
:101500000022C2840122EDE711684FF0FF32E9E7C3
:101510002DE9F04116460C46054600F043F80368F5
:1015200093F80101012807D0FF2C12D8185D80B173
:1015300001202C70BDE8F081D3F807013246214626
:1015400003F20713C7182846BC46BDE8F041002344
:1015500060474FF0FF30EDE7754600F0EBF8AE4620
:1015600005006946534620F00700854618B020B5AF
:10157000FEF784FEBDE820404FF000064FF0000764
:101580004FF000084FF0000BAC46ACE8C009ACE8E7
:10159000C009ACE8C009ACE8C00921F007018D46DC
:1015A0007047000010B500F005F8001D10BD00BF29
:1015B000414F000000487047A40000202DE9F04191
:1015C0001F46044603260168072A01F4006004DB75
:1015D00008B116A505E016A503E008B115A500E0C1
:1015E00015A521F010002060A069C01EA0610FB1F8
:1015F000401EA0612046FEF7F4FF4FB1D4E901215F
:1016000038469047206A401C2062C01C206206E0D9
:10161000206AFAE7D4E9012115F8010B9047761EFC
:10162000F8D22046FEF7F3FFBDE8F0814E414E00B0
:101630006E616E00494E4600696E66002DE9F04706
:10164000814616468AB0354878440DC88DE80D00AD
:1016500032487844801C03AC0DC884E80D0041F684
:101660009B300844372190FBF1F290FBF1F5A5F196
:10167000800501FB12041B3C02D56442012000E0FE
:101680000020DFF898A080460027FA44AAF1BE0A9D
:101690000EE0E0070AD03246684607EB4701012317
:1016A0000AEB810104F0BBFD8DE8070064107F1C8C
:1016B000002CEED1194F7F44AE3F19E0E80715D05A
:1016C00007EB04100DF1180A90E80E008AE80E00EE
:1016D000C068F04201D1981908903246012306A94A
:1016E00003A804F09CFD03AB83E807006D10641CA5
:1016F000002DE3D14FF0010332466946B8F1000FE7
:1017000003A802D004F076FD01E004F088FDC9E9E9
:101710000001C9F808200AB0BDE8F087C84F0000F2
:1017200010B50446AFF300802046BDE81040FEF738
:1017300090BD000000487047840000204FF0013C3D
:1017400050F8042B51F8043B9A4221D1A2EB0C0330
:10175000934313EACC1317D150F8042B51F8043BF0
:101760009A4215D1A2EB0C03934313EACC130BD18D
:1017700050F8042B51F8043B9A4209D1A2EB0C0318
:10178000934313EACC13DBD04FF00000704700BF47
:10179000D01A01BAB1FA81F101F0180122FA01F070
:1017A000CB40DBB2C0B2C01AC1F120012CFA01F368
:1017B000D11A914311EAC311E6D1704701491820AB
:1017C000ABBEFEE72600020070470000FFE7FEE721
:1017D00080B540F26850C2F2000000F097F980BD79
:1017E00080B540F2AC50C2F2000000F08FF980BD2D
:1017F0007047000080B54FF4804000F04BFB80BD87
:1018000080B588B046F22C61C0F600010DF10700EA
:1018100000901922FEF779FD0098FEF757FD009918
:1018200082B240F2A060C2F200004FF0FF3302F03B
:10183000F9FC08B080BD000080B588B046F2456173
:10184000C0F600010DF1070000901922FEF75DFDC2
:101850000098FEF73BFD009982B240F2A060C2F210
:1018600000004FF0FF3302F0DDFC08B080BD000047
:1018700080B540F25860C2F200003C2102F01AF933
:1018800047F2305003F0F6FD80BD000080B582B015
:1018900000F0ACFC019040F25860C2F2000000F091
:1018A00061F80090019840F2E861C2F20001096815
:1018B000401A632801D8FFE735E0019840F2E8615B
:1018C000C2F200010860009847F2315188420FD3FC
:1018D000FFE740F2F060C2F20000006838B1FFE7B5
:1018E00040F2F060C2F2000000688047FFE715E0B8
:1018F000009847F22F5188420FD8FFE740F2EC6082
:10190000C2F20000006838B1FFE740F2EC60C2F2BA
:10191000000000688047FFE7FFE7FFE747F230502D
:1019200003F0A8FDFFE702B080BD000081B0009089
:10193000009840F2EC61C2F20001086001B070470B
:1019400081B00090009840F2F061C2F2000108609E
:1019500001B0704781B0EFF3108072B60090FFE7DE
:10196000FEE7000081B0009000980068406A01B076
:101970007047000083B0019000208DF803000198AB
:1019800090F8210002280DD0FFE701990420886318
:10199000FFE70199002081F82000FFE701208DF882
:1019A0000B0021E001980168086820F00E00086033
:1019B00001980168086820F0010008600198C16B77
:1019C000026C012090404860FFE70199012081F8F6
:1019D0002100FFE70199002081F82000FFE79DF832
:1019E00003008DF80B00FFE79DF80B0003B0704774
:1019F00080B588B0079000208DF81B00079890F8FC
:101A00002100022807D0FFE70799042088630120FE
:101A10008DF81B0076E007980168086820F00E003A
:101A2000086007980168086820F0010008600798BE
:101A300000680821C4F20201884203D1FFE70120B7
:101A4000059047E0079800681C21C4F20201884213
:101A500003D1FFE71020049039E007980068302197
:101A6000C4F20201884204D1FFE74FF48070039072
:101A70002AE0079800684421C4F20201884204D198
:101A8000FFE74FF4805002901BE007980068582150
:101A9000C4F20201884204D1FFE74FF48030019084
:101AA0000CE0079801686C22C4F202024FF08070CB
:101AB000914208BF4FF480100190FFE70198029017
:101AC000FFE702980390FFE703980490FFE704986C
:101AD0000590FFE705980421C4F202010860079908
:101AE000012081F82100FFE70799002081F82000FC
:101AF000FFE70798406B20B1FFE70798416B8847E5
:101B0000FFE7FFE79DF81B0008B080BD80B58EB0F1
:101B10000D900D98C06B00680C900D9800680068DF
:101B20000B900C980D99096CC8404007002875D59A
:101B3000FFE79DF82C00400700286FD5FFE70D98C0
:101B4000006800688006002807D4FFE70D98016848
:101B5000086820F004000860FFE70D98006808217D
:101B6000C4F20201884203D1FFE704200A9047E053
:101B70000D9800681C21C4F20201884203D1FFE7DE
:101B80004020099039E00D9800683021C4F202012C
:101B9000884204D1FFE74FF4806008902AE00D9856
:101BA00000684421C4F20201884204D1FFE74FF4E7
:101BB000804007901BE00D9800685821C4F2020194
:101BC000884204D1FFE74FF4802006900CE00D9886
:101BD00001686C22C4F202024FF08060914208BF9B
:101BE0004FF480000690FFE706980790FFE70798FC
:101BF0000890FFE708980990FFE709980A90FFE727
:101C00000A980421C4F2020108600D98C06A20B14C
:101C1000FFE70D98C16A8847FFE7B8E00C980D9977
:101C2000096CC8408007002840F18080FFE79DF8DC
:101C30002C008007002879D5FFE70D980068006820
:101C4000800600280BD4FFE70D980168086820F093
:101C50000A0008600D99012081F82100FFE70D9826
:101C600000680821C4F20201884203D1FFE7022084
:101C7000059047E00D9800681C21C4F202018842DB
:101C800003D1FFE72020049039E00D98006830214F
:101C9000C4F20201884204D1FFE74FF400700390C0
:101CA0002AE00D9800684421C4F20201884204D160
:101CB000FFE74FF4005002901BE00D980068582198
:101CC000C4F20201884204D1FFE74FF400300190D2
:101CD0000CE00D9801686C22C4F202024FF0007013
:101CE000914208BF4FF400100190FFE70198029065
:101CF000FFE702980390FFE703980490FFE704983A
:101D00000590FFE705980421C4F202010860FFE78F
:101D10000D99002081F82000FFE70D98806A20B11E
:101D2000FFE70D98816A8847FFE72FE00C980D992F
:101D3000096CC8400007002827D5FFE79DF82C0054
:101D40000007002821D5FFE70D980168086820F0FA
:101D50000E0008600D98C26B016C012000FA01F1C1
:101D600051600D9988630D9981F82100FFE70D9965
:101D7000002081F82000FFE70D98006B20B1FFE7FD
:101D80000D98016B8847FFE7FFE7FFE7FFE70EB01D
:101D900080BD000083B0019000200090019820B920
:101DA000FFE701208DF80B0047E0019908684FF626
:101DB000F872CBF6FD7210444CF6CD42CCF6CC4214
:101DC000A0FB02026FF0030000EA92000864019990
:101DD0000020C4F20200C8630199022081F82100AA
:101DE0000198006800680090009843F6F0718843FD
:101DF000009001994868D1F808C0CB680A6940EAA8
:101E00000C00184310434A6910438A691043C9699A
:101E10000143009808430090009801990968086000
:101E2000019900208863019A012182F8211001990B
:101E300081F820008DF80B00FFE79DF80B0003B040
:101E40007047000080B584B0039000F0CFF9029095
:101E5000039801900198013048B1FFE740F2040077
:101E6000C2F200000178019808440190FFE7FFE703
:101E700000F0BCF90299401A0199884201D2FFE7AB
:101E8000F6E704B080BD000081B0ADF8020001B0FB
:101E90007047000080B582B0ADF8060040F21440F3
:101EA000C4F201000068BDF8061008420CD0FFE73C
:101EB000BDF8060040F21441C4F201010860BDF80B
:101EC0000600FFF7E1FFFFE702B080BD90B00F9082
:101ED0000E9100200D900990FFE70E9800680D9973
:101EE000C840002800F07F81FFE70D99012088405D
:101EF0000C900E9800680C9908400B900B980C9968
:101F0000884240F06C81FFE70E98406805900028F9
:101F100051D0FFE7059801283AD0FFE7059802283D
:101F20003FD0FFE7059803285FD0FFE70598112809
:101F300032D0FFE70598122838D0FFE70598002136
:101F4000C1F21101884236D0FFE705980021C1F2A5
:101F5000120188422FD0FFE705980021C1F221012C
:101F6000884228D0FFE705980021C1F2220188426B
:101F700021D0FFE705980021C1F2310188421AD033
:101F8000FFE705980021C1F23201884213D02FE00B
:101F90000E98C06809902CE00E98C0680430099033
:101FA00027E00E98C0680830099022E00E98C068BB
:101FB0000C3009901DE00E98806818B9FFE70420E6
:101FC000099011E00E988068012806D1FFE70820EB
:101FD00009900C980F99086105E0082009900C9869
:101FE0000F994861FFE7FFE703E00020099000E058
:101FF000FFE70B98FF2803D8FFE70F98049003E052
:102000000F9804300490FFE7049808900B98FF287D
:1020100004D8FFE70D988000039006E00D996FF05B
:102020001F0000EB81000390FFE7039807900898DA
:102030000068079A0F21914088430999914008430D
:10204000089908600E98C079C006002840F1C68043
:10205000FFE7FFE741F21800C4F20200016841F017
:1020600001010160006800F0010006900698FFE79A
:102070000D9820F003000821C4F2010140580A9095
:102080000D9800F0030081000F2000FA01F10A987A
:1020900088430A900F9840F60001C4F2010188427B
:1020A00003D1FFE70020029026E00F9840F60041A0
:1020B000C4F20101884203D1FFE70120019018E03A
:1020C0000F9841F20001C4F20101884203D1FFE7F9
:1020D000022000900AE00F9941F20042C4F201028E
:1020E0000420914208BF03200090FFE70098019070
:1020F000FFE701980290FFE702980D9901F00301B4
:10210000890000FA01F10A9808430A900A980D998B
:1021100021F003010822C4F2010288500E98807950
:10212000C006002809D5FFE70B9A40F20841C4F227
:10213000010108681043086008E00B9A40F208416A
:10214000C4F20101086890430860FFE70E988079A7
:102150008006002809D5FFE70B9A40F20C41C4F233
:10216000010108681043086008E00B9A40F20C4136
:10217000C4F20101086890430860FFE70E98807977
:102180008007002809D5FFE70B9A40F20441C4F20A
:10219000010108681043086008E00B9A40F204410E
:1021A000C4F20101086890430860FFE70E98807947
:1021B000C00748B1FFE70B9A40F20041C4F20101A9
:1021C00008681043086008E00B9A40F20041C4F22E
:1021D0000101086890430860FFE7FFE7FFE70D98FB
:1021E00001300D9079E610B07047000040F2F460C5
:1021F000C2F200000068704780B58EB00C900C9859
:1022000020B9FFE701208DF8370043E10C9890F8E2
:102210003D0040B9FFE70C99002081F83C000C9884
:1022200000F042FAFFE70C99242081F83D000C9859
:102230000168086820F0010008600C9801680868CF
:1022400040F4004008600C980168086820F40040E1
:10225000086000F009FE0A900C98406848F2A061FE
:10226000C0F2010188420BD8FFE70A9948F2804288
:10227000C0F21E020020914238BF012009900AE0FE
:102280000A9940F60012C0F23D020020914238BF88
:1022900001200990FFE70998012804D1FFE70120F8
:1022A0008DF83700F6E00A984DF68361C4F21B31D1
:1022B000A0FB0110800C0B900C980068406820F087
:1022C0003F000B9908430C99096848600C98006816
:1022D000006A20F03F0008900C98406848F2A06126
:1022E000C0F20101884204D8FFE70B980130079043
:1022F0000EE00B984FF49671484344F6D351C1F267
:102300006201A0FB0101012000EB91100790FFE7A3
:102310000898079908430C99096808620C980068A6
:10232000C0694CF6FF71884306900C98406848F2EB
:10233000A061C0F2010188421FD8FFE70A98013866
:102340000C9949684900B0FBF1F001306FF31F3080
:10235000032803D8FFE7042005900BE00A98013812
:102360000C9949684900B0FBF1F001306FF31F3060
:102370000590FFE7059804904CE00C98806868B9D8
:10238000FFE70A9801380C99496801EB4101B0FB5D
:10239000F1F001306FF31F3003900DE00A9801381F
:1023A0000C99496819225143B0FBF1F00130042126
:1023B00061F31F300390FFE70398000518B9FFE7AA
:1023C0000120029023E00C98806868B9FFE70A9822
:1023D00001380C99496801EB4101B0FBF1F0013083
:1023E0006FF31F3001900DE00A9801380C9949688D
:1023F00019225143B0FBF1F00130042161F31F3089
:102400000190FFE7019840F400400290FFE7029836
:102410000490FFE70698049908430C990968C8617D
:102420000C980068006820F0C0000C9B1968DA69FD
:102430001B6A1A43104308600C980068806848F2D1
:10244000FF3188430C9A1168D36812691A4310430C
:1024500088600C980068C06820F0FF000C9B196829
:102460005A699B691A431043C8600C980168086850
:1024700040F0010008600C99002008640C9A2021AB
:1024800082F83D100C9908630C9981F83E008DF894
:102490003700FFE79DF837000EB080BD80B588B0EB
:1024A000DDF828C00690ADF816100492ADF80E3095
:1024B000FFF79CFE0290069890F83D00202840F01F
:1024C000EB80FFE7069802996A4611600221C0F28C
:1024D00010010122192302F055F820B1FFE7022074
:1024E0008DF81F00DCE0FFE7069890F83C0001281B
:1024F00004D1FFE702208DF81F00D1E006990120EA
:1025000081F83C00FFE7FFE706980068006800F0EC
:102510000100012807D0FFE706980168086840F02D
:1025200001000860FFE706980168086820F4006071
:1025300008600699212081F83D000699102081F855
:102540003E00069900200864049806994862BDF888
:102550000E00069948850698408D069908850699CB
:102560000020CFF6FF70C8620698BDF816100A9AD0
:10257000029B01F027FF20B1FFE701208DF81F002B
:102580008EE0FFE700200190069800684069019006
:1025900006980068806901900198FFE7FFE70698B8
:1025A000008D002860D0FFE706980A99029A02F091
:1025B00017F980B1FFE70698006C042807D1FFE700
:1025C00006980168086840F400700860FFE7012081
:1025D0008DF81F0064E006980168406A0078086181
:1025E0000699486A013048620699488D0138488545
:1025F0000699088D0138088506980068406900F042
:1026000004010120B0EB910F16D1FFE70698008D71
:1026100090B1FFE706980168406A00780861069962
:10262000486A013048620699488D01384885069904
:10263000088D01380885FFE706980A99029A01F08B
:102640004BFF80B1FFE70698006C042807D1FFE735
:1026500006980168086840F400700860FFE70120F0
:102660008DF81F001CE09AE706980168086840F49E
:10267000007008600699202081F83D00069900202E
:1026800081F83E00FFE70699002081F83C00FFE753
:1026900000208DF81F0003E002208DF81F00FFE7E7
:1026A0009DF81F0008B080BD80B588B0079000205D
:1026B00006900590049003900798006845F2004149
:1026C000C4F2000188422CD1FFE7FFE741F2180075
:1026D000C4F20200016841F008010160006800F0E6
:1026E000080002900298FFE7C02003901220049097
:1026F0000320069040F60040C4F2010003A9FFF752
:10270000E5FBFFE741F21C00C4F20200016841F45E
:1027100000110160006800F4001001900198FFE7CB
:10272000FFE708B080BD000040F20400C2F20000E4
:10273000027840F2F461C2F20001086810440860B7
:102740007047000080B542F20001C4F2020108683F
:1027500040F010000860032000F096F80F2000F011
:1027600005F800F03BF8002080BD000080B582B085
:10277000009040F20000C2F20000006840F2040144
:10278000C2F200010A784FF47A71B1FBF2F1B0FBAA
:10279000F1F001F045F820B1FFE701208DF80700C6
:1027A00018E000980F280DD8FFE700994FF0FF3090
:1027B000002200F04FF8009840F20801C2F2000138
:1027C000086003E001208DF8070003E000208DF889
:1027D0000700FFE79DF8070002B080BD83B0FFE768
:1027E00041F21800C4F20200016841F001010160E9
:1027F000006800F0010002900298FFE7FFE741F255
:102800001C00C4F20200016841F0805101600068C0
:1028100000F0805001900198FFE7FFE70421C4F227
:10282000010108680090009820F0E0600090009896
:1028300040F00070009000980860FFE703B0704718
:1028400080B582B08DF807009DF9070003F0DCF930
:1028500002B080BD80B586B08DF817000491039258
:102860000020029003F0E8F902909DF91700019012
:1028700002980499039A02F0B5F90146019803F011
:10288000E3F906B080BD000080B582B001900198E8
:1028900003F0FCF902B080BD2021C4F20E2101201A
:1028A0000860704780B588B00790002006900590BA
:1028B00004900390029007980190012866D0FFE7EA
:1028C0000198022800F0A580FFE70198102840F049
:1028D000B080FFE741F20400C4F2020000680390F8
:1028E00041F20000C4F202000068C00100284CD58B
:1028F000FFE70398C0F3834146F27660C0F600001C
:10290000405C04909DF80E00C007F0B1FFE741F273
:102910000400C4F202000068C0F3404146F2866041
:10292000C0F60000405C06909DF80E00C00758B14C
:10293000FFE7069941F20020C0F27A00B0FBF1F007
:10294000049948430590FFE707E0049840F600111A
:10295000C0F23D0148430590FFE741F20400C4F294
:10296000020000684002002803D5FFE705980290A6
:102970000AE0059840004AF6AB21CAF6AA21A0FB5E
:10298000011040080290FFE7FFE753E041F220000A
:10299000C4F2020000680390039800F44070B0F5A0
:1029A000807F0AD1FFE79DF80C008007002804D53E
:1029B000FFE74FF4004002902AE0039800F44070D3
:1029C000B0F5007F0DD1FFE741F22400C4F2020010
:1029D00000688007002804D5FFE749F640400290D0
:1029E00015E0039800F44070B0F5407F0DD1FFE78B
:1029F00041F20000C4F2020000688003002804D500
:102A0000FFE74FF22440029000E0FFE7FFE7FFE717
:102A100010E000F03BFA41F20401C4F2020109683F
:102A200001F44042022101EB5231B0FBF1F002907F
:102A300000E0FFE7029808B080BD000080B586B0D6
:102A4000049000200390029004980078C0070028AA
:102A500000F0AC80FFE700208DF8070041F21C0079
:102A6000C4F202000068C000002813D4FFE7FFE7AB
:102A700041F21C00C4F20200016841F08051016083
:102A8000006800F0805000900098FFE701208DF86A
:102A90000700FFE747F20000C4F200000068C0052D
:102AA000002822D4FFE747F20001C4F200010868C1
:102AB00040F480700860FFF799FB0390FFE747F24E
:102AC0000000C4F200000068C00500280CD4FFE735
:102AD000FFF78CFB0399401A652804D3FFE7032016
:102AE0008DF817008AE0EAE7FFE741F22000C4F220
:102AF0000200006800F4407002900298E0B3FFE723
:102B000002980499496801F44071884234D0FFE783
:102B100041F22001C4F20201086820F440700290E2
:102B200040F24042C4F242220120106000201060B6
:102B3000029808609DF80800C007E0B1FFE7FFF7C2
:102B400055FB0390FFE741F22000C4F20200006849
:102B5000800700280ED4FFE7FFF748FB0399401ACF
:102B600041F28931884204D3FFE703208DF8170032
:102B700044E0E8E7FFE7FFE741F22001C4F2020189
:102B8000086820F44070049A5268104308609DF869
:102B90000700012809D1FFE741F21C01C4F202013C
:102BA000086820F080500860FFE7FFE7049800788D
:102BB000800700280CD5FFE741F20401C4F20201AE
:102BC000086820F44040049A926810430860FFE7C8
:102BD00004980078C00600280CD5FFE741F20401F4
:102BE000C4F20201086820F48000049AD2681043FD
:102BF0000860FFE700208DF81700FFE79DF8170039
:102C000006B080BD80B584B002900191029820B9D1
:102C1000FFE701208DF80F001BE1019842F200014F
:102C2000C4F20201096801F00701884216D9FFE7E2
:102C300042F20000C4F20200016821F00701019A8B
:102C400011430160006800F007000199884204D038
:102C5000FFE701208DF80F00FBE0FFE70298007806
:102C6000800700282AD5FFE702980078400700284F
:102C700009D5FFE741F20401C4F20201086840F4FB
:102C8000E0600860FFE7029800780007002809D597
:102C9000FFE741F20401C4F20201086840F4605009
:102CA0000860FFE741F20401C4F20201086820F065
:102CB000F000029A926810430860FFE702980078DB
:102CC000C007002860D0FFE70298406801280ED1B5
:102CD000FFE741F20000C4F2020000688003002810
:102CE00004D4FFE701208DF80F00B2E021E0029844
:102CF000406802280ED1FFE741F20000C4F2020052
:102D000000688001002804D4FFE701208DF80F003F
:102D10009FE00DE041F20000C4F20200006880076D
:102D2000002804D4FFE701208DF80F0091E0FFE7B1
:102D3000FFE741F20401C4F20201086820F0030039
:102D4000029A526810430860FFF750FA0090FFE7BC
:102D500041F20400C4F20200006800F00C00029985
:102D60004968B0EB810F0ED0FFE7FFF73FFA0099FB
:102D7000401A41F28931884204D3FFE703208DF8DD
:102D80000F0066E0E4E7FFE7019842F20001C4F2B9
:102D90000201096801F00701884216D2FFE742F2FA
:102DA0000000C4F20200016821F00701019A1143FA
:102DB0000160006800F007000199884204D0FFE735
:102DC00001208DF80F0044E0FFE7029800784007EB
:102DD00000280CD5FFE741F20401C4F202010868A3
:102DE00020F4E060029AD26810430860FFE702987E
:102DF0000078000700280DD5FFE741F20401C4F276
:102E00000201086820F46050029A126940EAC20088
:102E10000860FFE700F04CF841F20401C4F202013F
:102E20000968C9B20A0946F25E61C0F60001895C10
:102E3000C84040F20001C2F20001086040F2080000
:102E4000C2F200000068FFF791FC00208DF80F002F
:102E5000FFE79DF80F0004B080BD000040F20000C5
:102E6000C2F200000068704780B5FFF7F7FF41F23B
:102E70000401C4F202010968C1F3022246F26E6144
:102E8000C0F60001895CC84080BD000080B5FFF736
:102E9000E5FF41F20401C4F202010968C1F3C22254
:102EA00046F26E61C0F60001895CC84080BD00003A
:102EB00086B000200590049003900290019041F2AA
:102EC0000400C4F2020000680590059800F00C00B0
:102ED0000146009100283FD0FFE70098042804D065
:102EE000FFE70098082806D037E041F20020C0F242
:102EF0007A00019037E00598C0F3834146F288607C
:102F0000C0F60000405C02909DF81600C007C0B1FA
:102F1000FFE741F20400C4F202000068C0F3404140
:102F200046F29860C0F60000405C0490029841F2BE
:102F30000021C0F27A0148430499B0FBF1F00390FC
:102F400007E0029840F60011C0F23D0148430390AB
:102F5000FFE70398019006E0FFE741F20020C0F28E
:102F60007A000190FFE7019806B0704780B586B0FF
:102F70000490049820B9FFE701208DF817002EE394
:102F800004980078C007002800F0AE80FFE741F207
:102F90000400C4F20200006800F00C00042813D002
:102FA000FFE741F20400C4F20200006800F00C00E8
:102FB00008281BD1FFE741F20400C4F202000068B8
:102FC000C003002812D5FFE741F20000C4F202005E
:102FD00000688003002808D5FFE70498406820B9FE
:102FE000FFE701208DF81700F9E27CE0FFE7049885
:102FF0004068B0F5803F09D1FFE741F20001C4F21B
:103000000201086840F48030086032E004984068AB
:1030100068B9FFE741F20001C4F20201086820F438
:1030200080300860086820F48020086020E0049860
:103030004068B0F5A02F0DD1FFE741F20001C4F2C6
:103040000201086840F480200860086840F480307D
:1030500008600CE041F20001C4F20201086820F4AB
:1030600080300860086820F480200860FFE7FFE7F0
:10307000FFE7FFE704984068D0B1FFE7FFF7B6F835
:103080000390FFE741F20000C4F2020000688003F1
:1030900000280CD4FFE7FFF7A9F80399401A652828
:1030A00004D3FFE703208DF8170098E2EAE719E060
:1030B000FFF79CF80390FFE741F20000C4F2020022
:1030C0000068800300280CD5FFE7FFF78FF803990D
:1030D000401A652804D3FFE703208DF817007EE22D
:1030E000EAE7FFE7FFE7FFE704980078800700289A
:1030F00040F18D80FFE741F20400C4F20200006855
:1031000010F00C0F13D0FFE741F20400C4F20200EC
:10311000006800F00C00082829D1FFE741F2040004
:10312000C4F202000068C003002820D4FFE741F287
:103130000000C4F2020000688007002809D5FFE7FC
:1031400004980069012804D0FFE701208DF81700DA
:1031500045E241F20001C4F20201086820F0F800E3
:10316000049A526940EAC2000860FFE74EE0049802
:10317000006958B3FFE70021C4F242210120086032
:10318000FFF734F80390FFE741F20000C4F20200B9
:103190000068800700280CD4FFE7FFF727F80399A1
:1031A000401A032804D3FFE703208DF8170016E226
:1031B000EAE741F20001C4F20201086820F0F800D9
:1031C000049A526940EAC20008601EE00021C4F27D
:1031D000422100200860FFF709F80390FFE741F261
:1031E0000000C4F202000068800700280CD5FFE749
:1031F000FEF7FCFF0399401A032804D3FFE70320DE
:103200008DF81700EBE1EAE7FFE7FFE7FFE7049837
:1032100000780007002848D5FFE70498806918B3B4
:10322000FFE740F28041C4F2422101200860FEF72E
:10323000DDFF0390FFE741F22400C4F202000068C2
:10324000800700280CD4FFE7FEF7D0FF0399401A4F
:10325000032804D3FFE703208DF81700BFE1EAE756
:10326000012001F0D9FF1FE040F28041C4F2422169
:1032700000200860FEF7BAFF0390FFE741F2240048
:10328000C4F202000068800700280CD5FFE7FEF7B3
:10329000ADFF0399401A032804D3FFE703208DF8FC
:1032A00017009CE1EAE7FFE7FFE704980078400792
:1032B000002840F1D880FFE700208DF8070041F298
:1032C0001C00C4F202000068C000002813D4FFE70D
:1032D000FFE741F21C00C4F20200016841F0805196
:1032E0000160006800F0805000900098FFE7012026
:1032F0008DF80700FFE747F20000C4F20000006805
:10330000C005002822D4FFE747F20001C4F2000103
:10331000086840F480700860FEF768FF0390FFE7DC
:1033200047F20000C4F200000068C00500280CD479
:10333000FFE7FEF75BFF0399401A652804D3FFE718
:1033400003208DF817004AE1EAE7FFE7FFE704985A
:10335000C068012809D1FFE741F22001C4F202014F
:10336000086840F00100086031E00498C06868B95E
:10337000FFE741F22001C4F20201086820F00100D9
:103380000860086820F0040008601FE00498C06826
:1033900005280DD1FFE741F22001C4F202010868BF
:1033A00040F004000860086840F0010008600CE08C
:1033B00041F22001C4F20201086820F00100086017
:1033C000086820F004000860FFE7FFE7FFE7FFE779
:1033D0000498C068E0B1FFE7FEF708FF0390FFE73D
:1033E00041F22000C4F202000068800700280ED4D9
:1033F000FFE7FEF7FBFE0399401A41F2893188424C
:1034000004D3FFE703208DF81700E8E0E8E71BE0AE
:10341000FEF7ECFE0390FFE741F22000C4F2020049
:103420000068800700280ED5FFE7FEF7DFFE03994E
:10343000401A41F28931884204D3FFE703208DF816
:103440001700CCE0E8E7FFE79DF80700012809D165
:10345000FFE741F21C01C4F20201086820F080502D
:103460000860FFE7FFE70498C069002800F0B38018
:10347000FFE741F20400C4F20200006800F00C0013
:10348000082800F08280FFE70498C06902285CD118
:10349000FFE76021C4F2422100200860FEF7A6FE8B
:1034A0000390FFE741F20000C4F2020000688001CF
:1034B00000280CD5FFE7FEF799FE0399401A032870
:1034C00004D3FFE703208DF8170088E0EAE70498AB
:1034D000006AB0F5803F0CD1FFE741F20401C4F26D
:1034E0000201086820F40030049A926810430860D2
:1034F000FFE741F20401C4F20201086820F47410ED
:10350000049B1A6A5B6A1A43104308606021C4F284
:10351000422101200860FEF769FE0390FFE741F2B7
:103520000000C4F202000068800100280CD4FFE70C
:10353000FEF75CFE0399401A032804D3FFE703203B
:103540008DF817004BE0EAE71EE06021C4F242214B
:1035500000200860FEF74AFE0390FFE741F20000FA
:10356000C4F202000068800100280CD5FFE7FEF7D6
:103570003DFE0399401A032804D3FFE703208DF88A
:1035800017002CE0EAE7FFE724E00498C06901286F
:1035900004D1FFE701208DF8170020E041F204007C
:1035A000C4F2020000680290029800F4803004998E
:1035B000096A884208D1FFE7029800F47010049964
:1035C000496A884204D0FFE701208DF8170006E021
:1035D000FFE7FFE7FFE700208DF81700FFE79DF802
:1035E000170006B080BD000084B003900291002057
:1035F0000190009046F60040C4F20000019002994C
:10360000019800EB810001900198006880B2009061
:10361000009804B07047000084B0039002910192BA
:103620000020009046F60040C4F20000009002998D
:10363000009800EB81000090BDF80400009908603C
:1036400004B0704780B584B00290002001900298C9
:1036500020B9FFE701208DF80F0084E00298407C3C
:1036600038B9FFE7029900200874029800F080F84A
:10367000FFE7029902204874029800F09FF838B1E1
:10368000FFE702990420487401208DF80F006AE0DA
:10369000029801F0DFFD38B1FFE702990420487479
:1036A00001208DF80F005EE002980168486820F064
:1036B000070048600298806848B1FFE746F630414D
:1036C000C4F20001086820F001000860FFE746F638
:1036D0002C41C4F20001086820F46070029A9268DC
:1036E0001043086002984068013020B1FFE702985B
:1036F0004068019012E00120FFF7D4F80190019892
:1037000038B9FFE702990420487401208DF80F00B2
:1037100029E0019801380190FFE7FFE7BDF80600B6
:1037200000F00F00029909688860BDF80400029952
:103730000968C860029801F0E5FD38B1FFE7029919
:103740000420487401208DF80F000CE0029900203D
:10375000C873029A01215173029A9173029A5174AB
:103760008DF80F00FFE79DF80F0004B080BD00004A
:1037700080B582B001900198006842F60001C4F261
:103780000001884218D1FFE7FFF786F8FFE741F212
:103790001C00C4F20200016841F000610160006891
:1037A00000F0006000900098FFE740F23C41C4F256
:1037B000422101200860FFE702B080BD80B584B0DF
:1037C000029000200190029820B9FFE701208DF8B7
:1037D0000F0021E002980168486820F00800486066
:1037E000FEF704FD0190FFE70298006840680007BB
:1037F00000280DD4FFE7FEF7F9FC0199401AB0F557
:103800007A7F04D9FFE703208DF80F0004E0EBE78F
:1038100000208DF80F00FFE79DF80F0004B080BD79
:1038200080B582B00190019801F090FE02B080BD99
:1038300085B003900291FFE7039890F83C000128BF
:1038400004D1FFE702208DF813005BE0039901200B
:1038500081F83C00FFE7FFE70399022081F83D0073
:1038600003980068406801900398006880680090A1
:10387000019820F0700001900298016801980843B7
:10388000019001980399096848600398006842F61E
:103890000041C4F20101884218D0FFE70398006894
:1038A000B0F1804F12D0FFE70398006840F200416A
:1038B000C4F20001884209D0FFE70398006840F68F
:1038C0000001C4F2000188420ED1FFE7009820F009
:1038D000800000900298416800980843009000988A
:1038E000039909688860FFE70399012081F83D008A
:1038F000FFE70399002081F83C00FFE700208DF8E6
:103900001300FFE79DF8130005B0704780B586B03F
:1039100004900391049820B9FFE701208DF8170067
:1039200084E0049890F83D0040B9FFE70499002036
:1039300081F83C00049800F07DF8FFE7049902202C
:1039400081F83D0004980168886844F207029043BA
:103950008860049951F8040B01F072FE0498006825
:10396000806802900498006880690190049800685B
:10397000006A009003980168029808430290019839
:1039800040F203318843019003998868896940EACD
:103990000121019808430190019840F60C418843A9
:1039A000019001984FF2F001884301900399C86893
:1039B000C96940EA01210198084301900399086907
:1039C000096A000140EA013101980843019000981A
:1039D00020F02200009003994868496940EA0111EB
:1039E000009808430090029804990968886001983B
:1039F0000499096888610098049909680862049923
:103A0000012081F84600049981F83E00049981F86C
:103A10003F00049981F84200049981F84300049919
:103A200081F83D0000208DF81700FFE79DF8170092
:103A300006B080BD80B588B0079000200690059044
:103A4000049003900798006842F60041C4F2010117
:103A500088422CD1FFE7FFE741F21800C4F20200D0
:103A6000016841F400610160006800F400600290A8
:103A70000298FFE7FFE741F21800C4F20200016874
:103A800041F004010160006800F004000190019819
:103A9000FFE74FF44070039000200490059040F63B
:103AA0000000C4F2010003A9FEF710FAFFE708B016
:103AB00080BD000080B586B004900391049890F812
:103AC0003E008DF80B00049890F83F008DF80A0036
:103AD000049890F842008DF80900049890F843008B
:103AE0008DF808000398B8B9FFE79DF80B0001288E
:103AF00005D1FFE79DF80900012804D0FFE7012068
:103B00008DF8170079E00499022081F83E000499AD
:103B100081F84200FFE742E00398042817D1FFE74D
:103B20009DF80A00012805D1FFE79DF8080001284B
:103B300004D0FFE701208DF817005EE00499022011
:103B400081F83F00049981F84300FFE726E09DF8E3
:103B50000B0001280FD1FFE79DF80A0001280AD1C8
:103B6000FFE79DF80900012805D1FFE79DF808004F
:103B7000012804D0FFE701208DF817003DE00499EB
:103B8000022081F83E00049981F83F00049981F8F1
:103B90004200049981F84300FFE7FFE7FFE703983D
:103BA000019020B1FFE70198042807D00DE00498A8
:103BB00000680021012201F0C7FD14E004980068AC
:103BC0000421012201F0C0FD0DE0049800680021ED
:103BD0000122009201F0B8FD009A049800680421C7
:103BE00001F0B2FDFFE704980168086840F00100A9
:103BF000086000208DF81700FFE79DF8170006B059
:103C000080BD000082B00190ADF8021002B0704794
:103C100081B0009001B0704780B592B011901198BA
:103C200000680068109011980068C0680F901198A3
:103C3000006840690E9000200D900C90109800F0E4
:103C40000F000D900D9888B9FFE79DF840008006A1
:103C500000280AD5FFE79DF83C008006002804D51F
:103C6000FFE7119801F0FAFDE9E1FFE70D98002860
:103C700000F0C280FFE79DF83800C00738B9FFE7C1
:103C8000BDF83C0010F4907F00F0B680FFE79DF88F
:103C90004000C00758B1FFE79DF83D00C00730B1B4
:103CA000FFE71199486C40F001004864FFE79DF878
:103CB0004000400700280BD5FFE79DF83800C007FB
:103CC00030B1FFE71199486C40F002004864FFE70B
:103CD0009DF84000800700280BD5FFE79DF83800CD
:103CE000C00730B1FFE71199486C40F00400486408
:103CF000FFE79DF840000007002811D5FFE79DF879
:103D00003C008006002805D4FFE79DF83800C00776
:103D100030B1FFE71199486C40F008004864FFE7B4
:103D20001198406C002866D0FFE79DF8400080069F
:103D300000280AD5FFE79DF83C008006002804D53E
:103D4000FFE7119801F08AFDFFE7119800684069CC
:103D5000C0F380100C901198406C0007002804D428
:103D6000FFE70C9800283ED0FFE7119801F018FDFE
:103D7000119800684069400600282FD5FFE7FFE74B
:103D8000FFE71198006850E8050F20F040000B9005
:103D9000FFE70B991198026842E805100028F0D15E
:103DA000FFE7FFE71198C06B98B1FFE71198C16B6F
:103DB00045F28170C0F6000048631198C06BFDF7B2
:103DC00017FE28B1FFE71198C06B416B8847FFE7EA
:103DD00003E01198FFF71CFFFFE703E01198FFF7DE
:103DE00017FFFFE706E01198FFF712FF1199002077
:103DF0004864FFE7FFE722E11198006B012840F0DB
:103E0000FE80FFE79DF84000C006002840F1F780E3
:103E1000FFE79DF83C00C006002840F1F080FFE776
:103E2000FFE700200A901198006800680A90119836
:103E3000006840680A900A98FFE711980068406996
:103E40004006002840F18180FFE71198C06B0068B0
:103E50004068ADF82600BDF82600002874D0FFE7C2
:103E6000BDF826001199898D88426DDAFFE7BDF80B
:103E700026001199C8851198C06B8069202858D0F8
:103E8000FFE7FFE7FFE71198006850E8030F20F411
:103E900080700890FFE708991198026842E80310C3
:103EA0000028F0D1FFE7FFE7FFE7FFE71198006880
:103EB00050E8050F20F001000790FFE707991198DF
:103EC000026842E805100028F0D1FFE7FFE7FFE7AE
:103ED000FFE71198006850E8050F20F040000690B9
:103EE000FFE706991198026842E805100028F0D112
:103EF000FFE7FFE71199202081F842001199002087
:103F00000863FFE7FFE71198006850E8030F20F00F
:103F100010000590FFE705991198026842E8031028
:103F20000028F0D1FFE7FFE71198C06BFDF722FDF5
:103F3000FFE71199022048631198818DC28D891A7B
:103F400089B2FFF75FFEFFE779E01199888DC98D8F
:103F5000401AADF812001198C08D00284ED0FFE72E
:103F6000BDF81200002849D0FFE7FFE7FFE71198EE
:103F7000006850E8030F20F490700390FFE7039966
:103F80001198026842E803100028F0D1FFE7FFE72C
:103F9000FFE7FFE71198006850E8050F20F00100E7
:103FA0000290FFE702991198026842E80510002884
:103FB000F0D1FFE7FFE71199202081F84200119925
:103FC00000200863FFE7FFE71198006850E8030F3F
:103FD00020F010000190FFE701991198026842E873
:103FE00003100028F0D1FFE7FFE711990220486392
:103FF0001198BDF81210FFF705FEFFE71FE09DF8CE
:104000004000000600280AD5FFE79DF83C000006A6
:10401000002804D5FFE7119801F034FD0FE09DF86A
:104020004000400600280AD5FFE79DF83C00400606
:10403000002804D5FFE7119801F0FCFBFFE712B060
:1040400080BD000080B582B00090009820B9FFE7E5
:1040500001208DF8070040E00098806908B1FFE773
:1040600000E0FFE7009890F8410040B9FFE70099B1
:10407000002081F84000009800F034F8FFE7009934
:10408000242081F8410000980168C86820F400509D
:10409000C860009801F098FC00980168086920F455
:1040A0009040086100980168486920F02A00486142
:1040B00000980168C86840F40050C860009900206A
:1040C0004864009A202182F84110009A82F8421038
:1040D000009948638DF80700FFE79DF8070002B0DC
:1040E00080BD000080B58EB00D9000200C900B902C
:1040F0000A9009900D98006844F20041C4F2000152
:10410000884240F08980FFE7FFE741F21C00C4F2DB
:104110000200016841F400310160006800F40030E1
:1041200008900898FFE7FFE741F21800C4F2020088
:10413000016841F004010160006800F0040007908C
:104140000798FFE70420099002200A9003200C90B2
:1041500040F60000C4F20100039009A90491FDF7A4
:10416000B5FE0398049908220992002205920A924A
:104170000B92FDF7ABFE059940F26850C2F20000C9
:1041800006906C22C4F202020260416081608022CB
:10419000C260016141618161C161FDF7FBFD18B140
:1041A000FFE7FDF7D7FBFFE7FFE70D9840F2685107
:1041B000C2F20001C1630D984862FFE740F2AC50C3
:1041C000C2F2000002908021C4F2020101601021BD
:1041D0004160002181608022C26001614161816192
:1041E000C161FDF7D7FD18B1FFE7FDF7B3FBFFE7AE
:1041F000FFE70D9840F2AC51C2F2000181630D98C7
:104200004862FFE72620019000221146FEF722FBBC
:104210000198FEF715FBFFE70EB080BD81B000905E
:1042200001B0704780B58AB008900791ADF81A20A8
:10423000059300200290089890F84100202840F053
:104240008180FFE7079820B1FFE7BDF81A0020B989
:10425000FFE701208DF8270078E0089900204864E6
:104260000899212081F84100FDF7C0FF0290BDF8B8
:104270001A0008998884BDF81A000899C88408981B
:104280008068B0F5805F09D1FFE70898006928B918
:10429000FFE7002004900798039004E0079804903B
:1042A00000200390FFE7FFE70898C08C78B3FFE792
:1042B0000898029B05996A4611608021002201F04E
:1042C0002BFC40B1FFE70899202081F84100032032
:1042D0008DF827003AE0049858B9FFE70398008862
:1042E0006FF35F20089909684860039802300390D3
:1042F00008E004980078089909684860049801303B
:104300000490FFE70899C88C0138C884CCE7089866
:10431000029B05996A4611604021002201F0FCFBD6
:1043200040B1FFE70899202081F8410003208DF873
:1043300027000BE00899202081F8410000208DF82B
:10434000270003E002208DF82700FFE79DF82700F3
:104350000AB080BD81B0009001B07047FFE7FEE772
:1043600082B0009000980068406900F480610120EC
:10437000B0EB912F1ED1FFE7009801686FF48060C9
:104380004861009900200863009A202182F83D10BE
:10439000009981F83E000099086C40F00400086420
:1043A000FFE70099002081F83C00FFE701208DF82D
:1043B000070003E000208DF80700FFE79DF80700E5
:1043C00002B0704780B588B00690ADF81610049220
:1043D00003930698C06A02900298082809D0FFE764
:1043E0000298012805D0FFE7029810F5803F07D119
:1043F000FFE706980168086840F4807008600DE0E7
:104400000698006B122807D1FFE706980168086834
:1044100040F48070086000E0FFE7FFE70698049B27
:1044200003996A4611604FF00111002200F0AAF8CA
:1044300080B1FFE7069800680068C005002805D530
:10444000FFE706994FF400700864FFE703208DF83A
:104450001F003CE006980069B0F5804F08D1FFE7E7
:10446000BDF8160000F0FE000699096808611CE01E
:10447000BDF8160000F44070C009F03006990968D4
:1044800008610698049A039B0821C0F2010100F01C
:10449000FDF820B1FFE701208DF81F0017E09DF81F
:1044A0001600069909680861FFE70698049A039BBD
:1044B0000221C0F2010100F0E9F820B1FFE701207C
:1044C0008DF81F0003E000208DF81F00FFE79DF826
:1044D0001F0008B080BD000080B584B0029001913B
:1044E0000092FFE702980068406900F00401002094
:1044F000B0EB910F3ED1FFE70298FFF731FF20B1FB
:10450000FFE701208DF80F0038E00198013080B3FB
:10451000FFE7FDF76BFE0099401A0199884203D826
:10452000FFE7019820BBFFE702980068406900F0B0
:1045300004010020B0EB910F19D1FFE70299002090
:104540000863029A202182F83D10029981F83E000A
:104550000299086C40F020000864FFE702990020EF
:1045600081F83C00FFE701208DF80F0006E0FFE72F
:10457000FFE7B7E700208DF80F00FFE79DF80F0079
:1045800004B080BD80B588B0DDF828C006900591E4
:104590008DF813200393FFE79DF8160001280CD136
:1045A000FFE7069800684069BDF814100840401AFB
:1045B000B0FA80F0400902900BE00698006880692C
:1045C000BDF814100840401AB0FA80F0400902907B
:1045D000FFE702989DF8131088424FD1FFE7039838
:1045E0000130002849D0FFE7FDF700FE0A99401A84
:1045F0000399884203D8FFE70398E8BBFFE79DF8DB
:10460000160001280CD1FFE7069800684069BDF844
:1046100014100840401AB0FA80F0400901900BE0F5
:10462000069800688069BDF814100840401AB0FA76
:1046300080F040090190FFE701989DF8131088422F
:1046400019D1FFE7069900200863069A202182F815
:104650003D10069981F83E000699086C40F0200054
:104660000864FFE70699002081F83C00FFE701207D
:104670008DF81F0006E0FFE7FFE78DE700208DF8CB
:104680001F00FFE79DF81F0008B080BD80B588B00F
:104690000690059104920393FFE79DF81600012808
:1046A0000CD1FFE7069800684069BDF81410084077
:1046B000401AB0FA80F0400902900BE006980068BA
:1046C0008069BDF814100840401AB0FA80F0400923
:1046D0000290FFE7029800287AD1FFE70698006869
:1046E000406900F480610120B0EB912F24D1FFE7F5
:1046F00006980168086840F4007008600698016830
:104700006FF480604861069900200863069A2021B2
:1047100082F83D10069981F83E000699086C40F039
:1047200004000864FFE70699002081F83C00FFE7D9
:1047300001208DF81F004FE004980130002846D07A
:10474000FFE7FDF753FD0399401A0499884203D807
:10475000FFE70498D0BBFFE79DF8160001280CD1B5
:10476000FFE7069800684069BDF814100840401A39
:10477000B0FA80F0400901900BE00698006880696B
:10478000BDF814100840401AB0FA80F040090190BA
:10479000FFE70198C8B9FFE7069900200863069A69
:1047A000202182F83D10069981F83E000699086C98
:1047B00040F020000864FFE70699002081F83C00E3
:1047C000FFE701208DF81F0006E0FFE7FFE764E741
:1047D00000208DF81F00FFE79DF81F0008B080BD86
:1047E00080B584B0029001910092FFE702980068C2
:1047F0004069C1B20020B0EBD11F3DD1FFE7029864
:10480000FFF7AEFD20B1FFE701208DF80F0037E084
:104810000198013078B3FFE7FDF7E8FC0099401AF2
:104820000199884203D8FFE7019818BBFFE7029877
:1048300000684069C1B20020B0EBD11F19D1FFE779
:10484000029900200863029A202182F83D10029903
:1048500081F83E000299086C40F020000864FFE7F0
:104860000299002081F83C00FFE701208DF80F003D
:1048700006E0FFE7FFE7B9E700208DF80F00FFE74C
:104880009DF80F0004B080BD80B582B040F2446056
:10489000C2F2000000F08EFD019001A8FBF7C4FDFC
:1048A00002B080BD80B58EB040F24460C2F200001C
:1048B0000121FEF799FE0D900D9842F233318842A6
:1048C00001D1FFE727E040F24460C2F20000FEF7AA
:1048D000B9FE18B1FFE7FDF73DF8FFE702A8009029
:1048E0002C21FBF779FD0098382102913B2103919F
:1048F000172104910121019105917D21079100F07B
:104900000DF8019940F24460C2F2000042F23332E5
:10491000FEF782FEFFE70EB080BD000080B582B0DA
:1049200001900198FBF7A5FD0090009940F24460CA
:10493000C2F2000000F074FD02B080BD80B584B00A
:10494000FFE741F21400C4F20200016841F00101E6
:104950000160006800F0010003900398FFE7102059
:104960000090002201921146FDF774FF0098FDF7B8
:1049700067FF019A112002901146FDF76BFF029824
:10498000FDF75EFF04B080BD80B58AB000200990BD
:10499000089007900690FFE741F21800C4F2020069
:1049A000016841F010010160006800F010000590FE
:1049B0000598FFE7FFE741F21800C4F20200016822
:1049C00041F020010160006800F02000049004988C
:1049D000FFE7FFE741F21800C4F20200016841F06E
:1049E00004010160006800F0040003900398FFE7F1
:1049F000FFE741F21800C4F20200016841F008012B
:104A00000160006800F0080002900298FFE74FF490
:104A1000804006900020C1F22100079001200890FC
:104A200040F60040C4F2010006A9FDF74FFA282025
:104A3000019000221146FDF70DFF0198FDF700FFE0
:104A40000AB080BD80B582B040F2F050C2F20000E2
:104A5000019045F20041C4F20001016041F680215D
:104A6000C0F20601416000218160C1604FF48042C4
:104A7000026141618161C1610162FDF7BDFB18B155
:104A8000FFE7FCF767FFFFE702B080BD80B540F2AB
:104A90004460C2F2000042F60001C4F2000101606D
:104AA0004FF0FF3141604FF480718160FEF7CAFD25
:104AB00018B1FFE7FCF74EFFFFE7FFF7F3FE80BDFD
:104AC00080B58EB005A800902421FBF785FC0099E5
:104AD000002301930493039340F25860C2F2000054
:104AE000029042F60042C4F2010202604FF0010C53
:104AF000C0F804C083604FF6FF72C2600361436177
:104B00008361CDF814C002220692CDF81CC0089330
:104B10000F2209920A93CDF82CC00C930D92FEF748
:104B2000F5FE18B1FFE7FCF715FFFFE70020039043
:104B3000049040F25860C2F2000003A9FEF778FE2C
:104B400018B1FFE7FCF706FFFFE70EB080BD0000DD
:104B500080B582B040F2A060C2F20000019044F241
:104B60000041C4F2000101604FF4E13141600021D5
:104B70008160C16001610C2242618161C161FFF706
:104B800061FA18B1FFE7FCF7E5FEFFE702B080BD70
:104B900080B582B0FCF77AFE00F0BAF8FFF774FE39
:104BA0000190019800F074FC00F0F8FA02B080BDAA
:104BB00080B51420FDF746F900F04AF8FCF758FEDE
:104BC00041F60100C0F60000FCF7B0FE41F63900E6
:104BD000C0F60000FCF7B4FE80BD0000FFE7FEE772
:104BE000FFE7FEE788B0079006910592079800F06E
:104BF000070004900498C0F10700052803D3FFE7DD
:104C00000420019004E00498C0F107000190FFE740
:104C10000198039004980430062803D8FFE7002089
:104C2000009003E0049803380090FFE7009802909A
:104C300006980399012202FA01F101390840029B0A
:104C4000984005999A40013A1140084308B07047CE
:104C500080B584B0AE2000F0D7F82020039000F09B
:104C6000D3F81020019000F0CFF8B02000F0CCF87D
:104C7000C82000F0C9F80020029000F0C5F80198A3
:104C800000F0C2F8402000F0BFF8812000F0BCF82E
:104C9000DF2000F0B9F8A12000F0B6F8A62000F05F
:104CA000B3F8A82000F0B0F83F2000F0ADF8A42041
:104CB00000F0AAF8D32000F0A7F8029800F0A4F8BA
:104CC000D52000F0A1F8F02000F09EF8D92000F0E7
:104CD0009BF8222000F098F8DA2000F095F81220D6
:104CE00000F092F8DB2000F08FF8039800F08CF8C9
:104CF0008D2000F089F8142000F086F800F008F804
:104D000000F04CFAAF2000F07FF804B080BD000046
:104D100080B540F2E400C2F200004FF48061FBF77E
:104D200039FB80BD10B586B0844608988DF817C051
:104D30008DF816108DF8152004938DF80F009DF84E
:104D400017009DF81610049B5C689DF81520203A0A
:104D500093F800C05B780CF1070E4FEADE0E0EFBF5
:104D600003FE02FB0E429DF80F40EE46CEF80440D3
:104D7000CEF800C000F014F906B010BD80B586B0C2
:104D8000844608988DF817C08DF816100492039386
:104D90008DF80B009DF817008DF80A00FFE70498C6
:104DA0000078C8B1FFE79DF80A009DF81610049A34
:104DB0001278039B9DF80BC0EE46CEF800C0FFF7BB
:104DC000B1FF039841789DF80A0008448DF80A0065
:104DD000049801300490E2E706B080BD80B584B04D
:104DE00003908DF80B10039A9DF80B3069464FF035
:104DF000FF30086040F2F050C2F200007821FDF769
:104E00004DFB04B080BD000080B582B08DF8070076
:104E10009DF8071040F2E440C2F200004170022108
:104E2000FFF7DCFF02B080BD80B584B08DF80F00C5
:104E30008DF80E108DF80D208DF80C309DF80E00B9
:104E4000C0088DF80B009DF80E0000F007008DF8EB
:104E50000A009DF80B009DF80F109DF80D209DF89D
:104E60000A309A409DF80CC0EE46CEF804C04FF0D0
:104E7000070CCEF800C0D2B200F024F99DF80A0069
:104E8000D8B1FFE79DF80B0001309DF80F109DF899
:104E90000D209DF80A30C3F1080C22FA0CF2013BF8
:104EA0009DF80CE0EC46CCF804E0DBB2CCF8003026
:104EB000C0B2002300F006F9FFE704B080BD000097
:104EC00010B584B0844606988DF80FC08DF80E108A
:104ED0008DF80D208DF80C308DF80B009DF80E002C
:104EE000C0088DF80A009DF80E0000F007008DF84C
:104EF00009009DF809009DF80C100844092832DBD0
:104F0000FFE79DF80A009DF80F109DF80D209DF811
:104F100009309A409DF80BC0EE46CEF804C04FF021
:104F2000070CCEF800C0D2B200F0CCF89DF80A0011
:104F300001309DF80F109DF80D209DF809C0CCF1AF
:104F40000803DA409DF80C306344093B9DF80BE000
:104F5000EC46CCF804E0DBB2CCF80030C0B2002361
:104F600000F0B0F81AE09DF80A009DF80F109DF8C7
:104F70000D209DF809309A409DF80CC09C44ACF17E
:104F8000010C9DF80B40EE46CEF804405FFA8CFC15
:104F9000CEF800C0D2B200F095F8FFE704B010BD23
:104FA00010B586B08C468646099808998DF817E0AA
:104FB0008DF816C004928DF80F308DF80E108DF814
:104FC0000D009DF80E00C0088DF80C009DF80E0035
:104FD00000F007008DF80B0000208DF80A00FFE7B5
:104FE0009DF80A009DF80F10884230DAFFE7002094
:104FF0008DF80900FFE79DF809009DF80C10884224
:105000001EDAFFE79DF817009DF80AE070449DF84E
:1050100016109DF8093001EBC301049A9DF80FC0EA
:1050200003FB0CE3D25C9DF80D30C0B2C9B2FFF7B0
:10503000FBFEFFE79DF8090001308DF80900DAE773
:10504000FFE79DF80A0001308DF80A00C8E79DF8D7
:105050000B00A8B3FFE79DF80F009DF80C10484324
:10506000ADF8060000208DF80500FFE79DF805006B
:105070009DF80F10884222DAFFE79DF817009DF88F
:1050800005C060449DF816109DF80C2001EBC2018C
:10509000049ABDF806306344D25C9DF80B309DF84D
:1050A0000DC0EE46CEF800C0C0B2C9B2FFF708FF8F
:1050B000FFE79DF8050001308DF80500D6E7FFE712
:1050C00006B010BD10B582B08C468646059804998E
:1050D0008DF807E08DF806C08DF805208DF80430B6
:1050E0008DF803108DF802009DF80700072805DCF5
:1050F000FFE79DF80600802801DBFFE74BE09DF805
:10510000020030B1FFE79DF80500C0438DF80500AF
:10511000FFE79DF805009DF803100131FF2303FA16
:1051200001F108439DF80410C1F1080123FA01F1CF
:10513000084340F2E641C2F2000108700C789DF885
:10514000072040F2E400C2F2000000EBC21C9DF810
:1051500006E01CF80E2022400CF80E209DF80520D9
:105160009DF803C00CF1010C03FA0CFC22EA0C02BE
:105170009DF804C0CCF1080C23FA0CF39A430A7092
:105180000B789DF8071000EBC1119DF80620885C94
:1051900018438854FFE702B010BD000080B582B00C
:1051A00040F2E741C2F200014020087000208DF873
:1051B0000700FFE79DF80700072828DCFFE79DF8B8
:1051C0000700B030C0B2FFF71FFE0020FFF71CFE43
:1051D0001020FFF719FE9DF8071040F2E400C2F21C
:1051E000000000EBC11140F2E740C2F20000009065
:1051F00001308022FBF789F800988121FFF7EEFD4E
:10520000FFE79DF8070001308DF80700D2E702B0F4
:1052100080BD00007047000082B00190019840F20C
:105220000001C2F200010968C90844F6D352C1F274
:105230006202A1FB0221890948430090FFE700BFF9
:10524000FFE70098411E00910028F8D1FFE702B067
:105250007047000080B584B0029000200190FCF7F8
:10526000C5FF0190FFE702980068406880060028AB
:105270000DD4FFE7FCF7BAFF0199401AB0F57A7F29
:1052800004D9FFE703208DF80F000AE0EBE702984E
:105290000168486840F01000486000208DF80F0059
:1052A000FFE79DF80F0004B080BD000080B584B01A
:1052B000029000200190FCF799FF0190FFE702980F
:1052C00000684068800600280DD4FFE7FCF78EFFD9
:1052D0000199401AB0F57A7F04D9FFE703208DF8D1
:1052E0000F000AE0EBE702980168486840F0100000
:1052F000486000208DF80F00FFE79DF80F0004B014
:1053000080BD000080B584B002900020019002981A
:105310000168486820F010004860FCF767FF0190C2
:10532000FFE7029800684068800600280DD4FFE778
:10533000FCF75CFF0199401AB0F57A7F04D9FFE7CA
:1053400003208DF80F0004E0EBE700208DF80F003C
:10535000FFE79DF80F0004B080BD000080B584B069
:1053600002900020019002980168486820F0100027
:105370004860FCF73BFF0190FFE702980068406837
:10538000800600280DD4FFE7FCF730FF0199401A92
:10539000B0F57A7F04D9FFE703208DF80F0004E011
:1053A000EBE700208DF80F00FFE79DF80F0004B039
:1053B00080BD000084B003900020ADF80A00ADF875
:1053C0000800ADF806000090039800688069ADF809
:1053D0000A0003980068C069ADF8060003980068E9
:1053E0008069ADF80800BDF80A00BDF808108842D1
:1053F0000AD0FFE7BDF8081003980068C06980B2C2
:1054000040EA0140009007E0BDF80A10BDF8060030
:1054100040EA01400090FFE7009804B070470000A8
:1054200080B584B00390029100208DF807000398A6
:10543000FFF73CFF20B1FFE701208DF8070013E0E4
:10544000BDF80A00039909688861BDF8080003994E
:105450000968C8610398FFF781FF20B1FFE70120C9
:105460008DF80700FFE7FFE79DF8070004B080BD57
:105470007047000081B0ADF80200BDF8020040F2B4
:105480005861C2F200010968486201B0704700002B
:1054900080B594B01390139AD0681169526902F2E2
:1054A0006C724B1C6946086047F6F811C0F60001A3
:1054B0000DF11A000190FAF7F3FE019A68460021F7
:1054C0000291016046F29C63C0F60003039318202A
:1054D000FFF754FC0198139A116853689268EC46E0
:1054E000CCF8001047F60721C0F60001FAF7D8FE05
:1054F000019A02986946086046F2A463C0F6000368
:1055000010201421FFF73AFC1398806900EB80010A
:1055100040F20C00C2F2000000EB4100059005983B
:10552000FAF7D4FE0299039B02468020A0EBC2004A
:1055300040088DF813009DF81300059AEC46CCF84E
:1055400000103021FFF71AFC14B080BD80B582B086
:10555000009000980138B0F1807F03D3FFE701206D
:10556000019019E0009801384EF21401CEF20001CA
:1055700008604FF0FF300F2100F066FB4EF218017B
:10558000CEF20001002008604EF21002CEF20002BE
:10559000072111600190FFE7019802B080BD000073
:1055A00080B5FDF7C1F880BD80B596B00CA801901C
:1055B0002821FAF711FF0198002202920B920A9219
:1055C0000992089207920692059204920392092189
:1055D0000C914FF480310D910E9201221092129293
:1055E0000222139214914FF4E0111591FDF7BEFCC5
:1055F00018B1FFE7FCF7AEF9FFE70F200790022193
:105600000891002009904FF480620A920B9007A83D
:10561000FDF7F8FA18B1FFE7FCF79CF9FFE7012066
:1056200003904FF40070049003A8FDF707FA18B137
:10563000FFE7FCF78FF9FFE716B080BD7047000069
:1056400083B002900191029800680090029842F69F
:105650000041C4F20101884215D0FFE70298B0F181
:10566000804F10D0FFE7029840F20041C4F20001E1
:10567000884208D0FFE7029840F60001C4F200011A
:1056800088420AD1FFE7009820F07000009001984E
:105690004168009808430090FFE7029842F60041F5
:1056A000C4F20101884215D0FFE70298B0F1804FA3
:1056B00010D0FFE7029840F20041C4F20001884296
:1056C00008D0FFE7029840F60001C4F200018842CA
:1056D0000AD1FFE7009820F4407000900198C1685B
:1056E000009808430090FFE7009820F0800001999F
:1056F0004969084300900098029908600198806801
:105700000299C8620198006802998862029842F67C
:105710000041C4F20101884205D1FFE70198006908
:1057200002990863FFE70299012048610298006925
:10573000C00730B1FFE70299086920F00100086155
:10574000FFE703B07047000084B00390029101921C
:10575000029800F01F01012088400090009A0399F0
:10576000086A904308620198029901F01F0100FA4B
:1057700001F20399086A1043086204B07047000000
:1057800080B582B001900198406A00900099002095
:10579000C8850099C8840098FEF73AFA02B080BD27
:1057A00084B00390FFE7FFE70398006850E8030F19
:1057B00020F490700290FFE702990398026842E893
:1057C00003100028F0D1FFE7FFE7FFE7FFE70398AA
:1057D000006850E8050F20F001000190FFE70199F3
:1057E0000398026842E805100028F0D1FFE7FFE7C0
:1057F0000398006B012814D1FFE7FFE7FFE7039848
:10580000006850E8030F20F010000090FFE70099B7
:105810000398026842E803100028F0D1FFE7FFE791
:10582000FFE70399202081F84200039900200863D4
:1058300004B0704780B582B0019001980168C868D3
:1058400020F04000C8600199202081F841000198B3
:10585000FEF780FD002002B080BD000080B586B05C
:105860000490049890F84200222840F0A480FFE7BA
:1058700004988068B0F5805F15D1FFE7049800694F
:1058800088B9FFE7002003900498806A029004988A
:10589000006840686FF35F20029908800499886A65
:1058A0000230886225E00498806A0390002002900C
:1058B00004988068B0F5805F08D0FFE7049880689E
:1058C00050B9FFE70498006930B9FFE70498006811
:1058D00040680399087007E004980068406800F089
:1058E0007F0003990870FFE70499886A0130886295
:1058F000FFE70499C88D0138C8850004002856D1F7
:10590000FFE704980168C86820F02000C860049888
:105910000168C86820F48070C8600498016848690C
:1059200020F0010048610499202081F84200049988
:10593000002048630498006B012830D1FFE70499E8
:1059400000200863FFE7FFE70498006850E8030FB2
:1059500020F010000190FFE701990498026842E8E6
:1059600003100028F0D1FFE7FFE704980068006803
:10597000C00600280ED5FFE7FFE70020009004983E
:1059800000680068009004980068406800900098E3
:10599000FFE7FFE70498818DFEF734F903E00498F0
:1059A000FEF73CFCFFE700208DF8170007E0002021
:1059B0008DF8170003E002208DF81700FFE79DF82F
:1059C000170006B080BD000080B584B00390039836
:1059D0000068006920F44050039A1168D2681043AF
:1059E0000861039988680A6949691043084302906D
:1059F00003980068C06841F20C618843029908432B
:105A000003990968C86003980068406920F44070F1
:105A1000039A11689269104348610398006843F63D
:105A20000001C4F20101884204D1FFE7FDF72EFA1C
:105A3000019003E0FDF718FA0190FFE701981921A2
:105A40004843039A116852689200B0FBF2FC48F296
:105A50001F52C5F2EB12ACFB02304309642003FB7A
:105A600010CC322000EB0C10A0FB0202F02000EA68
:105A7000521000EB0310C2F343121044886004B0CC
:105A800080BD000083B00190019890F8410021286A
:105A90003AD1FFE701988068B0F5805F13D1FFE746
:105AA0000198006978B9FFE70198006A00900098B2
:105AB00000886FF35F200199096848600199086ABE
:105AC0000230086208E0019A106A411C11620078F5
:105AD000019909684860FFE70199C88C0138C884BA
