:020000040800F2
:10000000C00E002061020008E16E0008E94F000800
:10001000DD6E0008CD170008C58200080000000052
:10002000000000000000000000000000817A0008CD
:10003000111800080000000025780008297C00083D
:100040007B0200087B0200087B0200087B0200089C
:100050007B0200087B0200087B0200087B0200088C
:100060007B0200087B0200087B0200087B0200087C
:100070007B0200087B020008D1170008E117000886
:10008000F1170008011800087B0200087B02000835
:100090007B0200087B0200087B0200087B0200084C
:1000A0007B0200087B0200087B0200087B0200083C
:1000B0007B0200087B0200087B0200087B0200082C
:1000C0007B020008FD4F0008ED4F00087B0200088E
:1000D0007B020008A5820008B58200087B020008A8
:1000E000151800087B0200087B02000800F002F8E7
:1000F00000F0A6F814A696E8000CB244B344DA4522
:1001000001D100F09DF8BAE80F000FA696E8300084
:10011000A5EB040504EB0607AAEB0704A7F101070A
:100120004FEA15154FEA3414A4F10104AC4201D38F
:1001300000F086F813F0010F18BFFB1A43F001031B
:1001400000F001F8DBE71847709F0000909F000067
:10015000103A24BF78C878C1FAD8520724BF30C8F3
:1001600030C144BF04680C60704700007047000055
:100170000023002400250026103A28BF78C1FBD8B0
:10018000520728BF30C148BF0B6070476E2900F08E
:10019000C782702900F00984662908F0298565293D
:1001A00008F02685672908F02385612908F0228553
:1001B00003681B0A28BF41F08001692900F074829E
:1001C000642900F07182752900F06E826F2900F0B9
:1001D0009783782900F0D583E92900F03183E42959
:1001E00000F02E83F52900F02B83EF2900F0948393
:1001F000F82900F0D4830368DB0928BF41F08001AF
:10020000632901F06381732901F06881E32901F01A
:100210007381F32901F07881002070471FB501F048
:10022000C9F904000020002108F0CCFC401C6060EB
:100230000020002108F0B0FCE0601FBD10B510BD2B
:1002400001F08AF91146FFF7E9FF08F09DF801F087
:1002500067FA03B4FFF7F2FF03BC01F0AFFA000046
:100260000948804709480047FEE7FEE7FEE7FEE74A
:10027000FEE7FEE7FEE7FEE7FEE7FEE70448054986
:10028000054A064B70470000C57C0008ED000008D9
:10029000C0080020C00E0020C00A0020C00A0020B4
:1002A0000FB41CB5084B06AA7B446946009005981C
:1002B00000F04FFA04460020694600F05DFA20463F
:1002C0001CBC5DF814FB0000CD04000010B5431CFD
:1002D00002E010F8011B71B18107FAD14FF0013231
:1002E00002C88C1A8C4314EAC211F9D0C01A0A064B
:1002F00003D0C01E10BDC01A10BD0A0401D0801E5C
:1003000010BD0902FCD0401E10BD032A40F230800F
:1003100010F0030C00F0158011F8013BBCF1020F46
:10032000624498BF11F801CB00F8013B38BF11F8C7
:10033000013BA2F1040298BF00F801CB38BF00F8DE
:10034000013B11F0030300F0FF83083AC0F008807E
:1003500051F8043B083A51F804CBA0E80810F5E73F
:10036000121D5CBF51F8043B40F8043BAFF3008022
:10037000D20724BF11F8013B11F801CB48BF11F897
:10038000012B24BF00F8013B00F801CB48BF00F867
:10039000012B70474FF000020429C0F0128010F0CA
:1003A000030C00F01B80CCF1040CBCF1020F18BF51
:1003B00000F8012BA8BF20F8022BA1EB0C0100F0E4
:1003C0000DB85FEAC17C24BF00F8012B00F8012BB7
:1003D00048BF00F8012B70474FF0000200B51346EC
:1003E00094469646203922BFA0E80C50A0E80C5055
:1003F000B1F12001BFF4F7AF090728BFA0E80C5006
:1004000048BF0CC05DF804EB890028BF40F8042BFE
:1004100008BF704748BF20F8022B11F0804F18BF6B
:1004200000F8012B70470000014900F0BFBB00003D
:100430007000002010B503681C1404EB21449BB22B
:1004400089B2194494FBF2F302FB134394FBF2F4D8
:1004500001EB034393FBF2F102FB113193FBF2F347
:1004600001E05B1E11440029FBDB016003EB04404B
:1004700010BD2DE9F04704464FF0FF3A86B0006802
:10048000029060680390A0680490E0680190206981
:100490000090656905F18040B0F1004F7DD83C22A5
:1004A000002102A8FFF7C6FF3C22014603A8FFF780
:1004B000C1FF1822014604A8FFF7BCFF411E40F20D
:1004C000B55201A8FFF7B6FF0C2206466846002188
:1004D000FFF7B0FF00EB860028443E4D00267D4428
:1004E0000FE09A1A491CCDE90012022902D00C290A
:1004F00007D104E0810704D0521C019201E0401CA6
:1005000000960099019B6A5C9A42EADD012906D1B6
:100510001C2B04D1810702D00221CDE90016A0F1E5
:1005200046018B2940D20199009B00220F4602E030
:10053000AE5C521C31449A42FADB012B02DD820789
:1005400000D0491E40F2B55540F26D16C21700EBBF
:10055000927292106A4300F0030505FB062285079C
:100560000A4400D1521E049D02EB4206DDF80C80C5
:10057000A94605EBC605184EC5EB0515DDF808C004
:1005800008EB850535442E14ADB2C6EB0616C5EB57
:100590000515B6000CEB850500E005E006EB1546F9
:1005A00066F31F45360C03D0504606B0BDE8F08711
:1005B000C4E904307F1C0720521CC4E9029792FB57
:1005C000F0F3E4E806C800FB132084E8030428469F
:1005D000EBE7000057870000A039CEFD7047704759
:1005E000704770B5044685690068C10601D530269C
:1005F00000E02026C00707D070BDD4E901213046B5
:100600009047206A401C20626D1EF6D570BD70B503
:10061000044685690078C00707D170BDD4E901217F
:1006200020209047206A401C20626D1EF6D570BDC8
:1006300009684A0501D540B27047C905FCD500B22A
:10064000704709684A0501D5C0B27047C905FCD595
:1006500080B2704770B50C460546012A05D028784F
:10066000800600D5EA69002302E0012305E05B1C57
:10067000934202D2E05C0028F9D1A869E618C01ABA
:10068000A861286A184428622846FFF7AAFF04E0F8
:10069000D5E9012114F8010B9047B442F8D328465C
:1006A000FFF7B5FF70BD00002DE9F04106460024BC
:1006B00010687529314616A510D0FFF7B9FF00283C
:1006C00002DA404213A507E031688A0701D512A576
:1006D00002E0490704D511A5012401E0FFF7B1FFAD
:1006E00000210A2206F1240709E0B0FBF2FCB0FB6E
:1006F000F2F302FB1C00303078541846491C0028E5
:10070000F3D123462A463046BDE8F04100F0EFBA67
:10071000000000002D0000002B0000002000000061
:1007200011680268006A530501D508700AE0D30514
:1007300001D5088006E0130603D5C217C1E90002FF
:1007400000E008600120704701694A1C02610878D6
:10075000704700B58FB0CDE9013100210591054901
:100760007944CDE903101146684600F029F90FB02D
:1007700000BD0000E5FFFFFF0A6802F8010B0A60F8
:10078000704700002DE9FF5F15468A460446DFF8F2
:10079000AC80F8440027D8E900103E46CDE90010AF
:1007A00010E03AF816106A4602A800F0B1FE411CAB
:1007B00007D02178890603D5E269391891420DD80E
:1007C0000744761C2078800602D5E069B84205DD32
:1007D000AE42E6DB3AF816000028E2D1A069C01B61
:1007E000A0612046FFF7FDFED8E90010CDE900101A
:1007F000002017E03AF818106A4602A800F088FEB8
:10080000B0F1FF3F81460BD000250DF1080B05E04C
:10081000D4E901211BF8050090476D1C4D45F7D325
:1008200008F10100B0428046E4DB206A38442062CF
:100830002046FFF7ECFEBDE8FF9F00006284000049
:100840002DE9F0418046D21D22F007020025D2E9B1
:100850000002F52915A614D0011E72F1000106DA76
:100860000023D0EB030063EB020211A608E0D8F8E6
:1008700000108B0701D50FA602E0490701D50EA68F
:1008800001251146002408F1240704E000F0EAF9EC
:1008900030323A55641C50EA0102F7D12B463246F9
:1008A00021464046BDE8F04100F021BA00000000BA
:1008B0002D0000002B0000002000000030B40021BB
:1008C00000F1240408E002F00705D208303542EABE
:1008D0004372DB086554491C52EA0305F3D10468EE
:1008E000002310A2250708D504F020040C4304D0EF
:1008F000C46901230CA2641EC46130BC00F0F7B9C6
:1009000010B5044621461068FFF79BFE02462046BC
:10091000BDE810400023D1E7D21D22F00701D1E944
:100920000023CBE70000000030000000F0B40D46CB
:100930000188090502D5214C7C4402E01F4C7C440F
:100940000E34002100F1240608E002F00F0712091E
:10095000E75D42EA03721B097754491C52EA030718
:10096000F3D102780023120704D5702D06D009B107
:10097000022311342246F0BC00F0B9B9012310342F
:10098000F8E770B504460D4621461068FFF759FE9A
:10099000024629462046BDE870400023C6E7D21D26
:1009A00022F00703D3E90023C0E70368126843F08D
:1009B000200303600823C3610023B7E7C48200005B
:1009C0002DE9F05F894604464FF0000ADFF874B164
:1009D000FB44C0F820A02046E1688847002874D076
:1009E000252806D0D4E901219047206A401C2062C6
:1009F000F1E700265F462046E16888472028054643
:100A000007DB312D05D2781910F8200C08B1064308
:100A1000F1E7B00701D526F00406C4F81CA00027B2
:100A2000C4F818A02A2D09D0284608F0ADF838B32C
:100A300004EB8708303DC8F8185019E059F8041B3A
:100A4000204604EB87029161E1688847012F054643
:100A500018D1E069002820DA26F020061DE0D8F839
:100A6000180000EB800005EB40003038C8F8180093
:100A70002046E1688847054608F086F80028EED150
:100A8000012F0AD02E2D08D12046E16888477F1C0F
:100A90000546022F46F02006C4DBA069002803DAD1
:100AA000404246F00106A061F00701D026F0100692
:100AB0006C2D0BD0682D09D04C2D39D06A2D35D036
:100AC000742D35D07A2D33D016E038E0E1682F460A
:100AD00020468847B842054609D16C2F26D04FF4EE
:100AE0008060E168064320468847054604E06C2F95
:100AF0001AD04FF4807006430DB3A5F141001928B8
:100B000002D8203546F400664A462946204626602B
:100B10004E46FFF73BFB80B101280BD0F61D26F0B7
:100B2000070000F1080956E74020E4E78020D8E7F5
:100B30000020D6E706F104094DE7284652E7206A6F
:100B4000BDE8F09F5482000010B5203AC0F00B8041
:100B5000B1E81850A0E81850B1E81850A0E81850B3
:100B6000203ABFF4F5AF5FEA027C24BFB1E8185029
:100B7000A0E8185044BF18C918C0BDE810405FEA8B
:100B8000827C24BF51F8043B40F8043B08BF704707
:100B9000D20728BF31F8023B48BF11F8012B28BF0C
:100BA00020F8023B48BF00F8012B704770B50C4697
:100BB000016800204A1C3ED03C22B1FBF2F302FB4C
:100BC0001313B1FBF2F12360B1FBF2F302FB131339
:100BD000B1FBF2F118226360B1FBF2F302FB1313D5
:100BE000B1FBF2F146F2E0320A440721A360B2FB06
:100BF000F1F301FB132140F2B553B2FBF3F5A16110
:100C0000B2FBF3F103FB15228900B2F5B77F08D3DD
:100C10009B10521EB2FBF3F52944B2FBF3F503FB24
:100C200015220F4BE261616189077B440CD03B2A9E
:100C30000AD3521C08E02C212046FFF7CDFB0120EF
:100C4000E0600AE0521A401C195C9142FAD9521C29
:100C5000C4E903204FF0FF302062204670BD000041
:100C60000B80000030B5B0F10A0271F100034FEAC9
:100C7000900E4EEA817EB0EB0E0061EB91014FEADF
:100C8000101E4EEA017E10EB0E0041EB11114FEAEF
:100C9000102E4EEA016E10EB0E0041EB11214FEACF
:100CA000104E4EEA014E10EB0E0041EB1141401880
:100CB00041F100014FEAD00040EA41704FEAD10112
:100CC0004FEA810444EA907410EB800544EB010480
:100CD0006D1944EB0404521BA3414FF0000348BFBD
:100CE0000A3200D530BD401C41F1000130BD2DE974
:100CF000F0470D4699469246044600F124080168E3
:100D0000880604D5E06921F01001216000E001208F
:100D1000A84201DD471B00E00027A1697A1902EB18
:100D20000900081AA0612078C00602D42046FFF707
:100D300058FC002608E0D4E901211AF80600904783
:100D4000206A401C761C20624E45F4DB2078C006E9
:100D50000AD52046FFF745FC06E0D4E90121302002
:100D60009047206A401C2062381EA7F10107F4DC7E
:100D700007E0D4E9012118F805009047206A401CDB
:100D80002062281EA5F10105F3DC2046FFF73FFC99
:100D90002078000602D50220BDE8F0870120FBE79D
:100DA0002DE9FF4F0C461E464FF0FF378BB0D2E9BE
:100DB0000001DDF860800A908A46C1F30A5505B942
:100DC0003D46002108464FF00000BAF1000F00F444
:100DD000400005DA00EB80004FF4400101EA5000CA
:100DE0004FEA9059B9F1010F00DDB9460A9850EA6F
:100DF0004A000ED044F61050A5F2FF3545432F149B
:100E0000B8F1000F1ED07542291E1EDDC9F1000287
:100E10001CE0B8F1010F4FF0000001D0302103E0D9
:100E2000F24305E02154401CB042FBDB3046002277
:100E3000002121540B99C1F80880C1E900200FB0AE
:100E4000BDE8F08FBD1B6D1CDEE74A4600DA694243
:100E500006A800F0F3FB06AB93E8070003AB83E8BA
:100E6000070050460A9907F0B3FA8DE80700A0F58D
:100E700000501F3800900398002D0ADD42F21F0138
:100E80004A460844002303A90390684607F01CFD66
:100E900009E0A0F500504A461F38002303A903903B
:100EA000684607F026FD8DE807000004000C03D01B
:100EB0004FF0FF30410800E01046B8F1000F03D0BA
:100EC0000022009215461EE0751E05D4FFF7CAFEEB
:100ED000303262556D1EF9D5B3460122084302D067
:100EE00000227F1C04E02078302801D100227F1EE0
:100EF000002A099784D01DE0112D07DAFFF7B2FE12
:100F0000303262556D1C50EA0102F5D1084302D01F
:100F10000098C8B10EE00021681E05E0235C625C09
:100F200063542254401E491C8142F7DBAB46A81B88
:100F3000401E0990002004F80B000B98099AC0F895
:100F40000880C0E9002B7AE711264FF0000857E728
:100F50002DE9F04F88460446D21D22F0070191B0DA
:100F6000D1E90001CDE90A0107F0FAFD02460B982C
:100F7000C00F01D02D2007E02068810701D52B206C
:100F800002E0202101EAC000032A099001D0072ACB
:100F900005DB03464146204600F010FB0BE12078BC
:100FA000800601D5E06900E00620B8F1650F8146B2
:100FB00006D0B8F1660F18D0B8F1670F70D131E0E4
:100FC0000020B9F1110F009001DB112301E009F1BC
:100FD00001030AAA01A90CA8FFF7E2FEDDE90C70E3
:100FE000002609F10105834647E001204B460090A9
:100FF0004FF000470AAA01A90CA8FFF7D1FEDDE9CE
:101000000DB00C995D46002610B909F101000D18CC
:10101000B9EB050003D4C0F1FF3609F10105A5EBDA
:1010200009002BE0B9F1010F01DA4FF001090020AE
:10103000B9F1110F0090484601DD112300E003468D
:101040000AAA01A90CA8FFF7ABFEDDE90C704D461A
:1010500000268346207800070AD4AB4500DA5D46B7
:1010600001A8012D04DD411911F8011C302907D018
:101070004F4502DA17F1040F04DA012082460FE02F
:101080006D1EEEE7002F02DCED1B3E4403E0781CF2
:10109000A84200DD7D1CB81B00F1010A4FF000479B
:1010A0002078000703D4AA4501DB4FF0FF3A002166
:1010B000B7F1004F0DF143088DF8431024D0022002
:1010C0002B23002F01DA7F422D230A21021EA0F1DB
:1010D000010000DC5FB197FBF1FC97FBF1F201FB33
:1010E0001C7C17460CF1300C08F801CDEEE7A8F196
:1010F000010003702188090501D5452100E0652123
:10110000A0F1010800F8011C09980FA9A1EB08073C
:10111000FF1D00B10120411901EBEA70A1693844BB
:10112000081A401EA0612078C00602D42046FFF7AE
:1011300058FA099828B1D4E901219047206A401C47
:1011400020622078C00622D52046FFF74AFA1EE02A
:10115000002E04DBB34502DD01A8805D00E03020F5
:10116000D4E901219047206A401C2062761CAAF134
:1011700001005FEA000A0AD100F01CFAC0680168A9
:10118000405CD4E901219047206A401C2062281E5F
:10119000A5F10105DCDC07E0D4E9012118F8010B19
:1011A0009047206A401C2062381EA7F10107F3DC3B
:1011B0002046FFF72CFA032011B041E62DE9F04F4D
:1011C00004460D46D21D22F0070089B0D0E90097F1
:1011D0004846394607F0C4FC0246F80F01D02D23DB
:1011E00007E02068810701D52B2302E0202101EAD6
:1011F000C0038DF820300BB1012000E00020032A4D
:10120000824601D0072A04DB2946204600F0D6F9A1
:101210003FE12078800601D40D2500E0E569C7F3A1
:101220000A560D2D49DA00214FEA175B08464FF0A8
:101230000000002F00F4400007DA00EB80004FF4BC
:10124000400100EBD07001EA60008115012901DD49
:101250004FF0FF3100224FEA850CBCF1180F06D386
:101260001346ACF118004FF08052C24003E04FF437
:10127000801323FA0CF30CF10C0CBCF1200F04D3F7
:10128000ACF1200C09FA0CF001E007FA0CF000298F
:101290004FF0004801DD18B90FE00ED140450CD3E6
:1012A00019EB02095F4121B9404502D19F4329EA68
:1012B0000209BBEB175F00D0761C2088000502D521
:1012C0007B48784402E07A487844193808AA3023E9
:1012D00002F80A30037C0AF10101002E0AF1020A29
:1012E00053546A4602DC4FF0300101E04FF0310107
:1012F0004FF001088DF8001002D0A6F2FF3603E08F
:1013000059EA470100D06B4E002D02DC2178090715
:1013100004D54FF002082E218DF80110C44600219B
:101320000BE0C7F303433F01C35C491C6D1E02F889
:101330000830052908F1010801DA002DF1DC00214F
:101340000CE000EB1973491C1B786D1E082902F88C
:1013500008304FEA091908F1010801DA002DF0DC24
:1013600021688B0602D516E0A8F10108E04505DDED
:1013700002EB080313F8013C302BF5D0B8F1000F55
:1013800009DD02EB080313F8013C2E2B03D10907FA
:1013900001D4A8F10108002D05DD3E2102F8081056
:1013A0006D1E08F10108407C002E02F8080008F1CB
:1013B000010804DA2D20764202F8080002E02B2012
:1013C00002F808000A214FF47A70864208F10108F9
:1013D0000BDB96FBF0F3303302F8083096FBF0F3AA
:1013E00008F1010800FB136601E0642E0CDB6420A9
:1013F00096FBF0F3303302F8083096FBF0F308F177
:10140000010800FB136601E00A2E06DB96FBF1F0F3
:10141000303002F8080008F1010896FBF1F001FBFA
:101420001060303002F80800A16908F1010808EBEB
:10143000050202EB0A00081AA0612078C00602D457
:101440002046FFF7CEF8216A08AE01EB0A002062C1
:1014500004E0D4E9012116F8010B9047BAF1010A22
:10146000F7D22078C00602D52046FFF7BAF86E46BC
:1014700009E016F8010B3E280FD0D4E9012190476E
:10148000206A401C2062B8F10108F2D22046FFF722
:10149000BEF809B00320BDE8F08F206A284420621E
:1014A00003E0D4E90121302090476D1EEBD3F8E72B
:1014B0009279000002FCFFFF10B5436913B1AFF34E
:1014C000008001E0FFF7C6F8012010BD127800F19E
:1014D00024010A7000224A700122EDE711684FF0E2
:1014E000FF32E9E710B5436913B1AFF3008001E0C3
:1014F000FFF748F9012010BD128800F12401828411
:101500000022C2840122EDE711684FF0FF32E9E7C3
:101510002DE9F04116460C46054600F043F80368F5
:1015200093F80101012807D0FF2C12D8185D80B173
:1015300001202C70BDE8F081D3F807013246214626
:1015400003F20713C7182846BC46BDE8F041002344
:1015500060474FF0FF30EDE7754600F0EBF8AE4620
:1015600005006946534620F00700854618B020B5AF
:10157000FEF784FEBDE820404FF000064FF0000764
:101580004FF000084FF0000BAC46ACE8C009ACE8E7
:10159000C009ACE8C009ACE8C00921F007018D46DC
:1015A0007047000010B500F005F8001D10BD00BF29
:1015B0001576000000487047BC0000202DE9F0417E
:1015C0001F46044603260168072A01F4006004DB75
:1015D00008B116A505E016A503E008B115A500E0C1
:1015E00015A521F010002060A069C01EA0610FB1F8
:1015F000401EA0612046FEF7F4FF4FB1D4E901215F
:1016000038469047206A401C2062C01C206206E0D9
:10161000206AFAE7D4E9012115F8010B9047761EFC
:10162000F8D22046FEF7F3FFBDE8F0814E414E00B0
:101630006E616E00494E4600696E66002DE9F04706
:10164000814616468AB0354878440DC88DE80D00AD
:1016500032487844801C03AC0DC884E80D0041F684
:101660009B300844372190FBF1F290FBF1F5A5F196
:10167000800501FB12041B3C02D56442012000E0FE
:101680000020DFF898A080460027FA44AAF1BE0A9D
:101690000EE0E0070AD03246684607EB4701012317
:1016A0000AEB810107F025F98DE8070064107F1C23
:1016B000002CEED1194F7F44AE3F19E0E80715D05A
:1016C00007EB04100DF1180A90E80E008AE80E00EE
:1016D000C068F04201D1981908903246012306A94A
:1016E00003A807F006F903AB83E807006D10641C3C
:1016F000002DE3D14FF0010332466946B8F1000FE7
:1017000003A802D007F0E0F801E007F0F2F8C9E919
:101710000001C9F808200AB0BDE8F0879C760000F7
:1017200010B50446AFF300802046BDE81040FEF738
:1017300090BD0000004870479C0000204FF0013C25
:1017400050F8042B51F8043B9A4221D1A2EB0C0330
:10175000934313EACC1317D150F8042B51F8043BF0
:101760009A4215D1A2EB0C03934313EACC130BD18D
:1017700050F8042B51F8043B9A4209D1A2EB0C0318
:10178000934313EACC13DBD04FF00000704700BF47
:10179000D01A01BAB1FA81F101F0180122FA01F070
:1017A000CB40DBB2C0B2C01AC1F120012CFA01F368
:1017B000D11A914311EAC311E6D1704701491820AB
:1017C000ABBEFEE72600020070470000FFE7FEE721
:1017D00080B540F2D850C2F2000000F041FB80BD5D
:1017E00080B540F29450C2F2000000F039FB80BD99
:1017F00080B540F21C60C2F2000000F031FB80BDF9
:1018000080B540F26060C2F2000000F029FB80BDAC
:101810007047000080B54FF4804000F0E5FC80BDCB
:1018200081B040F29150C2F2000000780146009170
:10183000052870D80099DFE801F0030B1F32465AE3
:1018400040F69001C2F2000148690138486162E047
:1018500040F69000C2F2000001690139016100699F
:10186000B0F1FF3F07DCFFE740F69001C2F2000154
:101870000B200861FFE74EE040F69000C2F2000046
:10188000C1680139C160C068002807DCFFE740F685
:101890009001C2F200011F20C860FFE73BE040F664
:1018A0009000C2F200008168013981608068B0F167
:1018B000FF3F07DCFFE740F69001C2F2000117206E
:1018C0008860FFE727E040F69000C2F20000416820
:1018D000013941604068B0F1FF3F07DCFFE740F6A7
:1018E0009001C2F200013B204860FFE713E040F6A0
:1018F0009000C2F200000168013901600068B0F197
:10190000FF3F07DCFFE740F69001C2F200013B20F9
:101910000860FFE7FFE701B070470000B0B582B094
:1019200040F29050C2F200000078D8BBFFE705F00B
:1019300057F88646CDF800E0DEF80000DEF8042017
:10194000DEF80830DEF80CC0DEF81040DEF8145087
:1019500040F69001C2F2000101914D610C61C1F8A5
:101960000CC08B604A600860DEF81800DEF81C20AE
:10197000DEF82030DEF824C0DEF828E0C1F828E0E8
:10198000C1F824C00B62CA61886140F29151C2F271
:1019900000010020087040F29051C2F200010120C5
:1019A00008701DE040F29150C2F200000078052856
:1019B0000DD1FFE740F69000C2F2000005F05AF8A2
:1019C00040F29051C2F200010020087007E040F29E
:1019D0009151C2F20001087801300870FFE7FFE77B
:1019E00002B0B0BD81B040F29150C2F20000007868
:1019F0000146009105286CD80099DFE801F0030B3F
:101A00001E31445740F69001C2F20001486901308E
:101A100048615EE040F69000C2F2000001690131C9
:101A2000016100690C2807DBFFE740F69001C2F274
:101A3000000100200861FFE74BE040F69000C2F291
:101A40000000C1680131C160C068202807DBFFE7E2
:101A500040F69001C2F200010120C860FFE7FFE7F5
:101A600040F69000C2F20000816801318160806818
:101A7000182807DBFFE740F69001C2F200010020C2
:101A80008860FFE725E040F69000C2F20000416860
:101A90000131416040683C2807DBFFE740F69001D8
:101AA000C2F2000100204860FFE712E040F690001B
:101AB000C2F2000001680131016000683C2807DBC8
:101AC000FFE740F69001C2F2000100200860FFE746
:101AD000FFE701B07047000080B540F26070C2F2CD
:101AE00000003C2102F068FE47F2305005F0CAFFCA
:101AF00080BD000080B584B000F0DAF8039040F2B9
:101B00006070C2F2000000F0CBF80290029847F239
:101B1000305188423DD0FFE7039840F68001C2F281
:101B200000010968401A632801D8FFE781E00398A3
:101B300040F68001C2F200010860029847F231517C
:101B400088420FD3FFE740F68C00C2F20000006825
:101B500038B1FFE740F68C00C2F200000068804711
:101B6000FFE715E0029847F22F5188420FD8FFE7B0
:101B700040F68400C2F20000006838B1FFE740F68A
:101B80008400C2F2000000688047FFE7FFE7FFE73C
:101B9000FFE747F2305005F075FF00F073F88DF85D
:101BA00007009DF80700C0BBFFE740F20010C2F23B
:101BB0000000006840B9FFE700F07AF840F2001139
:101BC000C2F20001086027E040F2FC00C2F200000F
:101BD000007800BBFFE700F06BF840F20011C2F2A2
:101BE00000010968401A0B2815D3FFE740F688006A
:101BF000C2F20000006868B1FFE740F68800C2F258
:101C000000000068804740F2FC01C2F200010120A0
:101C10000870FFE7FFE7FFE70BE040F20011C2F2B8
:101C200000010020086040F2FC01C2F200010870CF
:101C3000FFE704B080BD000081B00090009840F63E
:101C40008401C2F20001086001B0704781B00090C9
:101C5000009840F68801C2F20001086001B07047A8
:101C600081B00090009840F68C01C2F2000108603B
:101C700001B0704781B0EFF3108072B60090FFE7BB
:101C8000FEE7000080B540F60040C4F201004FF4CA
:101C9000804100F055FC002818BF012080BD0000E5
:101CA00081B0009000980068406A01B07047000061
:101CB00080B500F075FC80BD83B0019000208DF8E8
:101CC0000300019890F8210002280DD0FFE7019948
:101CD00004208863FFE70199002081F82000FFE7D6
:101CE00001208DF80B0021E001980168086820F0C0
:101CF0000E00086001980168086820F00100086083
:101D00000198C16B026C012090404860FFE7019987
:101D1000012081F82100FFE70199002081F82000CF
:101D2000FFE79DF803008DF80B00FFE79DF80B001F
:101D300003B0704780B588B0079000208DF81B0075
:101D4000079890F82100022807D0FFE707990420A0
:101D5000886301208DF81B0076E007980168086809
:101D600020F00E00086007980168086820F0010064
:101D70000860079800680821C4F20201884203D174
:101D8000FFE70120059047E0079800681C21C4F296
:101D90000201884203D1FFE71020049039E0079840
:101DA00000683021C4F20201884204D1FFE74FF4F9
:101DB000807003902AE0079800684421C4F2020171
:101DC000884204D1FFE74FF4805002901BE007984F
:101DD00000685821C4F20201884204D1FFE74FF4A1
:101DE000803001900CE0079801686C22C4F2020276
:101DF0004FF08070914208BF4FF480100190FFE7D0
:101E000001980290FFE702980390FFE7039804907F
:101E1000FFE704980590FFE705980421C4F202014A
:101E200008600799012081F82100FFE70799002049
:101E300081F82000FFE70798406B20B1FFE7079883
:101E4000416B8847FFE7FFE79DF81B0008B080BDA6
:101E500081B00090009890F8210001B07047000018
:101E600080B58EB00D900D98C06B00680C900D98E9
:101E7000006800680B900C980D99096CC8404007E9
:101E8000002875D5FFE79DF82C00400700286FD586
:101E9000FFE70D98006800688006002807D4FFE778
:101EA0000D980168086820F004000860FFE70D98AD
:101EB00000680821C4F20201884203D1FFE7042030
:101EC0000A9047E00D9800681C21C4F20201884284
:101ED00003D1FFE74020099039E00D9800683021D8
:101EE000C4F20201884204D1FFE74FF480600890F9
:101EF0002AE00D9800684421C4F20201884204D10E
:101F0000FFE74FF4804007901BE00D9800685821D0
:101F1000C4F20201884204D1FFE74FF4802006900A
:101F20000CE00D9801686C22C4F202024FF0806050
:101F3000914208BF4FF480000690FFE70698079093
:101F4000FFE707980890FFE708980990FFE70998CE
:101F50000A90FFE70A980421C4F2020108600D9874
:101F6000C06A20B1FFE70D98C16A8847FFE7B8E073
:101F70000C980D99096CC8408007002840F18080BA
:101F8000FFE79DF82C008007002879D5FFE70D9822
:101F900000680068800600280BD4FFE70D980168F0
:101FA000086820F00A0008600D99012081F82100DE
:101FB000FFE70D9800680821C4F20201884203D1AE
:101FC000FFE70220059047E00D9800681C21C4F24D
:101FD0000201884203D1FFE72020049039E00D98E8
:101FE00000683021C4F20201884204D1FFE74FF4B7
:101FF000007003902AE00D9800684421C4F20201A9
:10200000884204D1FFE74FF4005002901BE00D9886
:1020100000685821C4F20201884204D1FFE74FF45E
:10202000003001900CE00D9801686C22C4F20202AD
:102030004FF00070914208BF4FF400100190FFE78D
:1020400001980290FFE702980390FFE7039804903D
:10205000FFE704980590FFE705980421C4F2020108
:102060000860FFE70D99002081F82000FFE70D9838
:10207000806A20B1FFE70D98816A8847FFE72FE06B
:102080000C980D99096CC8400007002827D5FFE778
:102090009DF82C000007002821D5FFE70D98016866
:1020A000086820F00E0008600D98C26B016C0120DA
:1020B00000FA01F151600D9988630D9981F82100B2
:1020C000FFE70D99002081F82000FFE70D98006BD5
:1020D00020B1FFE70D98016B8847FFE7FFE7FFE7B7
:1020E000FFE70EB080BD000083B00190002000909B
:1020F000019820B9FFE701208DF80B0047E0019916
:1021000008684FF6F872CBF6FD7210444CF6CD42DB
:10211000CCF6CC42A0FB02026FF0030000EA920072
:10212000086401990020C4F20200C86301990220EA
:1021300081F821000198006800680090009843F63B
:10214000F0718843009001994868D1F808C0CB68C5
:102150000A6940EA0C00184310434A6910438A692F
:102160001043C96901430098084300900098019901
:1021700009680860019900208863019A012182F8AA
:102180002110019981F820008DF80B00FFE79DF8E0
:102190000B0003B07047000080B584B0039000F0DE
:1021A000FFF90290039801900198013048B1FFE7D0
:1021B00040F21C00C2F2000001780198084401902E
:1021C000FFE7FFE700F0ECF90299401A0199884215
:1021D00001D2FFE7F6E704B080BD000081B0ADF8A2
:1021E000020001B07047000080B582B0ADF8060073
:1021F00040F21440C4F201000068BDF80610084225
:102200000CD0FFE7BDF8060040F21441C4F2010112
:102210000860BDF80600FFF7E1FFFFE702B080BDF0
:1022200090B00F900E9100200D900990FFE70E984E
:1022300000680D99C840002800F07F81FFE70D99E4
:10224000012088400C900E9800680C9908400B9073
:102250000B980C99884240F06C81FFE70E9840681B
:102260000590002851D0FFE7059801283AD0FFE7F4
:10227000059802283FD0FFE7059803285FD0FFE7C5
:102280000598112832D0FFE70598122838D0FFE7CB
:1022900005980021C1F21101884236D0FFE7059868
:1022A0000021C1F2120188422FD0FFE705980021DA
:1022B000C1F22101884228D0FFE705980021C1F230
:1022C0002201884221D0FFE705980021C1F23101A7
:1022D00088421AD0FFE705980021C1F232018842F6
:1022E00013D02FE00E98C06809902CE00E98C068BB
:1022F0000430099027E00E98C0680830099022E069
:102300000E98C0680C3009901DE00E98806818B9CE
:10231000FFE70420099011E00E988068012806D19B
:10232000FFE7082009900C980F99086105E0082044
:1023300009900C980F994861FFE7FFE703E0002040
:10234000099000E0FFE70B98FF2803D8FFE70F98FC
:10235000049003E00F9804300490FFE7049808907D
:102360000B98FF2804D8FFE70D988000039006E043
:102370000D996FF01F0000EB81000390FFE70398B9
:10238000079008980068079A0F219140884309999F
:1023900091400843089908600E98C079C00600284B
:1023A00040F1C680FFE7FFE741F21800C4F20200E7
:1023B000016841F001010160006800F00100069031
:1023C0000698FFE70D9820F003000821C4F20101F0
:1023D00040580A900D9800F0030081000F2000FA89
:1023E00001F10A9888430A900F9840F60001C4F260
:1023F0000101884203D1FFE70020029026E00F98F8
:1024000040F60041C4F20101884203D1FFE70120F8
:10241000019018E00F9841F20001C4F201018842D6
:1024200003D1FFE7022000900AE00F9941F2004239
:10243000C4F201020420914208BF03200090FFE78C
:1024400000980190FFE701980290FFE702980D992C
:1024500001F00301890000FA01F10A9808430A908B
:102460000A980D9921F003010822C4F20102885054
:102470000E988079C006002809D5FFE70B9A40F234
:102480000841C4F2010108681043086008E00B9A93
:1024900040F20841C4F20101086890430860FFE778
:1024A0000E9880798006002809D5FFE70B9A40F244
:1024B0000C41C4F2010108681043086008E00B9A5F
:1024C00040F20C41C4F20101086890430860FFE744
:1024D0000E9880798007002809D5FFE70B9A40F213
:1024E0000441C4F2010108681043086008E00B9A37
:1024F00040F20441C4F20101086890430860FFE71C
:102500000E988079C00748B1FFE70B9A40F200416E
:10251000C4F2010108681043086008E00B9A40F219
:102520000041C4F20101086890430860FFE7FFE73B
:10253000FFE70D9801300D9079E610B0704700006C
:1025400082B00190ADF8021001988068BDF80210C9
:10255000084204D0FFE701208DF8010003E00020CD
:102560008DF80100FFE79DF8010002B07047000000
:1025700082B00190ADF802108DF801209DF80100A5
:1025800028B1FFE7BDF802000199086105E0BDF838
:102590000200000401990861FFE702B070470000E3
:1025A00040F6BC00C2F200000068704781B00090A5
:1025B00001B0704782B001908DF80310ADF8002093
:1025C00002B0704780B58AB00990099800684069E8
:1025D00004900998006840680390002002900998D0
:1025E00090F83E008DF807009DF81100C007A8B1D3
:1025F000FFE79DF80D00C00780B1FFE7029840F0AB
:1026000001000290099801686FF480704861099890
:102610000168086840F400400860FFE79DF8110079
:1026200000F002010020B0EB510F0FD0FFE79DF842
:102630000D00C00750B1FFE7029840F00200029081
:10264000099801686FF400704861FFE79DF8110078
:1026500000F004010020B0EB910F50D0FFE79DF88F
:102660000D00C00700284AD0FFE79DF807008DF84D
:1026700023000998408D0790099890F83D008DF847
:102680001B000998006B05909DF8230020281AD1A3
:10269000FFE70798B8B9FFE79DF81B0021280ED087
:1026A000FFE79DF81B00292809D0FFE79DF81B00D4
:1026B000282808D1FFE70598212804D1FFE70998C9
:1026C00003F0E2FD1AE0099801686FF48060486148
:1026D000029840F0040002909DF80700102805D0F1
:1026E000FFE79DF80700402807D1FFE70998016838
:1026F000086840F400700860FFE7FFE7FFE79DF817
:10270000110000F008010020B0EBD10F0FD0FFE75F
:102710009DF80D00C00750B1FFE7029840F0080097
:102720000290099801686FF400604861FFE7029821
:1027300048B1FFE7029A0999086C104308640998A8
:1027400002F03CFDFFE70AB080BD000080B588B014
:10275000079000200590079800684068049007984B
:10276000C06A0390079890F83E008DF80B00079818
:1027700090F83D008DF80A009DF80B00102806D057
:10278000FFE79DF80B00402840F00081FFE7079825
:10279000006880690590079800684069069006986F
:1027A000C007A0B9FFE703990120B1F52A0F0190F6
:1027B00008D0FFE7039800F1AC40B0FA80F0400980
:1027C0000190FFE70198C00708B1FFE7A1E1069873
:1027D000C00780B1FFE79DF8110000F00201002062
:1027E000B0EB510F07D0FFE7079802F00FFC0798F6
:1027F00003F04AFBC9E09DF8180000F00801002032
:10280000B0EBD10F0DD0FFE79DF8110000F00201F1
:102810000020B0EB510F04D0FFE7079803F064F9F4
:10282000B2E09DF8180000F002010020B0EB510F5B
:102830000DD0FFE79DF8110000F002010020B0EB81
:10284000510F04D0FFE7079803F072F99BE09DF861
:10285000140000F004010020B0EB910F50D0FFE70E
:1028600007980068406800F40060B0F5006F46D03B
:10287000FFE79DF818100020B0EBD11F16D0FFE73E
:102880009DF8110000F004010020B0EB910F0DD075
:10289000FFE79DF8180000F004010020B0EB910F55
:1028A00004D1FFE7079803F07FF827E09DF81800B0
:1028B00000F004010020B0EB910F1DD0FFE79DF860
:1028C000110000F002010020B0EB510F14D0FFE71F
:1028D0009DF80A00212804D1FFE7079802F0F4FFD1
:1028E00009E09DF80B00402804D1FFE7079803F0AA
:1028F00043FBFFE7FFE700E0FFE7FFE7FFE741E01B
:1029000007980068406800F40060B0F5006F38D0A8
:10291000FFE79DF8180000F040010020B0EB911F88
:1029200016D0FFE79DF8110000F004010020B0EB85
:10293000910F0DD0FFE79DF8180000F00401002072
:10294000B0EB910F04D1FFE7079802F07DFE17E08E
:102950009DF8180000F004010020B0EB910F0DD09D
:10296000FFE79DF8110000F002010020B0EB510FCD
:1029700004D0FFE7079802F091FD00E0FFE7FFE7D2
:10298000FFE7FFE7FFE7FFE7FFE7C2E00798006C1C
:1029900028B1FFE7079800684069069008E00798AB
:1029A0000068806905900798006840690690FFE715
:1029B0009DF8180000F002010020B0EB510F17D075
:1029C000FFE79DF8110000F002010020B0EB510F6D
:1029D0000ED0FFE70798006C28B1FFE70798006862
:1029E00080690590FFE70798059903F0F5FB8FE0F4
:1029F0009DF8180000F010010020B0EB111F0DD061
:102A0000FFE79DF8110000F002010020B0EB510F2C
:102A100004D0FFE7079803F0A9FC78E09DF80A00CE
:102A2000212805D0FFE79DF80A00292836D1FFE7C5
:102A30009DF818100020B0EBD11F16D0FFE79DF8CD
:102A4000110000F004010020B0EB910F0DD0FFE762
:102A50009DF8180000F004010020B0EB910F04D1A4
:102A6000FFE7079803F082FB17E09DF8180000F0DD
:102A700004010020B0EB910F0DD0FFE79DF811008D
:102A800000F002010020B0EB510F04D0FFE70798DF
:102A900003F056FB00E0FFE7FFE737E09DF8180082
:102AA00000F040010020B0EB911F16D0FFE79DF829
:102AB000110000F004010020B0EB910F0DD0FFE7F2
:102AC0009DF8180000F004010020B0EB910F04D134
:102AD000FFE7079803F0FCFA17E09DF8180000F0F4
:102AE00004010020B0EB910F0DD0FFE79DF811001D
:102AF00000F002010020B0EB510F04D0FFE707986F
:102B000003F0CEFA00E0FFE7FFE7FFE7FFE7FFE7AC
:102B1000FFE708B080BD000081B0009001B07047B1
:102B200080B58EB00C900C9820B9FFE701208DF88D
:102B3000370043E10C9890F83D0040B9FFE70C994D
:102B4000002081F83C000C9800F056FAFFE70C9941
:102B5000242081F83D000C980168086820F00100ED
:102B600008600C980168086840F4004008600C9800
:102B70000168086820F40040086000F0C9FE0A906F
:102B80000C98406848F2A061C0F2010188420BD85D
:102B9000FFE70A9948F28042C0F21E0200209142EB
:102BA00038BF012009900AE00A9940F60012C0F2ED
:102BB0003D020020914238BF01200990FFE70998AB
:102BC000012804D1FFE701208DF83700F6E00A98CC
:102BD0004DF68361C4F21B31A0FB0110800C0B90F9
:102BE0000C980068406820F03F000B9908430C994E
:102BF000096848600C980068006A20F03F0008905F
:102C00000C98406848F2A061C0F20101884204D8E3
:102C1000FFE70B98013007900EE00B984FF4967188
:102C2000484344F6D351C1F26201A0FB01010120E7
:102C300000EB91100790FFE70898079908430C995B
:102C4000096808620C980068C0694CF6FF718843F7
:102C500006900C98406848F2A061C0F201018842D9
:102C60001FD8FFE70A9801380C9949684900B0FB62
:102C7000F1F001306FF31F30032803D8FFE7042081
:102C800005900BE00A9801380C9949684900B0FB9F
:102C9000F1F001306FF31F300590FFE705980490C5
:102CA0004CE00C98806868B9FFE70A9801380C99E5
:102CB000496801EB4101B0FBF1F001306FF31F30C7
:102CC00003900DE00A9801380C9949681922514384
:102CD000B0FBF1F00130042161F31F300390FFE7F6
:102CE0000398000518B9FFE70120029023E00C9833
:102CF000806868B9FFE70A9801380C99496801EBC8
:102D00004101B0FBF1F001306FF31F3001900DE095
:102D10000A9801380C99496819225143B0FBF1F027
:102D20000130042161F31F300190FFE7019840F466
:102D300000400290FFE702980490FFE7069804998C
:102D400008430C990968C8610C980068006820F075
:102D5000C0000C9B1968DA691B6A1A4310430860AB
:102D60000C980068806848F2FF3188430C9A11681B
:102D7000D36812691A43104388600C980068C068D1
:102D800020F0FF000C9B19685A699B691A43104395
:102D9000C8600C980168086840F0010008600C9950
:102DA000002008640C9A202182F83D100C990863D9
:102DB0000C9981F83E008DF83700FFE79DF8370049
:102DC0000EB080BD81B0009001B0704781B000901E
:102DD00001B0704781B0009001B0704780B588B0F5
:102DE000DDF828C00690ADF816100492ADF80E304C
:102DF000FFF7D6FB0290069890F83D00202840F09F
:102E0000EB80FFE7069802996A4611600221C0F242
:102E100010010122192303F025FC20B1FFE7022055
:102E20008DF81F00DCE0FFE7069890F83C000128D1
:102E300004D1FFE702208DF81F00D1E006990120A0
:102E400081F83C00FFE7FFE706980068006800F0A3
:102E50000100012807D0FFE706980168086840F0E4
:102E600001000860FFE706980168086820F4006028
:102E700008600699212081F83D000699102081F80C
:102E80003E00069900200864049806994862BDF83F
:102E90000E00069948850698408D06990885069982
:102EA0000020CFF6FF70C8620698BDF816100A9A87
:102EB000029B02F07FFC20B1FFE701208DF81F008C
:102EC0008EE0FFE7002001900698006840690190BD
:102ED00006980068806901900198FFE7FFE706986F
:102EE000008D002860D0FFE706980A99029A03F047
:102EF00023FD80B1FFE70698006C042807D1FFE7A7
:102F000006980168086840F400700860FFE7012037
:102F10008DF81F0064E006980168406A0078086137
:102F20000699486A013048620699488D01384885FB
:102F30000699088D0138088506980068406900F0F8
:102F400004010120B0EB910F16D1FFE70698008D28
:102F500090B1FFE706980168406A00780861069919
:102F6000486A013048620699488D013848850699BB
:102F7000088D01380885FFE706980A99029A03F040
:102F80001BFB80B1FFE70698006C042807D1FFE720
:102F900006980168086840F400700860FFE70120A7
:102FA0008DF81F001CE09AE706980168086840F455
:102FB000007008600699202081F83D0006990020E5
:102FC00081F83E00FFE70699002081F83C00FFE70A
:102FD00000208DF81F0003E002208DF81F00FFE79E
:102FE0009DF81F0008B080BD81B0009001B070470F
:102FF00081B0009001B0704780B590B00F90002074
:103000000E900D900C900B900F98006845F20041C7
:10301000C4F2000188423ED1FFE7FFE741F2180009
:10302000C4F20200016841F008010160006800F08C
:1030300008000A900A98FFE74FF440700B901220A6
:103040000C9003200E9040F60040C4F201000BA942
:10305000FFF7E6F8FFE70421C4F2010108680990D0
:10306000099840F0E0600990099840F0020009904A
:1030700009980860FFE7FFE741F21C00C4F2020074
:10308000016841F400110160006800F4001008902C
:103090000898FFE791E00F98006845F60001C4F238
:1030A0000001884240F08880FFE7FFE741F2180006
:1030B000C4F20200016841F008010160006800F0FC
:1030C000080007900798FFE74FF440600B9012202C
:1030D0000C9003200E9040F60040C4F201000BA9B2
:1030E000FFF79EF8FFE741F21C00C4F202000168FE
:1030F00041F480010160006800F4800006900698A9
:10310000FFE740F2D850C2F2000005904421C4F21B
:103110000201016010214160002181608022C260B3
:10312000016141618161C161FEF7DEFF18B1FFE716
:10313000FEF7A0FDFFE7FFE70F9840F2D851C2F27B
:10314000000141630F984862FFE740F29450C2F2D9
:10315000000004905821C4F2020101600021416086
:1031600081608022C260016141618161C161FEF7BD
:10317000BBFF18B1FFE7FEF77DFDFFE7FFE70F9804
:1031800040F29451C2F2000181630F984862FFE758
:103190002120019000220292114600F0AFF8019820
:1031A00000F0A2F8029A22200390114600F0A6F83F
:1031B000039800F099F8FFE7FFE710B080BD00002A
:1031C00081B0009001B0704781B0009001B07047AD
:1031D00040F21C00C2F20000027840F6BC01C2F2CC
:1031E00000010868104408607047000080B542F292
:1031F0000001C4F20201086840F0100008600320DA
:1032000000F096F80F2000F005F800F03BF80020E1
:1032100080BD000080B582B0009040F20000C2F294
:103220000000006840F21C01C2F200010A784FF46D
:103230007A71B1FBF2F1B0FBF1F001F045F820B189
:10324000FFE701208DF8070018E000980F280DD83F
:10325000FFE700994FF0FF30002200F04FF8009890
:1032600040F22001C2F20001086003E001208DF865
:10327000070003E000208DF80700FFE79DF8070036
:1032800002B080BD83B0FFE741F21800C4F2020033
:10329000016841F001010160006800F00100029046
:1032A0000298FFE7FFE741F21C00C4F20200016848
:1032B00041F080510160006800F080500190019859
:1032C000FFE7FFE70421C4F20101086800900098BD
:1032D00020F0E0600090009840F0007000900098AE
:1032E0000860FFE703B0704780B582B08DF8070033
:1032F0009DF9070004F0E8FF02B080BD80B586B0FC
:103300008DF81700049103920020029004F0F4FF5E
:1033100002909DF91700019002980499039A03F016
:10332000E1FD0146019804F0EFFF06B080BD00000A
:1033300080B582B00190019805F008F802B080BD18
:103340002021C4F20E2101200860704780B588B0AA
:103350000790002006900590049003900290079833
:103360000190012866D0FFE70198022800F0A580AF
:10337000FFE70198102840F0B080FFE741F2040019
:10338000C4F202000068039041F20000C4F202009F
:103390000068C00100284CD5FFE70398C0F38341C3
:1033A00048F61850C0F60000405C04909DF80E00EE
:1033B000C007F0B1FFE741F20400C4F20200006868
:1033C000C0F3404148F62850C0F60000405C06902B
:1033D0009DF80E00C00758B1FFE7069941F20020A2
:1033E000C0F27A00B0FBF1F0049948430590FFE782
:1033F00007E0049840F60011C0F23D0148430590F3
:10340000FFE741F20400C4F2020000684002002815
:1034100003D5FFE7059802900AE0059840004AF6B8
:10342000AB21CAF6AA21A0FB011040080290FFE7D9
:10343000FFE753E041F22000C4F20200006803906D
:10344000039800F44070B0F5807F0AD1FFE79DF843
:103450000C008007002804D5FFE74FF400400290DD
:103460002AE0039800F44070B0F5007F0DD1FFE72B
:1034700041F22400C4F2020000688007002804D54D
:10348000FFE749F64040029015E0039800F44070D1
:10349000B0F5407F0DD1FFE741F20000C4F2020019
:1034A00000688003002804D5FFE74FF22440029013
:1034B00000E0FFE7FFE7FFE710E000F03BFA41F232
:1034C0000401C4F20201096801F44042022101EB47
:1034D0005231B0FBF1F0029000E0FFE7029808B033
:1034E00080BD000080B586B004900020039002905B
:1034F00004980078C007002800F0AC80FFE70020A7
:103500008DF8070041F21C00C4F202000068C00000
:10351000002813D4FFE7FFE741F21C00C4F20200C9
:10352000016841F080510160006800F08050009017
:103530000098FFE701208DF80700FFE747F2000041
:10354000C4F200000068C005002822D4FFE747F25B
:103550000001C4F20001086840F480700860FFF7C1
:103560001FF80390FFE747F20000C4F20000006874
:10357000C00500280CD4FFE7FFF712F80399401AA2
:10358000652804D3FFE703208DF817008AE0EAE7F7
:10359000FFE741F22000C4F20200006800F440702E
:1035A00002900298E0B3FFE702980499496801F499
:1035B0004071884234D0FFE741F22001C4F2020199
:1035C000086820F44070029040F24042C4F2422267
:1035D0000120106000201060029808609DF808002B
:1035E000C007E0B1FFE7FEF7DBFF0390FFE741F222
:1035F0002000C4F202000068800700280ED4FFE714
:10360000FEF7CEFF0399401A41F28931884204D374
:10361000FFE703208DF8170044E0E8E7FFE7FFE746
:1036200041F22001C4F20201086820F44070049ABB
:103630005268104308609DF80700012809D1FFE790
:1036400041F21C01C4F20201086820F080500860B9
:10365000FFE7FFE704980078800700280CD5FFE714
:1036600041F20401C4F20201086820F44040049AC7
:10367000926810430860FFE704980078C0060028AD
:103680000CD5FFE741F20401C4F20201086820F4FE
:103690008000049AD26810430860FFE700208DF88C
:1036A0001700FFE79DF8170006B080BD80B584B015
:1036B00002900191029820B9FFE701208DF80F00D8
:1036C0001BE1019842F20001C4F20201096801F015
:1036D0000701884216D9FFE742F20000C4F2020057
:1036E000016821F00701019A11430160006800F0B0
:1036F00007000199884204D0FFE701208DF80F00F0
:10370000FBE0FFE702980078800700282AD5FFE752
:10371000029800784007002809D5FFE741F204012C
:10372000C4F20201086840F4E0600860FFE7029814
:1037300000780007002809D5FFE741F20401C4F230
:103740000201086840F460500860FFE741F204019C
:10375000C4F20201086820F0F000029A9268104357
:103760000860FFE702980078C007002860D0FFE7F4
:103770000298406801280ED1FFE741F20000C4F230
:10378000020000688003002804D4FFE701208DF8C0
:103790000F00B2E021E00298406802280ED1FFE756
:1037A00041F20000C4F2020000688001002804D445
:1037B000FFE701208DF80F009FE00DE041F20000CF
:1037C000C4F2020000688007002804D4FFE701204B
:1037D0008DF80F0091E0FFE7FFE741F20401C4F22A
:1037E0000201086820F00300029A52681043086042
:1037F000FEF7D6FE0090FFE741F20400C4F202009B
:10380000006800F00C0002994968B0EB810F0ED0FF
:10381000FFE7FEF7C5FE0099401A41F28931884260
:1038200004D3FFE703208DF80F0066E0E4E7FFE72D
:10383000019842F20001C4F20201096801F0070197
:10384000884216D2FFE742F20000C4F2020001688B
:1038500021F00701019A11430160006800F00700A0
:103860000199884204D0FFE701208DF80F0044E061
:10387000FFE702980078400700280CD5FFE741F2E7
:103880000401C4F20201086820F4E060029AD268E0
:1038900010430860FFE702980078000700280DD564
:1038A000FFE741F20401C4F20201086820F460500D
:1038B000029A126940EAC2000860FFE700F04CF883
:1038C00041F20401C4F202010968C9B20A0948F6CA
:1038D0000051C0F60001895CC84040F20001C2F20C
:1038E0000001086040F22000C2F200000068FFF70B
:1038F00091FC00208DF80F00FFE79DF80F0004B049
:1039000080BD000040F20000C2F200000068704775
:1039100080B5FFF7F7FF41F20401C4F20201096824
:10392000C1F3022248F61051C0F60001895CC8407C
:1039300080BD000080B5FFF7E5FF41F20401C4F24D
:1039400002010968C1F3C22248F61051C0F6000115
:10395000895CC84080BD000086B0002005900490BE
:1039600003900290019041F20400C4F2020000684A
:103970000590059800F00C000146009100283FD00A
:10398000FFE70098042804D0FFE70098082806D035
:1039900037E041F20020C0F27A00019037E005984C
:1039A000C0F3834148F62A50C0F60000405C029004
:1039B0009DF81600C007C0B1FFE741F20400C4F251
:1039C00002000068C0F3404148F63A50C0F60000DB
:1039D000405C0490029841F20021C0F27A01484311
:1039E0000499B0FBF1F0039007E0029840F6001153
:1039F000C0F23D0148430390FFE70398019006E0C1
:103A0000FFE741F20020C0F27A000190FFE7019841
:103A100006B0704780B586B00490049820B9FFE7DF
:103A200001208DF817002EE304980078C0070028C5
:103A300000F0AE80FFE741F20400C4F2020000682B
:103A400000F00C00042813D0FFE741F20400C4F298
:103A50000200006800F00C0008281BD1FFE741F2CB
:103A60000400C4F202000068C003002812D5FFE77A
:103A700041F20000C4F2020000688003002808D56B
:103A8000FFE70498406820B9FFE701208DF8170090
:103A9000F9E27CE0FFE704984068B0F5803F09D187
:103AA000FFE741F20001C4F20201086840F48030EF
:103AB000086032E00498406868B9FFE741F200010D
:103AC000C4F20201086820F480300860086820F41D
:103AD0008020086020E004984068B0F5A02F0DD148
:103AE000FFE741F20001C4F20201086840F48020BF
:103AF0000860086840F4803008600CE041F2000182
:103B0000C4F20201086820F480300860086820F4DC
:103B100080200860FFE7FFE7FFE7FFE704984068C1
:103B2000D0B1FFE7FEF73CFD0390FFE741F2000054
:103B3000C4F202000068800300280CD4FFE7FEF7FF
:103B40002FFD0399401A652804D3FFE703208DF861
:103B5000170098E2EAE719E0FEF722FD0390FFE77D
:103B600041F20000C4F202000068800300280CD576
:103B7000FFE7FEF715FD0399401A652804D3FFE718
:103B800003208DF817007EE2EAE7FFE7FFE7FFE793
:103B9000049800788007002840F18D80FFE741F20B
:103BA0000400C4F20200006810F00C0F13D0FFE70D
:103BB00041F20400C4F20200006800F00C00082882
:103BC00029D1FFE741F20400C4F202000068C003FB
:103BD000002820D4FFE741F20000C4F20200006890
:103BE0008007002809D5FFE704980069012804D060
:103BF000FFE701208DF8170045E241F20001C4F211
:103C00000201086820F0F800049A526940EAC200F4
:103C10000860FFE74EE00498006958B3FFE7002111
:103C2000C4F2422101200860FEF7BAFC0390FFE7CE
:103C300041F20000C4F202000068800700280CD4A2
:103C4000FFE7FEF7ADFC0399401A032804D3FFE712
:103C500003208DF8170016E2EAE741F20001C4F2F2
:103C60000201086820F0F800049A526940EAC20094
:103C700008601EE00021C4F2422100200860FEF727
:103C80008FFC0390FFE741F20000C4F202000068DD
:103C9000800700280CD5FFE7FEF782FC0399401A45
:103CA000032804D3FFE703208DF81700EBE1EAE7D0
:103CB000FFE7FFE7FFE7049800780007002848D5F2
:103CC000FFE70498806918B3FFE740F28041C4F22F
:103CD000422101200860FEF763FC0390FFE741F2F8
:103CE0002400C4F202000068800700280CD4FFE71B
:103CF000FEF756FC0399401A032804D3FFE703207C
:103D00008DF81700BFE1EAE7012003F08DFD1FE009
:103D100040F28041C4F2422100200860FEF740FCDE
:103D20000390FFE741F22400C4F20200006880071C
:103D300000280CD5FFE7FEF733FC0399401A03284F
:103D400004D3FFE703208DF817009CE1EAE7FFE7C3
:103D5000FFE7049800784007002840F1D880FFE78B
:103D600000208DF8070041F21C00C4F20200006838
:103D7000C000002813D4FFE7FFE741F21C00C4F2A3
:103D80000200016841F080510160006800F080503D
:103D900000900098FFE701208DF80700FFE747F249
:103DA0000000C4F200000068C005002822D4FFE72C
:103DB00047F20001C4F20001086840F48070086016
:103DC000FEF7EEFB0390FFE747F20000C4F20000AD
:103DD0000068C00500280CD4FFE7FEF7E1FB03995B
:103DE000401A652804D3FFE703208DF817004AE145
:103DF000EAE7FFE7FFE70498C068012809D1FFE779
:103E000041F22001C4F20201086840F0010008609C
:103E100031E00498C06868B9FFE741F22001C4F2BC
:103E20000201086820F001000860086820F0040022
:103E300008601FE00498C06805280DD1FFE741F233
:103E40002001C4F20201086840F00400086008681C
:103E500040F0010008600CE041F22001C4F20201D0
:103E6000086820F001000860086820F0040008607D
:103E7000FFE7FFE7FFE7FFE70498C068E0B1FFE76F
:103E8000FEF78EFB0390FFE741F22000C4F2020030
:103E90000068800700280ED4FFE7FEF781FB039936
:103EA000401A41F28931884204D3FFE703208DF89C
:103EB0001700E8E0E8E71BE0FEF772FB0390FFE77E
:103EC00041F22000C4F202000068800700280ED5ED
:103ED000FFE7FEF765FB0399401A41F289318842FA
:103EE00004D3FFE703208DF81700CCE0E8E7FFE7F5
:103EF0009DF80700012809D1FFE741F21C01C4F237
:103F00000201086820F080500860FFE7FFE704988E
:103F1000C069002800F0B380FFE741F20400C4F25A
:103F20000200006800F00C00082800F08280FFE723
:103F30000498C06902285CD1FFE76021C4F24221E5
:103F400000200860FEF72CFB0390FFE741F2000021
:103F5000C4F202000068800100280CD5FFE7FEF7DC
:103F60001FFB0399401A032804D3FFE703208DF8B1
:103F7000170088E0EAE70498006AB0F5803F0CD1AA
:103F8000FFE741F20401C4F20201086820F40030A6
:103F9000049A926810430860FFE741F20401C4F2FA
:103FA0000201086820F47410049B1A6A5B6A1A43C1
:103FB000104308606021C4F2422101200860FEF72E
:103FC000EFFA0390FFE741F20000C4F2020000683C
:103FD000800100280CD4FFE7FEF7E2FA0399401AAB
:103FE000032804D3FFE703208DF817004BE0EAE72E
:103FF0001EE06021C4F2422100200860FEF7D0FAE2
:104000000390FFE741F20000C4F202000068800163
:1040100000280CD5FFE7FEF7C3FA0399401A0328DE
:1040200004D3FFE703208DF817002CE0EAE7FFE751
:1040300024E00498C069012804D1FFE701208DF82D
:10404000170020E041F20400C4F202000068029070
:10405000029800F480300499096A884208D1FFE789
:10406000029800F470100499496A884204D0FFE76E
:1040700001208DF8170006E0FFE7FFE7FFE70020CB
:104080008DF81700FFE79DF8170006B080BD00000F
:1040900084B00390029100200190009046F6004009
:1040A000C4F2000001900299019800EB8100019098
:1040B0000198006880B20090009804B0704700003A
:1040C00084B00390029101920020009046F60040D7
:1040D000C4F2000000900299009800EB810000906B
:1040E000BDF804000099086004B0704780B584B042
:1040F000029000200190029820B9FFE701208DF87E
:104100000F0084E00298407C38B9FFE70299002054
:104110000874029800F080F8FFE7029902204874C2
:10412000029800F09FF838B1FFE702990420487424
:1041300001208DF80F006AE0029803F093FB38B17C
:10414000FFE702990420487401208DF80F005EE01B
:1041500002980168486820F007004860029880686B
:1041600048B1FFE746F63041C4F20001086820F08C
:1041700001000860FFE746F62C41C4F20001086820
:1041800020F46070029A92681043086002984068B8
:10419000013020B1FFE702984068019012E0012051
:1041A000FFF7D4F80190019838B9FFE7029904208D
:1041B000487401208DF80F0029E001980138019022
:1041C000FFE7FFE7BDF8060000F00F00029909685D
:1041D0008860BDF8040002990968C860029803F07D
:1041E00099FB38B1FFE702990420487401208DF84B
:1041F0000F000CE002990020C873029A012151734C
:10420000029A9173029A51748DF80F00FFE79DF89E
:104210000F0004B080BD000080B582B0019001980D
:10422000006842F60001C4F20001884218D1FFE79D
:10423000FFF786F8FFE741F21C00C4F202000168B4
:1042400041F000610160006800F00060009000989B
:10425000FFE740F23C41C4F2422101200860FFE741
:1042600002B080BD80B584B0029000200190029819
:1042700020B9FFE701208DF80F0021E002980168C6
:10428000486820F008004860FEF78AF90190FFE7CF
:10429000029800684068000700280DD4FFE7FEF789
:1042A0007FF90199401AB0F57A7F04D9FFE703201E
:1042B0008DF80F0004E0EBE700208DF80F00FFE71A
:1042C0009DF80F0004B080BD80B582B001900198C8
:1042D00003F080FC02B080BD85B003900291FFE73F
:1042E000039890F83C00012804D1FFE702208DF8E4
:1042F00013005BE00399012081F83C00FFE7FFE732
:104300000399022081F83D000398006840680190FD
:104310000398006880680090019820F07000019078
:10432000029801680198084301900198039909686F
:1043300048600398006842F60041C4F201018842D7
:1043400018D0FFE703980068B0F1804F12D0FFE764
:104350000398006840F20041C4F20001884209D08D
:10436000FFE70398006840F60001C4F200018842AC
:104370000ED1FFE7009820F080000090029841687D
:104380000098084300900098039909688860FFE747
:104390000399012081F83D00FFE70399002081F88F
:1043A0003C00FFE700208DF81300FFE79DF81300A5
:1043B00005B0704780B582B00090009820B9FFE743
:1043C00001208DF807003FE0009890F83D0040B9CB
:1043D000FFE70099002081F83C00009800F038F8D1
:1043E000FFE70099022081F83D00009951F8040B85
:1043F00003F06AFC0099012081F84600FFE700996C
:10440000012081F83E00009981F83F00009981F871
:104410004000009981F84100FFE7FFE70099012083
:1044200081F84200009981F84300009981F8440026
:10443000009981F84500FFE70099012081F83D00CF
:1044400000208DF80700FFE79DF8070002B080BD4F
:1044500082B001900198006840F60001C4F20001AA
:10446000884210D1FFE7FFE741F21C00C4F20200CE
:10447000016841F004010160006800F00400009050
:104480000098FFE7FFE702B07047000080B586B0F4
:104490000490039100208DF80B00FFE7049890F83A
:1044A0003C00012804D1FFE702208DF81700ABE0A3
:1044B0000499012081F83C00FFE7FFE704990220FE
:1044C00081F83D000498006880680190019820F010
:1044D00077000190019820F47F40019001980499A1
:1044E00009688860039800680090002872D0FFE790
:1044F000009810286ED0FFE7009820286AD0FFE7C8
:104500000098302866D0FFE70098402855D0FFE794
:104510000098502837D0FFE70098602840D0FFE788
:10452000009870280BD0FFE70098B0F5805F05D0A9
:10453000FFE70098B0F5005F16D052E055E0049810
:104540000068039B5A689968DB6803F05DFC049877
:10455000006880680190019840F077000190019810
:1045600004990968886040E004980068039B5A68D1
:104570009968DB6803F048FC04980168886840F497
:104580008040886031E004980068039A5168D268DE
:1045900003F06AFC04980068502103F04FFC24E00B
:1045A00004980068039A5168D26803F085FC049867
:1045B0000068602103F042FC17E004980068039A49
:1045C0005168D26803F050FC04980068402103F061
:1045D00035FC0AE0049800680399096803F02EFC92
:1045E00003E001208DF80B00FFE70499012081F81A
:1045F0003D00FFE70499002081F83C00FFE79DF8AB
:104600000B008DF81700FFE79DF8170006B080BD7E
:1046100080B586B004900391049820B9FFE701208B
:104620008DF8170084E0049890F83D0040B9FFE74A
:104630000499002081F83C00049800F07DF8FFE721
:104640000499022081F83D0004980168886844F2CA
:10465000070290438860049951F8040B03F034FB7F
:10466000049800688068029004980068806901904E
:1046700004980068006A0090039801680298084353
:104680000290019840F203318843019003998868B1
:10469000896940EA0121019808430190019840F698
:1046A0000C418843019001984FF2F001884301903A
:1046B0000399C868C96940EA01210198084301903B
:1046C00003990869096A000140EA01310198084329
:1046D0000190009820F022000090039948684969F1
:1046E00040EA011100980843009002980499096873
:1046F000886001980499096888610098049909689C
:1047000008620499012081F84600049981F83E006E
:10471000049981F83F00049981F84200049981F8D6
:104720004300049981F83D0000208DF81700FFE751
:104730009DF8170006B080BD80B588B007900020B6
:1047400006900590049003900798006842F6004197
:10475000C4F2010188422CD1FFE7FFE741F21800C3
:10476000C4F20200016841F400610160006800F4D5
:10477000006002900298FFE7FFE741F21800C4F2E0
:104780000200016841F004010160006800F00400CB
:1047900001900198FFE74FF44070039000200490CF
:1047A000059040F60000C4F2010003A9FDF738FDB2
:1047B000FFE708B080BD000080B586B0049003918B
:1047C000049890F83E008DF80B00049890F83F0094
:1047D0008DF80A00049890F842008DF809000498BA
:1047E00090F843008DF808000398B8B9FFE79DF8EA
:1047F0000B00012805D1FFE79DF80900012804D02E
:10480000FFE701208DF8170079E00499022081F874
:104810003E00049981F84200FFE742E00398042833
:1048200017D1FFE79DF80A00012805D1FFE79DF8A1
:104830000800012804D0FFE701208DF817005EE092
:104840000499022081F83F00049981F84300FFE7B2
:1048500026E09DF80B0001280FD1FFE79DF80A0024
:1048600001280AD1FFE79DF80900012805D1FFE7DB
:104870009DF80800012804D0FFE701208DF81700FB
:104880003DE00499022081F83E00049981F83F0040
:10489000049981F84200049981F84300FFE7FFE79B
:1048A000FFE70398019020B1FFE70198042807D0A3
:1048B0000DE0049800680021012203F089FA14E059
:1048C000049800680421012203F082FA0DE00498A4
:1048D000006800210122009203F07AFA009A0498FD
:1048E0000068042103F074FAFFE70498016808687F
:1048F00040F00100086000208DF81700FFE79DF8E8
:10490000170006B080BD000082B00190ADF8021023
:1049100002B0704781B0009001B0704780B592B08E
:104920001190119800680068109011980068C06894
:104930000F901198006840690E9000200D900C9027
:10494000109800F00F000D900D9888B9FFE79DF8C2
:104950004000800600280AD5FFE79DF83C0080064D
:10496000002804D5FFE7119803F03EFBE9E1FFE7DB
:104970000D98002800F0C280FFE79DF83800C007BE
:1049800038B9FFE7BDF83C0010F4907F00F0B68026
:10499000FFE79DF84000C00758B1FFE79DF83D00D4
:1049A000C00730B1FFE71199486C40F0010048643E
:1049B000FFE79DF84000400700280BD5FFE79DF872
:1049C0003800C00730B1FFE71199486C40F0020091
:1049D0004864FFE79DF84000800700280BD5FFE7FB
:1049E0009DF83800C00730B1FFE71199486C40F0DE
:1049F00004004864FFE79DF840000007002811D537
:104A0000FFE79DF83C008006002805D4FFE79DF8ED
:104A10003800C00730B1FFE71199486C40F008003A
:104A20004864FFE71198406C002866D0FFE79DF8C6
:104A30004000800600280AD5FFE79DF83C0080066C
:104A4000002804D5FFE7119803F0CEFAFFE711988C
:104A500000684069C0F380100C901198406C00070A
:104A6000002804D4FFE70C9800283ED0FFE71198F7
:104A700003F05CFA119800684069400600282FD5C1
:104A8000FFE7FFE7FFE71198006850E8050F20F007
:104A900040000B90FFE70B991198026842E805105F
:104AA0000028F0D1FFE7FFE71198C06B98B1FFE74E
:104AB0001198C16B47F60D70C0F60000486311985D
:104AC000C06BFDF737F928B1FFE71198C06B416B58
:104AD0008847FFE703E01198FFF71CFFFFE703E0BB
:104AE0001198FFF717FFFFE706E01198FFF712FF95
:104AF000119900204864FFE7FFE722E11198006B5D
:104B0000012840F0FE80FFE79DF84000C006002825
:104B100040F1F780FFE79DF83C00C006002840F117
:104B2000F080FFE7FFE700200A9011980068006816
:104B30000A901198006840680A900A98FFE7119857
:104B4000006840694006002840F18180FFE7119825
:104B5000C06B00684068ADF82600BDF8260000284C
:104B600074D0FFE7BDF826001199898D88426DDA6F
:104B7000FFE7BDF826001199C8851198C06B8069C0
:104B8000202858D0FFE7FFE7FFE71198006850E8BA
:104B9000030F20F480700890FFE7089911980268CD
:104BA00042E803100028F0D1FFE7FFE7FFE7FFE747
:104BB0001198006850E8050F20F001000790FFE70A
:104BC00007991198026842E805100028F0D1FFE724
:104BD000FFE7FFE7FFE71198006850E8050F20F0B6
:104BE00040000690FFE706991198026842E8051018
:104BF0000028F0D1FFE7FFE71199202081F842005B
:104C0000119900200863FFE7FFE71198006850E85A
:104C1000030F20F010000590FFE705991198026836
:104C200042E803100028F0D1FFE7FFE71198C06BBE
:104C3000FDF742F8FFE71199022048631198818D32
:104C4000C28D891A89B2FFF75FFEFFE779E01199FB
:104C5000888DC98D401AADF812001198C08D0028BA
:104C60004ED0FFE7BDF81200002849D0FFE7FFE76C
:104C7000FFE71198006850E8030F20F4907003904C
:104C8000FFE703991198026842E803100028F0D169
:104C9000FFE7FFE7FFE7FFE71198006850E8050F1F
:104CA00020F001000290FFE702991198026842E8A3
:104CB00005100028F0D1FFE7FFE71199202081F8C7
:104CC0004200119900200863FFE7FFE71198006890
:104CD00050E8030F20F010000190FFE701991198B0
:104CE000026842E803100028F0D1FFE7FFE71199BE
:104CF000022048631198BDF81210FFF705FEFFE788
:104D00001FE09DF84000000600280AD5FFE79DF847
:104D10003C000006002804D5FFE7119803F078FA5C
:104D20000FE09DF84000400600280AD5FFE79DF8F7
:104D30003C004006002804D5FFE7119803F040F935
:104D4000FFE712B080BD000080B582B000900098EF
:104D500020B9FFE701208DF8070040E00098806946
:104D600008B1FFE700E0FFE7009890F8410040B984
:104D7000FFE70099002081F84000009800F034F827
:104D8000FFE70099242081F8410000980168C86875
:104D900020F40050C860009803F0DCF90098016826
:104DA000086920F49040086100980168486920F083
:104DB0002A00486100980168C86840F40050C86043
:104DC000009900204864009A202182F84110009A3E
:104DD00082F84210009948638DF80700FFE79DF8BC
:104DE000070002B080BD000080B594B01390002091
:104DF0001290119010900F901398006843F60001E4
:104E0000C4F20101884251D1FFE7FFE741F21800E7
:104E1000C4F20200016841F480410160006800F4BE
:104E200080400E900E98FFE7FFE741F21800C4F2B1
:104E30000200016841F008010160006800F008000C
:104E40000D900D98FFE740200F9002201090032056
:104E5000129040F60040C4F2010008900FA9099199
:104E6000FDF7DEF90898099980220F92002210922E
:104E70001192FDF7D5F9FFE70421C4F2010108689A
:104E80000C900C9840F0E0600C900C9840F00400FE
:104E90000C900C980860FFE725200790002211462F
:104EA000FEF72CFA0798FEF71FFA92E013980068B5
:104EB00044F20041C4F20001884240F08980FFE7DB
:104EC000FFE741F21C00C4F20200016841F4003126
:104ED0000160006800F400300B900B98FFE7FFE7DB
:104EE00041F21800C4F20200016841F004010160BF
:104EF000006800F004000A900A98FFE704200F9071
:104F0000022010900320129040F60000C4F201002D
:104F100003900FA90491FDF783F9039804990822DF
:104F20000F920022059210921192FDF779F90599DE
:104F300040F21C60C2F2000006906C22C4F2020231
:104F40000260416081608022C260016141618161D3
:104F5000C161FDF7C9F818B1FFE7FCF78BFEFFE769
:104F6000FFE7139840F21C61C2F20001C16313987D
:104F70004862FFE740F26060C2F2000002908021C8
:104F8000C4F2020101601021416000218160802291
:104F9000C260016141618161C161FDF7A5F818B18D
:104FA000FFE7FCF767FEFFE7FFE7139840F2606159
:104FB000C2F20001816313984862FFE72620019046
:104FC00000221146FEF79AF90198FEF78DF9FFE7E6
:104FD000FFE714B080BD000081B0009001B07047C1
:104FE00081B0009001B07047FFE7FEE780B540F266
:104FF000F860C2F20000FDF7E5FA80BD80B540F22E
:10500000F860C2F20000FDF7A1FB80BD81B0009006
:105010000098C06AB0F52A0F04D1FFE7009901207B
:10502000C8620BE00098C06AB0F12A4F04D1FFE7D4
:1050300000990820C86200E0FFE7FFE701B0704771
:1050400080B584B00390002002900398406A0190DC
:10505000019890F83D008DF8030040F20000C2F284
:105060000000006848F21F51C5F2EB11A0FB0110CF
:10507000C00844F6D351C1F26201A0FB01108009BF
:10508000232148430290FFE7029830B9FFE70199D6
:10509000086C40F0200008640CE00298013802908F
:1050A000FFE701980068006800F40070B0F5007F29
:1050B000EAD0FFE70198406B28B1FFE70198416B08
:1050C00000208862FFE70198806B28B1FFE7019814
:1050D000816B00208862FFE701980168086820F46E
:1050E000806008600199002048850198406B28B1D4
:1050F000FFE70198416B00204863FFE70198806B50
:1051000028B1FFE70198816B00204863FFE7019811
:105110000168086820F001000860019890F83D00DF
:1051200060280ED1FFE70199202081F83D00019908
:10513000002081F83E00019908640198FDF736FAD5
:1051400027E09DF8030000F02800282814D1FFE78D
:1051500001980168086840F0010008600198016842
:10516000086840F480600860019900200863019994
:10517000282081F83D0008E00199202081F83D00B9
:105180000199002081F83E00FFE70198FDF7C4FC7B
:10519000FFE704B080BD000081B000900098006877
:1051A0004069C1B20020B0EBD11F05D0FFE70098E5
:1051B000016800200861FFE701B0704780B584B046
:1051C0000390039890F83D008DF80B00039890F839
:1051D0003E008DF80A009DF80A00102805D0FFE770
:1051E0009DF80A0040280CD1FFE79DF80B0022280B
:1051F00007D1FFE703980168086820F400600860A1
:10520000FFE79DF80B0000F02800282808D1FFE7F1
:105210000399002008630399282081F83D001AE0D3
:1052200003980068406800F40060B0F5006F0ED08D
:10523000FFE79DF80B00602809D0FFE703992020C5
:1052400081F83D000399002081F83E00FFE70399B3
:1052500000200863FFE70398006840680005002805
:105260005DD5FFE703980168486820F40060486056
:105270000398406B90F8210001281DD0FFE70398A8
:10528000416B45F24100C0F6000048630398406B53
:10529000FCF750FD78B1FFE703980168086820F03B
:1052A000010008600399202081F83D000398406BBD
:1052B000416B8847FFE731E00398816B45F241007D
:1052C000C0F6000048630398806BFCF733FD20B301
:1052D000FFE703980068406900F040010120B0EB4F
:1052E000911F0BD1FFE70398006800690399496A91
:1052F00008700399486A01304862FFE70398016823
:10530000086820F0010008600399202081F83D0022
:105310000398806B416B8847FFE7FFE745E0039800
:1053200090F83D00602826D1FFE70399202081F8FE
:105330003D0003990020086403980068406900F06C
:1053400040010120B0EB911F0BD1FFE703980068EB
:1053500000690399496A08700399486A01304862F4
:10536000FFE703980168086820F0010008600398CF
:10537000FDF71CF918E003980068406900F040014F
:105380000120B0EB911F0BD1FFE703980068006983
:105390000399496A08700399486A01304862FFE737
:1053A0000398FDF7B9FBFFE7FFE70398006C019056
:1053B000019800F00100012812D0FFE7019800F0E9
:1053C000020002280CD0FFE7019800F00400042836
:1053D00006D0FFE79DF804000007002807D5FFE787
:1053E00003980168486820F4E0604860FFE703988C
:1053F00090F83D008DF80B000398006C40070028E2
:1054000018D5FFE79DF80B00282813D1FFE7039973
:105410000020CFF6FF70C862039900200863039A4A
:10542000202182F83D10039981F83E000398FDF792
:10543000C9FCFFE704B080BD82B00090009800680E
:10544000406900F480610120B0EB912F1ED1FFE78D
:10545000009801686FF4806048610099002008633B
:10546000009A202182F83D10009981F83E000099B1
:10547000086C40F004000864FFE70099002081F800
:105480003C00FFE701208DF8070003E000208DF8C5
:105490000700FFE79DF8070002B0704780B582B0B3
:1054A00001900198C06A00900198408D042815D1A0
:1054B000FFE701980168486820F48060486001981F
:1054C000006800690199496A08700199486A0130C9
:1054D00048620199488D01384885B3E00198408DB4
:1054E000032824D1FFE701980168486820F4806010
:1054F0004860009804280BD0FFE70098022807D0E6
:10550000FFE701980168086820F480600860FFE701
:105510000198006800690199496A08700199486A10
:10552000013048620199488D0138488589E0019829
:10553000408D022875D1FFE70098012804D0FFE7CD
:105540000098102807D1FFE701980168086820F447
:105550008060086016E00098042804D0FFE70098F7
:10556000022807D1FFE701980168086840F48060CD
:10557000086006E001980168086840F4007008605F
:10558000FFE7FFE70198006800690199496A087020
:105590000199486A013048620199488D013848856F
:1055A0000198006800690199496A08700199486A80
:1055B000013048620199488D013848850198016899
:1055C000486820F4407048600199202081F83D002F
:1055D000019890F83E0040280AD1FFE70199002089
:1055E00081F83E00019908630198FDF7FDFC17E082
:1055F0000199002081F83E000098082804D0FFE7B8
:105600000098202804D1FFE701990020086303E0F7
:10561000019912200863FFE70198FDF7D7FBFFE728
:105620000EE00198006800690199496A08700199C3
:10563000486A013048620199488D01384885FFE782
:10564000FFE7FFE702B080BD80B584B00390039808
:1056500090F83D00222840F0AA80FFE70398C06A36
:1056600001900398408D0290029804281BD3FFE715
:105670000398006800690399496A08700399486AA9
:10568000013048620399488D013848850398408D60
:10569000032807D1FFE703980168486820F4806079
:1056A0004860FFE782E00398C06A022876D0FFE7EF
:1056B0000298012804D0FFE7029800286ED1FFE786
:1056C000039801F0FDF8002847D1FFE7039801682F
:1056D000086820F48060086003980168486820F436
:1056E000E06048600398006800690399496A08709F
:1056F0000399486A013048620399488D013848850A
:105700000399202081F83D00039890F83E0040283E
:105710000AD1FFE70399002081F83E00039908634E
:105720000398FDF761FC17E00399002081F83E0023
:105730000198082804D0FFE70198202804D1FFE74A
:1057400003990020086303E0039912200863FFE730
:105750000398FDF73BFBFFE71FE0039801684868EB
:1057600020F4E06048600398006800690399496A82
:1057700008700399486A013048620399488D0138DE
:1057800048850399202081F83D000399002081F885
:105790003E000398FDF7C0F9FFE706E003980168B3
:1057A000486820F480604860FFE7FFE7FFE704B047
:1057B00080BD000080B588B00690ADF81610049248
:1057C00003930698C06A02900298082809D0FFE760
:1057D0000298012805D0FFE7029810F5803F07D115
:1057E000FFE706980168086840F4807008600DE0E3
:1057F0000698006B122807D1FFE706980168086831
:1058000040F48070086000E0FFE7FFE70698049B23
:1058100003996A4611604FF00111002200F022FF47
:1058200080B1FFE7069800680068C005002805D52C
:10583000FFE706994FF400700864FFE703208DF836
:105840001F003CE006980069B0F5804F08D1FFE7E3
:10585000BDF8160000F0FE000699096808611CE01A
:10586000BDF8160000F44070C009F03006990968D0
:1058700008610698049A039B0821C0F2010100F018
:1058800075FF20B1FFE701208DF81F0017E09DF89C
:105890001600069909680861FFE70698049A039BB9
:1058A0000221C0F2010100F061FF20B1FFE70120F9
:1058B0008DF81F0003E000208DF81F00FFE79DF822
:1058C0001F0008B080BD000080B582B00190019833
:1058D000C06A0090019890F83D00212860D1FFE750
:1058E0000198408D70B1FFE701980168406A007827
:1058F00008610199486A013048620199488D013870
:1059000048854CE0009808281ED0FFE70098202822
:105910001AD0FFE7009810F5803F15D0FFE70198F7
:105920000168486820F4E06048600199112008632C
:105930000199002081F83E000199202081F83D0066
:105940000198FDF747FA29E001980168486820F4BA
:10595000E060486001980168086840F400700860E1
:105960000199002008630199202081F83D000198E9
:1059700090F83E00402808D1FFE70199002081F807
:105980003E000198FDF734FB07E00199002081F803
:105990003E000198FDF71EFAFFE7FFE7FFE700E092
:1059A000FFE702B080BD000080B584B0039003988B
:1059B00090F83D008DF80B00039890F83E008DF8AC
:1059C0000A000398C06A01900398008D002852D104
:1059D000FFE79DF80B0021284DD1FFE7019808282B
:1059E0001ED0FFE7019820281AD0FFE7019810F594
:1059F000803F15D0FFE703980168486820F4E06015
:105A000048600399112008630399002081F83E0043
:105A10000399202081F83D000398FDF7DBF929E088
:105A200003980168486820F4E060486003980168C2
:105A3000086840F400700860039900200863039927
:105A4000202081F83D00039890F83E00402808D1BE
:105A5000FFE70399002081F83E000398FDF7C8FA9C
:105A600007E00399002081F83E000398FDF7B2F9A2
:105A7000FFE7FFE735E09DF80B0021280AD0FFE79C
:105A80009DF80A0040282AD1FFE79DF80B00222844
:105A900025D1FFE70398408D38B9FFE703980168E7
:105AA000486820F48060486018E0039890F83E0051
:105AB000402804D1FFE7039800F05EFA0DE0039858
:105AC0000168406A007808610399486A01304862B9
:105AD0000399488D01384885FFE7FFE700E0FFE7BD
