:020000040800F2
:1000000090070020A502000895350008BD330008C0
:10001000913500083D140008993B000800000000DD
:10002000000000000000000000000000453600084D
:10003000E514000800000000053600089D360008A1
:10004000BF020008BF020008BF020008BF0200088C
:10005000BF020008BF020008BF020008BF0200087C
:10006000BF020008E9140008BF020008BF02000830
:10007000BF020008BF020008BF020008BF0200085C
:10008000BF020008BF020008BF020008BF0200084C
:10009000BF020008BF020008BF020008BF0200083C
:1000A000BF020008BF020008BF020008BF0200082C
:1000B000BF020008BF020008BF020008BF0200081C
:1000C000BF020008BF020008BF020008BF0200080C
:1000D000BF020008893B0008BF020008BF020008F9
:1000E000BF020008BF020008BF020008BF020008EC
:1000F000BF020008BF020008BF020008BF020008DC
:10010000BF020008BF020008BF020008BF020008CB
:10011000BF020008BF020008BF020008BF020008BB
:10012000BF020008BF020008BF020008BF020008AB
:1001300000F002F800F0A6F814A696E8000CB2440D
:10014000B344DA4501D100F09DF8BAE80F000FA6DC
:1001500096E83000A5EB040504EB0607AAEB0704BC
:10016000A7F101074FEA15154FEA3414A4F1010471
:10017000AC4201D300F086F813F0010F18BFFB1A50
:1001800043F0010300F001F8DBE71847F4520000E8
:1001900014530000103A24BF78C878C1FAD8520727
:1001A00024BF30C830C144BF04680C6070470000F1
:1001B000704700000023002400250026103A28BFC5
:1001C00078C1FBD8520728BF30C148BF0B607047C9
:1001D0006E2900F05B81702900F09182662905F09C
:1001E0008480652905F08180672905F07E8061297A
:1001F00005F07D8003681B0A28BF41F08001692952
:1002000000F00881642900F00581752900F0028161
:100210006F2900F01F82782900F05D82E92900F043
:10022000B981E42900F0B681F52900F0B381EF2906
:1002300000F01C82F82900F05C820368DB0928BF0B
:1002400041F08001632900F07587732900F07A87F7
:10025000E32900F08587F32900F08A8700207047A2
:100260001FB500F0DFFF04000020002104F092FC25
:10027000401C60600020002104F076FCE0601FBD9F
:1002800010B510BD00F0A0FF1146FFF7E9FF04F024
:1002900061F801F07DF803B4FFF7F2FF03BC01F051
:1002A000C5F800000948804709480047FEE7FEE717
:1002B000FEE7FEE7FEE7FEE7FEE7FEE7FEE7FEE716
:1002C00004480549054A064B7047000011370008ED
:1002D00031010008900100209007002090030020C9
:1002E000900300200FB4044910B503AA029800F04F
:1002F000E1F810BC5DF814FB840000204FF0000210
:1003000000B5134694469646203922BFA0E80C500B
:10031000A0E80C50B1F12001BFF4F7AF090728BFE6
:10032000A0E80C5048BF0CC05DF804EB890028BF62
:1003300040F8042B08BF704748BF20F8022B11F08B
:10034000804F18BF00F8012B704770477047704707
:1003500070B5044685690068C10601D5302600E005
:100360002026C00707D070BDD4E901213046904750
:10037000206A401C20626D1EF6D570BD70B5044623
:1003800085690078C00707D170BDD4E9012120201C
:100390009047206A401C20626D1EF6D570BD09682A
:1003A0004A0501D540B27047C905FCD500B2704777
:1003B00009684A0501D5C0B27047C905FCD580B2AD
:1003C000704770B50C460546012A05D0287880068E
:1003D00000D5EA69002302E0012305E05B1C93429B
:1003E00002D2E05C0028F9D1A869E618C01AA86119
:1003F000286A184428622846FFF7AAFF04E0D5E9D6
:10040000012114F8010B9047B442F8D32846FFF7B6
:10041000B5FF70BD2DE9F04106460024106875292E
:10042000314616A510D0FFF7BAFF002802DA404285
:1004300013A507E031688A0701D512A502E0490734
:1004400004D511A5012401E0FFF7B2FF00210A2223
:1004500006F1240709E0B0FBF2FCB0FBF2F302FB6B
:100460001C00303078541846491C0028F3D123462C
:100470002A463046BDE8F04100F055BA00000000C1
:100480002D0000002B000000200000001168026811
:10049000006A530501D508700AE0D30501D508802C
:1004A00006E0130603D5C217C1E9000200E00860A8
:1004B00001207047074B70B50D467B4400F01DFED0
:1004C0000446284600F058FE10B14FF0FF3070BDD2
:1004D000204670BD933A00002DE9FF5F15468A461D
:1004E0000446DFF8AC80F8440027D8E900103E4607
:1004F000CDE9001010E03AF816106A4602A800F0A4
:100500003FFE411C07D02178890603D5E2693918DE
:1005100091420DD80744761C2078800602D5E06908
:10052000B84205DDAE42E6DB3AF816000028E2D11B
:10053000A069C01BA0612046FFF70AFFD8E90010A0
:10054000CDE90010002017E03AF818106A4602A81A
:1005500000F016FEB0F1FF3F81460BD000250DF1F3
:10056000080B05E0D4E901211BF8050090476D1C3C
:100570004D45F7D308F10100B0428046E4DB206A24
:10058000384420622046FFF7F9FEBDE8FF9F0000D7
:100590000A4E00002DE9F0418046D21D22F00702EC
:1005A0000025D2E90002F52915A614D0011E72F12A
:1005B000000106DA0023D0EB030063EB020211A670
:1005C00008E0D8F800108B0701D50FA602E0490714
:1005D00001D50EA601251146002408F1240704E0E8
:1005E00000F05CF930323A55641C50EA0102F7D150
:1005F0002B46324621464046BDE8F04100F093B913
:10060000000000002D0000002B0000002000000072
:1006100030B4002100F1240408E002F00705D208FC
:10062000303542EA4372DB086554491C52EA03053F
:10063000F3D10468002310A2250708D504F0200494
:100640000C4304D0C46901230CA2641EC46130BCF5
:1006500000F069B910B5044621461068FFF7A8FEFE
:1006600002462046BDE810400023D1E7D21D22F00B
:100670000701D1E90023CBE70000000030000000B3
:10068000F0B40D460188090502D5214C7C4402E0F6
:100690001F4C7C440E34002100F1240608E002F0D7
:1006A0000F071209E75D42EA03721B097754491CE0
:1006B00052EA0307F3D102780023120704D5702D04
:1006C00006D009B1022311342246F0BC00F02BB948
:1006D00001231034F8E770B504460D462146106832
:1006E000FFF766FE024629462046BDE8704000231B
:1006F000C6E7D21D22F00703D3E90023C0E7036851
:10070000126843F0200303600823C3610023B7E7A6
:100710006C4C00002DE9F05F894604464FF0000A5A
:10072000DFF874B1FB44C0F820A02046E168884798
:10073000002874D0252806D0D4E901219047206AEA
:10074000401C2062F1E700265F462046E1688847AA
:100750002028054607DB312D05D2781910F8200C2A
:1007600008B10643F1E7B00701D526F00406C4F846
:100770001CA00027C4F818A02A2D09D0284604F090
:10078000EBF938B304EB8708303DC8F8185019E08E
:1007900059F8041B204604EB87029161E168884701
:1007A000012F054618D1E069002820DA26F020063E
:1007B0001DE0D8F8180000EB800005EB4000303851
:1007C000C8F818002046E1688847054604F0C4F9D7
:1007D0000028EED1012F0AD02E2D08D12046E16845
:1007E00088477F1C0546022F46F02006C4DBA0691F
:1007F000002803DA404246F00106A061F00701D06C
:1008000026F010066C2D0BD0682D09D04C2D39D058
:100810006A2D35D0742D35D07A2D33D016E038E0DE
:10082000E1682F4620468847B842054609D16C2F1B
:1008300026D04FF48060E16806432046884705468D
:1008400004E06C2F1AD04FF4807006430DB3A5F16D
:100850004100192802D8203546F400664A46294648
:10086000204626604E46FFF7B3FC80B101280BD02E
:10087000F61D26F0070000F1080956E74020E4E7DE
:100880008020D8E70020D6E706F104094DE7284686
:1008900052E7206ABDE8F09FFC4B000030B5B0F194
:1008A0000A0271F100034FEA900E4EEA817EB0EB2E
:1008B0000E0061EB91014FEA101E4EEA017E10EB33
:1008C0000E0041EB11114FEA102E4EEA016E10EBB3
:1008D0000E0041EB11214FEA104E4EEA014E10EB93
:1008E0000E0041EB1141401841F100014FEAD000E8
:1008F00040EA41704FEAD1014FEA810444EA907422
:1009000010EB800544EB01046D1944EB0404521B09
:10091000A3414FF0000348BF0A3200D530BD401C50
:1009200041F1000130BD2DE9F0470D469946924650
:10093000044600F124080168880604D5E06921F026
:100940001001216000E00120A84201DD471B00E00A
:100950000027A1697A1902EB0900081AA061207822
:10096000C00602D42046FFF7F3FC002608E0D4E9D5
:1009700001211AF806009047206A401C761C20626C
:100980004E45F4DB2078C0060AD52046FFF7E0FC90
:1009900006E0D4E9012130209047206A401C206203
:1009A000381EA7F10107F4DC07E0D4E9012118F8AB
:1009B00005009047206A401C2062281EA5F1010511
:1009C000F3DC2046FFF7DAFC2078000602D502208F
:1009D000BDE8F0870120FBE72DE9FF4F0C461E46DE
:1009E0004FF0FF378BB0D2E90001DDF860800A904C
:1009F0008A46C1F30A5505B93D46002108464FF025
:100A00000000BAF1000F00F4400005DA00EB8000AE
:100A10004FF4400101EA50004FEA9059B9F1010F3B
:100A200000DDB9460A9850EA4A000ED044F610504C
:100A3000A5F2FF3545432F14B8F1000F1ED07542C3
:100A4000291E1EDDC9F100021CE0B8F1010F4FF0B4
:100A5000000001D0302103E0F24305E02154401CA6
:100A6000B042FBDB30460022002121540B99C1F833
:100A70000880C1E900200FB0BDE8F08FBD1B6D1CE0
:100A8000DEE74A4600DA694206A800F00FFC06AB32
:100A900093E8070003AB83E8070050460A9903F088
:100AA0007FFC8DE80700A0F500501F3800900398E8
:100AB000002D0ADD42F21F014A460844002303A923
:100AC0000390684603F0E8FE09E0A0F500504A46AE
:100AD0001F38002303A90390684603F0F2FE8DE857
:100AE00007000004000C03D04FF0FF30410800E085
:100AF0001046B8F1000F03D00022009215461EE008
:100B0000751E05D4FFF7CAFE303262556D1EF9D549
:100B1000B3460122084302D000227F1C04E0207863
:100B2000302801D100227F1E002A099784D01DE0C1
:100B3000112D07DAFFF7B2FE303262556D1C50EA14
:100B40000102F5D1084302D00098C8B10EE000219F
:100B5000681E05E0235C625C63542254401E491CFD
:100B60008142F7DBAB46A81B401E0990002004F829
:100B70000B000B98099AC0F80880C0E9002B7AE7AF
:100B800011264FF0000857E72DE9F04F884604463C
:100B9000D21D22F0070191B0D1E90001CDE90A018F
:100BA00003F0C6FF02460B98C00F01D02D2007E0CE
:100BB0002068810701D52B2002E0202101EAC00036
:100BC000032A099001D0072A05DB03464146204647
:100BD00000F02CFB0BE12078800601D5E06900E0F5
:100BE0000620B8F1650F814606D0B8F1660F18D01F
:100BF000B8F1670F70D131E00020B9F1110F00900A
:100C000001DB112301E009F101030AAA01A90CA8E3
:100C1000FFF7E2FEDDE90C70002609F101058346CD
:100C200047E001204B4600904FF000470AAA01A977
:100C30000CA8FFF7D1FEDDE90DB00C995D4600264A
:100C400010B909F101000D18B9EB050003D4C0F18A
:100C5000FF3609F10105A5EB09002BE0B9F1010F01
:100C600001DA4FF001090020B9F1110F0090484658
:100C700001DD112300E003460AAA01A90CA8FFF731
:100C8000ABFEDDE90C704D46002683462078000758
:100C90000AD4AB4500DA5D4601A8012D04DD4119F7
:100CA00011F8011C302907D04F4502DA17F1040F63
:100CB00004DA012082460FE06D1EEEE7002F02DC11
:100CC000ED1B3E4403E0781CA84200DD7D1CB81BF0
:100CD00000F1010A4FF000472078000703D4AA452D
:100CE00001DB4FF0FF3A0021B7F1004F0DF143084F
:100CF0008DF8431024D002202B23002F01DA7F42ED
:100D00002D230A21021EA0F1010000DC5FB197FB38
:100D1000F1FC97FBF1F201FB1C7C17460CF1300C47
:100D200008F801CDEEE7A8F101000370218809055C
:100D300001D5452100E06521A0F1010800F8011C62
:100D400009980FA9A1EB0807FF1D00B10120411967
:100D500001EBEA70A1693844081A401EA0612078AE
:100D6000C00602D42046FFF7F3FA099828B1D4E967
:100D700001219047206A401C20622078C00622D5BD
:100D80002046FFF7E5FA1EE0002E04DBB34502DD46
:100D900001A8805D00E03020D4E901219047206A5D
:100DA000401C2062761CAAF101005FEA000A0AD109
:100DB00000F038FAC0680168405CD4E9012190472E
:100DC000206A401C2062281EA5F10105DCDC07E03A
:100DD000D4E9012118F8010B9047206A401C2062D9
:100DE000381EA7F10107F3DC2046FFF7C7FA0320FE
:100DF00011B041E62DE9F04F04460D46D21D22F018
:100E0000070089B0D0E900974846394603F090FEC4
:100E10000246F80F01D02D2307E02068810701D595
:100E20002B2302E0202101EAC0038DF820300BB112
:100E3000012000E00020032A824601D0072A04DBBB
:100E40002946204600F0F2F93FE12078800601D4DF
:100E50000D2500E0E569C7F30A560D2D49DA00219A
:100E60004FEA175B08464FF00000002F00F44000E7
:100E700007DA00EB80004FF4400100EBD07001EA8C
:100E800060008115012901DD4FF0FF3100224FEA9A
:100E9000850CBCF1180F06D31346ACF118004FF0C7
:100EA0008052C24003E04FF4801323FA0CF30CF19C
:100EB0000C0CBCF1200F04D3ACF1200C09FA0CF09F
:100EC00001E007FA0CF000294FF0004801DD18B9E5
:100ED0000FE00ED140450CD319EB02095F4121B957
:100EE000404502D19F4329EA0209BBEB175F00D0BE
:100EF000761C2088000502D57B48784402E07A48B9
:100F00007844193808AA302302F80A30037C0AF121
:100F10000101002E0AF1020A53546A4602DC4FF026
:100F2000300101E04FF031014FF001088DF8001061
:100F300002D0A6F2FF3603E059EA470100D06B4E1B
:100F4000002D02DC2178090704D54FF002082E217C
:100F50008DF80110C44600210BE0C7F303433F01A5
:100F6000C35C491C6D1E02F80830052908F1010810
:100F700001DA002DF1DC00210CE000EB1973491CB3
:100F80001B786D1E082902F808304FEA091908F18C
:100F9000010801DA002DF0DC21688B0602D516E08D
:100FA000A8F10108E04505DD02EB080313F8013C58
:100FB000302BF5D0B8F1000F09DD02EB080313F870
:100FC000013C2E2B03D1090701D4A8F10108002D03
:100FD00005DD3E2102F808106D1E08F10108407C75
:100FE000002E02F8080008F1010804DA2D207642EC
:100FF00002F8080002E02B2002F808000A214FF452
:101000007A70864208F101080BDB96FBF0F330336F
:1010100002F8083096FBF0F308F1010800FB1366B4
:1010200001E0642E0CDB642096FBF0F3303302F811
:10103000083096FBF0F308F1010800FB136601E0AD
:101040000A2E06DB96FBF1F0303002F8080008F1BA
:10105000010896FBF1F001FB1060303002F8080047
:10106000A16908F1010808EB050202EB0A00081A61
:10107000A0612078C00602D42046FFF769F9216AF2
:1010800008AE01EB0A00206204E0D4E9012116F861
:10109000010B9047BAF1010AF7D22078C00602D5B9
:1010A0002046FFF755F96E4609E016F8010B3E2879
:1010B0000FD0D4E901219047206A401C2062B8F18A
:1010C0000108F2D22046FFF759F909B00320BDE824
:1010D000F08F206A2844206203E0D4E90121302007
:1010E00090476D1EEBD3F8E74A44000002FCFFFF77
:1010F00001694A1C02610878704700B58FB0CDE9DC
:1011000001310021059105497944CDE903101146CB
:101110006846FFF7FFFA0FB000BD0000E5FFFFFFD4
:1011200010B5436913B1AFF3008001E0FFF749F94F
:10113000012010BD127800F124010A7000224A70CB
:101140000122EDE711684FF0FF32E9E710B543697E
:1011500013B1AFF3008001E0FFF7BEF9012010BD2D
:10116000128800F1240182840022C2840122EDE76A
:1011700011684FF0FF32E9E7007B00F08000704714
:101180002DE9F04116460C46054600F043F8036889
:1011900093F80101012807D0FF2C12D8185D80B107
:1011A00001202C70BDE8F081D3F8070132462146BA
:1011B00003F20713C7182846BC46BDE8F0410023D8
:1011C00060474FF0FF30EDE7754600F0EBF8AE46B4
:1011D00005006946534620F00700854618B020B543
:1011E000FFF76EF8BDE820404FF000064FF0000713
:1011F0004FF000084FF0000BAC46ACE8C009ACE87B
:10120000C009ACE8C009ACE8C00921F007018D466F
:101210007047000010B500F005F8001D10BD00BFBC
:101220007539000000487047300000202DE9F0417A
:101230001F46044603260168072A01F4006004DB08
:1012400008B116A505E016A503E008B115A500E054
:1012500015A521F010002060A069C01EA0610FB18B
:10126000401EA0612046FFF773F84FB1D4E9012179
:1012700038469047206A401C2062C01C206206E06D
:10128000206AFAE7D4E9012115F8010B9047761E90
:10129000F8D22046FFF772F8BDE8F0814E414E00CB
:1012A0006E616E00494E4600696E66002DE9F0479A
:1012B000814616468AB0354878440DC88DE80D0041
:1012C00032487844801C03AC0DC884E80D0041F618
:1012D0009B300844372190FBF1F290FBF1F5A5F12A
:1012E000800501FB12041B3C02D56442012000E092
:1012F0000020DFF898A080460027FA44AAF1BE0A31
:101300000EE0E0070AD03246684607EB47010123AA
:101310000AEB810103F0D5FA8DE8070064107F1C09
:10132000002CEED1194F7F44AE3F19E0E80715D0ED
:1013300007EB04100DF1180A90E80E008AE80E0081
:10134000C068F04201D1981908903246012306A9DD
:1013500003A803F0B6FA03AB83E807006D10641C22
:10136000002DE3D14FF0010332466946B8F1000F7A
:1013700003A802D003F090FA01E003F0A2FAC9E951
:101380000001C9F808200AB0BDE8F0871C41000040
:1013900010B50446AFF300802046BDE81040FEF7CC
:1013A0007ABF000000487047100000204FF0013C59
:1013B00050F8042B51F8043B9A4221D1A2EB0C03C4
:1013C000934313EACC1317D150F8042B51F8043B84
:1013D0009A4215D1A2EB0C03934313EACC130BD121
:1013E00050F8042B51F8043B9A4209D1A2EB0C03AC
:1013F000934313EACC13DBD04FF00000704700BFDB
:10140000D01A01BAB1FA81F101F0180122FA01F003
:10141000CB40DBB2C0B2C01AC1F120012CFA01F3FB
:10142000D11A914311EAC311E6D17047014918203E
:10143000ABBEFEE72600020070470000FFE7FEE7B4
:1014400080B586B00590049140F2E000C2F2000041
:101450000078012843D1FFE740F2E001C2F2000129
:1014600000200290087040F2DC00C2F2000040F25E
:10147000D801C2F20001019102F0F0FB019800686E
:1014800001F09EFF059908600598006801F0BCFF17
:10149000049908600498006800F03CF802990390F1
:1014A000039803F03DFC60B9FFE7039803F08EFB5F
:1014B00002460B4645F24D40C0F60000FEF712FF13
:1014C0000CE00498006803F081FB02460B4645F2ED
:1014D0006F40C0F60000FEF705FFFFE7FFE706B02C
:1014E00080BD00007047000080B582B008200190E8
:1014F00000F0BCFA019840F21441C4F20101086006
:1015000002B080BD81B0EFF3108072B60090FFE7AB
:10151000FEE7000080B586B005900020049000F042
:101520009DFC0390059840F27801C2F20001096821
:1015300003F0F6FB68B9FFE7059840F27801C2F2C4
:101540000001086040F27001C2F200010120087041
:10155000FFE740F27000C2F200000078012864D179
:10156000FFE70598019040F27800C2F200000068A1
:101570004CF6CD41C3F64C7103F076FD014601985F
:1015800003F0C7FB002850D1FFE740F27800C2F219
:101590000000006840F20001C2F20001096803F097
:1015A000BFFBB0BBFFE7039840F27401C2F2000139
:1015B0000968401A02900298B0F5967F22D9FFE799
:1015C000029840F2DB5188421CD8FFE7029803F0F2
:1015D000CFFC014646F20000C4F26A7003F0BAFB89
:1015E000049040F27800C2F20000006849F69A11B7
:1015F000C3F6197103F038FD40F20001C2F2000198
:101600000860FFE7039840F27401C2F2000108602D
:10161000FFE740F27001C2F200010020087040F2C2
:101620007801C2F200010860FFE740F20000C2F258
:1016300000000090006847F6EE41C3F67F7103F0AA
:1016400013FD01460098016000680021C4F270118A
:1016500003F05FFB48B9FFE740F20001C2F200016E
:101660000020C4F270100860FFE7049806B080BD47
:1016700083B0019000208DF80300019890F82100BC
:1016800002280DD0FFE7019904208863FFE7019944
:10169000002081F82000FFE701208DF80B0021E0F9
:1016A00001980168086820F00E0008600198016840
:1016B000086820F0010008600198C16B026C0120ED
:1016C00090404860FFE70199012081F82100FFE781
:1016D0000199002081F82000FFE79DF803008DF8B4
:1016E0000B00FFE79DF80B0003B0704780B596B084
:1016F000159000208DF85300159890F821000228CD
:1017000007D0FFE715990420886301208DF8530066
:1017100074E115980168086820F00E0008601598BB
:101720000168086820F001000860159800688121B0
:10173000C4F202018842C0F0A880FFE71598006853
:101740000821C4F20201884203D1FFE7012013906F
:1017500094E0159800681C21C4F20201884203D16C
:10176000FFE71020129086E0159800683021C4F23F
:101770000201884204D1FFE74FF48070119077E0B6
:10178000159800684421C4F20201884204D1FFE7A1
:101790004FF48050109068E0159800685821C4F20A
:1017A0000201884204D1FFE74FF480300F9059E0E6
:1017B000159800686C21C4F20201884204D1FFE749
:1017C0004FF480100E904AE0159800688021C4F212
:1017D0000201884204D1FFE74FF080700D903BE09A
:1017E0001598006840F20841C4F20201884203D112
:1017F000FFE701200C902CE01598006840F21C4196
:10180000C4F20201884203D1FFE710200B901DE0D3
:101810001598006840F23041C4F20201884204D1B8
:10182000FFE74FF480700A900DE01598016840F2D0
:101830004442C4F202024FF48030914208BF4FF498
:1018400080500A90FFE70A980B90FFE70B980C90E6
:10185000FFE70C980D90FFE70D980E90FFE70E98AC
:101860000F90FFE70F981090FFE710981190FFE797
:1018700011981290FFE712981390FFE7139840F227
:101880000441C4F202010860A5E01598006808212F
:10189000C4F20201884203D1FFE70120099094E0DD
:1018A000159800681C21C4F20201884203D1FFE7A9
:1018B0001020089086E0159800683021C4F20201DB
:1018C000884204D1FFE74FF48070079077E01598C5
:1018D00000684421C4F20201884204D1FFE74FF4BA
:1018E0008050069068E0159800685821C4F2020103
:1018F000884204D1FFE74FF48030059059E01598F5
:1019000000686C21C4F20201884204D1FFE74FF461
:10191000801004904AE0159800688021C4F202010A
:10192000884204D1FFE74FF0807003903BE01598A8
:10193000006840F20841C4F20201884203D1FFE787
:10194000012002902CE01598006840F21C41C4F27E
:101950000201884203D1FFE7102001901DE0159895
:10196000006840F23041C4F20201884204D1FFE72E
:101970004FF4807000900DE01598016840F24442E9
:10198000C4F202024FF48030914208BF4FF48050FD
:101990000090FFE700980190FFE701980290FFE7B1
:1019A00002980390FFE703980490FFE704980590DE
:1019B000FFE705980690FFE706980790FFE707986E
:1019C0000890FFE708980990FFE709980421C4F2FE
:1019D00002010860FFE71599012081F82100FFE767
:1019E0001599002081F82000FFE71598406B20B181
:1019F000FFE71598416B8847FFE7FFE79DF8530025
:101A000016B080BD80B584B0039000F027FA029034
:101A1000039801900198013048B1FFE740F20800B7
:101A2000C2F200000178019808440190FFE7FFE747
:101A300000F014FA0299401A0199884201D2FFE796
:101A4000F6E704B080BD000081B0ADF80200BDF83B
:101A50000200082807D1FFE740F2E001C2F20001CE
:101A600001200870FFE701B07047000080B582B028
:101A7000ADF8060040F21440C4F201000068BDF861
:101A8000061008420CD0FFE7BDF8060040F21441F2
:101A9000C4F201010860BDF80600FFF7D5FFFFE7BB
:101AA00002B080BD92B01190109100200F900B9069
:101AB000FFE7109800680F99C840002800F09B814C
:101AC000FFE70F99012088400E90109800680E994A
:101AD00008400D900D980E99884240F08881FFE7EC
:101AE000109840680790002851D0FFE70798012818
:101AF0003AD0FFE7079802283FD0FFE7079803286E
:101B00005FD0FFE70798112832D0FFE70798122827
:101B100038D0FFE707980021C1F21101884236D082
:101B2000FFE707980021C1F2120188422FD0FFE79A
:101B300007980021C1F22101884228D0FFE70798C9
:101B40000021C1F22201884221D0FFE7079800213D
:101B5000C1F2310188421AD0FFE707980021C1F293
:101B60003201884213D02FE01098C0680B902CE00F
:101B70001098C06804300B9027E01098C0680830B7
:101B80000B9022E01098C0680C300B901DE010986C
:101B9000806818B9FFE704200B9011E01098806866
:101BA000012806D1FFE708200B900E9811990861D3
:101BB00005E008200B900E9811994861FFE7FFE7B8
:101BC00003E000200B9000E0FFE70D98FF2803D80A
:101BD000FFE71198069003E0119804300690FFE7A4
:101BE00006980A900D98FF2804D8FFE70F98800008
:101BF000059006E00F996FF01F0000EB8100059043
:101C0000FFE7059809900A980068099A0F2191400A
:101C100088430B99914008430A9908601098C0794D
:101C2000C006002840F1E280FFE7FFE741F218001C
:101C3000C4F20200016841F001010160006800F097
:101C4000010008900898FFE70F9820F00300082192
:101C5000C4F2010140580C900F9800F0030081007D
:101C60000F2000FA01F10C9888430C90119840F66F
:101C70000001C4F20101884203D1FFE70020049073
:101C800042E0119840F60041C4F20101884203D1BC
:101C9000FFE70120039034E0119841F20001C4F203
:101CA0000101884203D1FFE70220029026E011984B
:101CB00041F20041C4F20101884203D1FFE7032051
:101CC000019018E0119841F60001C4F20101884228
:101CD00003D1FFE7042000900AE0119941F6004289
:101CE000C4F201020620914208BF05200090FFE7E0
:101CF00000980190FFE701980290FFE70298039097
:101D0000FFE703980490FFE704980F9901F003019F
:101D1000890000FA01F10C9808430C900C980F9977
:101D200021F003010822C4F2010288501098807942
:101D3000C006002809D5FFE70D9A40F20841C4F219
:101D4000010108681043086008E00D9A40F208415C
:101D5000C4F20101086890430860FFE71098807999
:101D60008006002809D5FFE70D9A40F20C41C4F225
:101D7000010108681043086008E00D9A40F20C4128
:101D8000C4F20101086890430860FFE71098807969
:101D90008007002809D5FFE70D9A40F20441C4F2FC
:101DA000010108681043086008E00D9A40F2044100
:101DB000C4F20101086890430860FFE71098807939
:101DC000C00748B1FFE70D9A40F20041C4F201019B
:101DD00008681043086008E00D9A40F20041C4F220
:101DE0000101086890430860FFE7FFE7FFE70F98ED
:101DF00001300F905DE612B07047000082B0019094
:101E0000ADF8021001988068BDF80210084204D0B5
:101E1000FFE701208DF8010003E000208DF80100AC
:101E2000FFE79DF8010002B07047000082B001900A
:101E3000ADF802108DF801209DF8010028B1FFE7F0
:101E4000BDF802000199086105E0BDF80200000438
:101E500001990861FFE702B07047000040F2881066
:101E6000C2F200000068704780B58EB00C900C98EC
:101E700020B9FFE701208DF8370043E10C9890F876
:101E80003D0040B9FFE70C99002081F83C000C9818
:101E900000F03CF9FFE70C99242081F83D000C98F4
:101EA0000168086820F0010008600C980168086863
:101EB00040F4004008600C980168086820F4004075
:101EC000086000F04DFB0A900C98406848F2A06151
:101ED000C0F2010188420BD8FFE70A9948F280421C
:101EE000C0F21E020020914238BF012009900AE092
:101EF0000A9940F60012C0F23D020020914238BF1C
:101F000001200990FFE70998012804D1FFE701208B
:101F10008DF83700F6E00A984DF68361C4F21B3164
:101F2000A0FB0110800C0B900C980068406820F01A
:101F30003F000B9908430C99096848600C980068A9
:101F4000006A20F03F0008900C98406848F2A061B9
:101F5000C0F20101884204D8FFE70B9801300790D6
:101F60000EE00B984FF49671484344F6D351C1F2FA
:101F70006201A0FB0101012000EB91100790FFE737
:101F80000898079908430C99096808620C9800683A
:101F9000C0694CF6FF71884306900C98406848F27F
:101FA000A061C0F2010188421FD8FFE70A980138FA
:101FB0000C9949684900B0FBF1F001306FF31F3014
:101FC000032803D8FFE7042005900BE00A980138A6
:101FD0000C9949684900B0FBF1F001306FF31F30F4
:101FE0000590FFE7059804904CE00C98806868B96C
:101FF000FFE70A9801380C99496801EB4101B0FBF1
:10200000F1F001306FF31F3003900DE00A980138B2
:102010000C99496819225143B0FBF1F001300421B9
:1020200061F31F300390FFE70398000518B9FFE73D
:102030000120029023E00C98806868B9FFE70A98B5
:1020400001380C99496801EB4101B0FBF1F0013016
:102050006FF31F3001900DE00A9801380C99496820
:1020600019225143B0FBF1F00130042161F31F301C
:102070000190FFE7019840F400400290FFE70298CA
:102080000490FFE70698049908430C990968C86111
:102090000C980068006820F0C0000C9B1968DA6991
:1020A0001B6A1A43104308600C980068806848F265
:1020B000FF3188430C9A1168D36812691A431043A0
:1020C00088600C980068C06820F0FF000C9B1968BD
:1020D0005A699B691A431043C8600C9801680868E4
:1020E00040F0010008600C99002008640C9A20213F
:1020F00082F83D100C9908630C9981F83E008DF828
:102100003700FFE79DF837000EB080BD80B588B07E
:1021100007900020069005900490039007980068AF
:1021200045F20041C4F2000188422CD1FFE7FFE7ED
:1021300041F21800C4F20200016841F00801016098
:10214000006800F0080002900298FFE7C0200390AA
:10215000122004900320069040F60040C4F20100D3
:1021600003A9FFF79FFCFFE741F21C00C4F2020045
:10217000016841F400110160006800F40010019052
:102180000198FFE7FFE708B080BD000040F20800BB
:10219000C2F20000027840F28811C2F20001086821
:1021A000104408607047000080B542F20001C4F29C
:1021B0000201086840F010000860032000F096F863
:1021C0000F2000F005F800F03BF8002080BD000073
:1021D00080B582B0009040F20400C2F200000068B6
:1021E00040F20801C2F200010A784FF47A71B1FBA3
:1021F000F2F1B0FBF1F000F073FD20B1FFE7012038
:102200008DF8070018E000980F280DD8FFE7009917
:102210004FF0FF30002200F04FF8009840F20C0120
:10222000C2F20001086003E001208DF8070003E01E
:1022300000208DF80700FFE79DF8070002B080BD81
:1022400083B0FFE741F21800C4F20200016841F0D8
:1022500001010160006800F0010002900298FFE7B0
:10226000FFE741F21C00C4F20200016841F0805116
:102270000160006800F0805001900198FFE7FFE7DF
:102280000421C4F2010108680090009820F0E06089
:102290000090009840F00070009000980860FFE700
:1022A00003B0704780B582B08DF807009DF9070034
:1022B00001F074FC02B080BD80B586B08DF81700C7
:1022C000049103920020029001F080FC02909DF99D
:1022D0001700019002980499039A01F05DF90146F4
:1022E000019801F07BFC06B080BD000080B582B093
:1022F0000190019801F094FC02B080BD80B584B0DB
:1023000002900191029820B9FFE701208DF80F009B
:102310001BE1019842F20001C4F20201096801F0D8
:102320000701884216D9FFE742F20000C4F202001A
:10233000016821F00701019A11430160006800F073
:1023400007000199884204D0FFE701208DF80F00B3
:10235000FBE0FFE702980078800700282AD5FFE716
:10236000029800784007002809D5FFE741F20401F0
:10237000C4F20201086840F4E0600860FFE70298D8
:1023800000780007002809D5FFE741F20401C4F2F4
:102390000201086840F460500860FFE741F2040160
:1023A000C4F20201086820F0F000029A926810431B
:1023B0000860FFE702980078C007002860D0FFE7B8
:1023C0000298406801280ED1FFE741F20000C4F2F4
:1023D000020000688003002804D4FFE701208DF884
:1023E0000F00B2E021E00298406802280ED1FFE71A
:1023F00041F20000C4F2020000688001002804D409
:10240000FFE701208DF80F009FE00DE041F2000092
:10241000C4F2020000688007002804D4FFE701200E
:102420008DF80F0091E0FFE7FFE741F20401C4F2ED
:102430000201086820F00300029A52681043086005
:10244000FFF70CFD0090FFE741F20400C4F2020028
:10245000006800F00C0002994968B0EB810F0ED0C3
:10246000FFE7FFF7FBFC0099401A41F289318842EF
:1024700004D3FFE703208DF80F0066E0E4E7FFE7F1
:10248000019842F20001C4F20201096801F007015B
:10249000884216D2FFE742F20000C4F2020001684F
:1024A00021F00701019A11430160006800F0070064
:1024B0000199884204D0FFE701208DF80F0044E025
:1024C000FFE702980078400700280CD5FFE741F2AB
:1024D0000401C4F20201086820F4E060029AD268A4
:1024E00010430860FFE702980078000700280DD528
:1024F000FFE741F20401C4F20201086820F46050D1
:10250000029A126940EAC2000860FFE700F04CF846
:1025100041F20401C4F202010968C9B20A0945F294
:10252000F031C0F60001895CC84040F20401C2F2FB
:102530000001086040F20C00C2F200000068FFF7E2
:1025400047FE00208DF80F00FFE79DF80F0004B054
:1025500080BD000040F20400C2F200000068704735
:1025600080B5FFF7F7FF41F20401C4F202010968E8
:10257000C1F3022245F20041C0F60001895CC84067
:1025800080BD000080B5FFF7E5FF41F20401C4F211
:1025900002010968C1F3C22245F20041C0F6000100
:1025A000895CC84080BD000086B000200590049082
:1025B00003900290019041F20400C4F2020000680E
:1025C0000590059800F00C000146009100283FD0CE
:1025D000FFE70098042804D0FFE70098082806D0F9
:1025E00037E041F20020C0F27A00019037E0059810
:1025F000C0F3834145F20840C0F60000405C029001
:102600009DF81600C007C0B1FFE741F20400C4F214
:1026100002000068C0F3404145F21840C0F60000D7
:10262000405C0490029841F20021C0F27A014843D4
:102630000499B0FBF1F0039007E0029840F6001116
:10264000C0F23D0148430390FFE70398019006E084
:10265000FFE741F20020C0F27A000190FFE7019805
:1026600006B0704780B586B00490049820B9FFE7A3
:1026700001208DF817002EE304980078C007002889
:1026800000F0AE80FFE741F20400C4F202000068EF
:1026900000F00C00042813D0FFE741F20400C4F25C
:1026A0000200006800F00C0008281BD1FFE741F28F
:1026B0000400C4F202000068C003002812D5FFE73E
:1026C00041F20000C4F2020000688003002808D52F
:1026D000FFE70498406820B9FFE701208DF8170054
:1026E000F9E27CE0FFE704984068B0F5803F09D14B
:1026F000FFE741F20001C4F20201086840F48030B3
:10270000086032E00498406868B9FFE741F20001D0
:10271000C4F20201086820F480300860086820F4E0
:102720008020086020E004984068B0F5A02F0DD10B
:10273000FFE741F20001C4F20201086840F4802082
:102740000860086840F4803008600CE041F2000145
:10275000C4F20201086820F480300860086820F4A0
:1027600080200860FFE7FFE7FFE7FFE70498406885
:10277000D0B1FFE7FFF772FB0390FFE741F20000E3
:10278000C4F202000068800300280CD4FFE7FFF7C2
:1027900065FB0399401A652804D3FFE703208DF8F1
:1027A000170098E2EAE719E0FFF758FB0390FFE70C
:1027B00041F20000C4F202000068800300280CD53A
:1027C000FFE7FFF74BFB0399401A652804D3FFE7A7
:1027D00003208DF817007EE2EAE7FFE7FFE7FFE757
:1027E000049800788007002840F18D80FFE741F2CF
:1027F0000400C4F20200006810F00C0F13D0FFE7D1
:1028000041F20400C4F20200006800F00C00082845
:1028100029D1FFE741F20400C4F202000068C003BE
:10282000002820D4FFE741F20000C4F20200006853
:102830008007002809D5FFE704980069012804D023
:10284000FFE701208DF8170045E241F20001C4F2D4
:102850000201086820F0F800049A526940EAC200B8
:102860000860FFE74EE00498006958B3FFE70021D5
:10287000C4F2422101200860FFF7F0FA0390FFE75D
:1028800041F20000C4F202000068800700280CD466
:10289000FFE7FFF7E3FA0399401A032804D3FFE7A1
:1028A00003208DF8170016E2EAE741F20001C4F2B6
:1028B0000201086820F0F800049A526940EAC20058
:1028C00008601EE00021C4F2422100200860FFF7EA
:1028D000C5FA0390FFE741F20000C4F2020000686D
:1028E000800700280CD5FFE7FFF7B8FA0399401AD4
:1028F000032804D3FFE703208DF81700EBE1EAE794
:10290000FFE7FFE7FFE7049800780007002848D5B5
:10291000FFE70498806918B3FFE740F28041C4F2F2
:10292000422101200860FFF799FA0390FFE741F286
:102930002400C4F202000068800700280CD4FFE7DE
:10294000FFF78CFA0399401A032804D3FFE703200A
:102950008DF81700BFE1EAE7012000F055FE1FE007
:1029600040F28041C4F2422100200860FFF776FA6D
:102970000390FFE741F22400C4F2020000688007E0
:1029800000280CD5FFE7FFF769FA0399401A0328DE
:1029900004D3FFE703208DF817009CE1EAE7FFE787
:1029A000FFE7049800784007002840F1D880FFE74F
:1029B00000208DF8070041F21C00C4F202000068FC
:1029C000C000002813D4FFE7FFE741F21C00C4F267
:1029D0000200016841F080510160006800F0805001
:1029E00000900098FFE701208DF80700FFE747F20D
:1029F0000000C4F200000068C005002822D4FFE7F0
:102A000047F20001C4F20001086840F480700860D9
:102A1000FFF724FA0390FFE747F20000C4F200003A
:102A20000068C00500280CD4FFE7FFF717FA0399E8
:102A3000401A652804D3FFE703208DF817004AE108
:102A4000EAE7FFE7FFE70498C068012809D1FFE73C
:102A500041F22001C4F20201086840F00100086060
:102A600031E00498C06868B9FFE741F22001C4F280
:102A70000201086820F001000860086820F00400E6
:102A800008601FE00498C06805280DD1FFE741F2F7
:102A90002001C4F20201086840F0040008600868E0
:102AA00040F0010008600CE041F22001C4F2020194
:102AB000086820F001000860086820F00400086041
:102AC000FFE7FFE7FFE7FFE70498C068E0B1FFE733
:102AD000FFF7C4F90390FFE741F22000C4F20200BF
:102AE0000068800700280ED4FFE7FFF7B7F90399C5
:102AF000401A41F28931884204D3FFE703208DF860
:102B00001700E8E0E8E71BE0FFF7A8F90390FFE70C
:102B100041F22000C4F202000068800700280ED5B0
:102B2000FFE7FFF79BF90399401A41F28931884288
:102B300004D3FFE703208DF81700CCE0E8E7FFE7B8
:102B40009DF80700012809D1FFE741F21C01C4F2FA
:102B50000201086820F080500860FFE7FFE7049852
:102B6000C069002800F0B380FFE741F20400C4F21E
:102B70000200006800F00C00082800F08280FFE7E7
:102B80000498C06902285CD1FFE76021C4F24221A9
:102B900000200860FFF762F90390FFE741F20000B0
:102BA000C4F202000068800100280CD5FFE7FFF79F
:102BB00055F90399401A032804D3FFE703208DF841
:102BC000170088E0EAE70498006AB0F5803F0CD16E
:102BD000FFE741F20401C4F20201086820F400306A
:102BE000049A926810430860FFE741F20401C4F2BE
:102BF0000201086820F47410049B1A6A5B6A1A4385
:102C0000104308606021C4F2422101200860FFF7F0
:102C100025F90390FFE741F20000C4F202000068CA
:102C2000800100280CD4FFE7FFF718F90399401A38
:102C3000032804D3FFE703208DF817004BE0EAE7F1
:102C40001EE06021C4F2422100200860FFF706F96F
:102C50000390FFE741F20000C4F202000068800127
:102C600000280CD5FFE7FFF7F9F80399401A03286D
:102C700004D3FFE703208DF817002CE0EAE7FFE715
:102C800024E00498C069012804D1FFE701208DF8F1
:102C9000170020E041F20400C4F202000068029034
:102CA000029800F480300499096A884208D1FFE74D
:102CB000029800F470100499496A884204D0FFE732
:102CC00001208DF8170006E0FFE7FFE7FFE700208F
:102CD0008DF81700FFE79DF8170006B080BD0000D3
:102CE00080B582B00190019800F0AEFC02B080BDCA
:102CF00082B00190ADF8021002B0704781B0009030
:102D000001B0704780B592B01190119800680068CA
:102D1000109011980068C0680F9011980068406981
:102D20000E9000200D900C90109800F00F000D9068
:102D30000D9888B9FFE79DF84000800600280AD565
:102D4000FFE79DF83C008006002804D5FFE71198B6
:102D500000F04EFDE9E1FFE70D98002800F0C28089
:102D6000FFE79DF83800C00738B9FFE7BDF83C0021
:102D700010F4907F00F0B680FFE79DF84000C00798
:102D800058B1FFE79DF83D00C00730B1FFE711994A
:102D9000486C40F001004864FFE79DF840004007A0
:102DA00000280BD5FFE79DF83800C00730B1FFE7DA
:102DB0001199486C40F002004864FFE79DF840001C
:102DC000800700280BD5FFE79DF83800C00730B119
:102DD000FFE71199486C40F004004864FFE79DF854
:102DE00040000007002811D5FFE79DF83C00800651
:102DF000002805D4FFE79DF83800C00730B1FFE791
:102E00001199486C40F008004864FFE71198406C45
:102E1000002866D0FFE79DF84000800600280AD50C
:102E2000FFE79DF83C008006002804D5FFE71198D5
:102E300000F0DEFCFFE7119800684069C0F38010E5
:102E40000C901198406C0007002804D4FFE70C9800
:102E500000283ED0FFE7119800F06CFC1198006844
:102E60004069400600282FD5FFE7FFE7FFE71198EC
:102E7000006850E8050F20F040000B90FFE70B9929
:102E80001198026842E805100028F0D1FFE7FFE73B
:102E90001198C06B98B1FFE71198C16B43F21570A0
:102EA000C0F6000048631198C06BFEF71FFC28B104
:102EB000FFE71198C06B416B8847FFE703E011986B
:102EC000FFF71CFFFFE703E01198FFF717FFFFE78D
:102ED00006E01198FFF712FF119900204864FFE700
:102EE000FFE722E11198006B012840F0FE80FFE728
:102EF0009DF84000C006002840F1F780FFE79DF8EC
:102F00003C00C006002840F1F080FFE7FFE700200A
:102F10000A901198006800680A901198006840684B
:102F20000A900A98FFE71198006840694006002857
:102F300040F18180FFE71198C06B00684068ADF8F0
:102F40002600BDF82600002874D0FFE7BDF8260053
:102F50001199898D88426DDAFFE7BDF82600119935
:102F6000C8851198C06B8069202858D0FFE7FFE71B
:102F7000FFE71198006850E8030F20F48070089074
:102F8000FFE708991198026842E803100028F0D181
:102F9000FFE7FFE7FFE7FFE71198006850E8050F3C
:102FA00020F001000790FFE707991198026842E8B6
:102FB00005100028F0D1FFE7FFE7FFE7FFE71198D2
:102FC000006850E8050F20F040000690FFE70699E2
:102FD0001198026842E805100028F0D1FFE7FFE7EA
:102FE0001199202081F84200119900200863FFE721
:102FF000FFE71198006850E8030F20F010000590DB
:10300000FFE705991198026842E803100028F0D103
:10301000FFE7FFE71198C06BFEF72AFBFFE7119966
:10302000022048631198818DC28D891A89B2FFF7F9
:103030005FFEFFE779E01199888DC98D401AADF8E0
:1030400012001198C08D00284ED0FFE7BDF8120085
:10305000002849D0FFE7FFE7FFE71198006850E834
:10306000030F20F490700390FFE703991198026812
:1030700042E803100028F0D1FFE7FFE7FFE7FFE792
:103080001198006850E8050F20F001000290FFE75A
:1030900002991198026842E805100028F0D1FFE774
:1030A000FFE71199202081F8420011990020086360
:1030B000FFE7FFE71198006850E8030F20F01000C9
:1030C0000190FFE701991198026842E80310002877
:1030D000F0D1FFE7FFE71199022048631198BDF88E
:1030E0001210FFF705FEFFE71FE09DF84000000605
:1030F00000280AD5FFE79DF83C000006002804D50B
:10310000FFE7119800F088FC0FE09DF840004006B2
:1031100000280AD5FFE79DF83C004006002804D5AA
:10312000FFE7119800F050FBFFE712B080BD0000F0
:1031300080B582B00090009820B9FFE701208DF89B
:10314000070040E00098806908B1FFE700E0FFE772
:10315000009890F8410040B9FFE70099002081F8FD
:103160004000009800F034F8FFE70099242081F82F
:10317000410000980168C86820F40050C8600098B9
:1031800000F0ECFB00980168086920F490400861A9
:1031900000980168486920F02A0048610098016899
:1031A000C86840F40050C860009900204864009A44
:1031B000202182F84110009A82F842100099486359
:1031C0008DF80700FFE79DF8070002B080BD000002
:1031D00080B58CB00B9000200A9009900890079061
:1031E0000B98006843F60001C4F20101884243D104
:1031F000FFE7FFE741F21800C4F20200016841F462
:1032000080410160006800F4804006900698FFE766
:10321000FFE741F21800C4F20200016841F0040126
:103220000160006800F0040005900598FFE74FF486
:10323000007007900220089003200A9040F60000DA
:10324000C4F20100019007A90291FEF72BFC01983E
:1032500002994FF480620792002203920892099229
:10326000FEF720FC039A252004901146FFF724F86E
:103270000498FFF717F8FFE70CB080BD81B000900D
:1032800001B0704780B58AB008900791ADF81A2058
:10329000059300200290089890F84100202840F003
:1032A0008180FFE7079820B1FFE7BDF81A0020B939
:1032B000FFE701208DF8270078E008990020486496
:1032C0000899212081F84100FEF7C8FD0290BDF861
:1032D0001A0008998884BDF81A000899C8840898CB
:1032E0008068B0F5805F09D1FFE70898006928B9C8
:1032F000FFE7002004900798039004E007980490EB
:1033000000200390FFE7FFE70898C08C78B3FFE741
:103310000898029B05996A4611608021002200F0FE
:10332000C5FB40B1FFE70899202081F84100032048
:103330008DF827003AE0049858B9FFE70398008811
:103340006FF35F2008990968486003980230039082
:1033500008E00498007808990968486004980130EA
:103360000490FFE70899C88C0138C884CCE7089816
:10337000029B05996A4611604021002200F096FBED
:1033800040B1FFE70899202081F8410003208DF823
:1033900027000BE00899202081F8410000208DF8DB
:1033A000270003E002208DF82700FFE79DF82700A3
:1033B0000AB080BD81B0009001B07047FFE7FEE722
:1033C00080B586B00590002004900598019040F2E9
:1033D0007C00C2F200000290006843F23331C3F671
:1033E000737101F041FE019901F01CFC02990490F7
:1033F0000498096801F004FF02990390049808609A
:10340000039806B080BD000080B586B0059000200E
:1034100004900598019040F28000C2F200000390F1
:10342000006846F26661C3F6667101F01DFE014652
:10343000019802914CF6CD41C3F6CC5101F014FE37
:10344000029901F0EFFB0399049004980860049836
:1034500006B080BD80B58CB000200B900A9009901A
:103460000890FFE741F21800C4F20200016841F041
:1034700004010160006800F0040007900798FFE76E
:10348000FFE741F21800C4F20200016841F0200198
:103490000160006800F0200006900698FFE7FFE753
:1034A00041F21800C4F20200016841F00801016015
:1034B000006800F0080005900598FFE740F600005E
:1034C000C4F2010002900C21019100220392FEF748
:1034D000ADFC0199029808911121099101210A91ED
:1034E00002210B9108A90491FEF7DCFA03980499D4
:1034F0000822089209900A9041F20040C4F20100AB
:10350000FEF7D0FA0CB080BD80B582B040F2E40086
:10351000C2F20000019045F20041C4F200010160D6
:1035200048F2A061C0F20101416000218160C160E8
:103530004FF48042026141618161C1610162FEF725
:1035400093FC18B1FFE7FDF7DDFFFFE702B080BD98
:1035500080B582B040F23810C2F20000019043F60C
:103560000001C4F2010101604FF4E131416000212A
:103570008160C16001610C2242618161C161FFF71C
:10358000D7FD18B1FFE7FDF7BDFFFFE702B080BD33
:10359000FFE7FEE7FFE7FEE788B007900691059298
:1035A000079800F0070004900498C0F10700052870
:1035B00003D3FFE70420019004E00498C0F1070062
:1035C0000190FFE70198039004980430062803D87F
:1035D000FFE70020009003E0049803380090FFE725
:1035E0000098029006980399012202FA01F101392C
:1035F0000840029B984005999A40013A11400843BF
:1036000008B070477047000082B00190019840F206
:103610000401C2F200010968C90844F6D352C1F29C
:103620006202A1FB0221890948430090FFE700BF25
:10363000FFE70098411E00910028F8D1FFE702B093
:10364000704700007047000080B582B0009000987D
:103650000138B0F1807F03D3FFE70120019019E02A
:10366000009801384EF21401CEF2000108604FF0CC
:10367000FF300F2100F0B2FA4EF21801CEF2000135
:10368000002008604EF21002CEF200020721116005
:103690000190FFE7019802B080BD000080B5FEF701
:1036A00075FD80BD80B590B006A800902821FCF77C
:1036B00025FE00980023059304930393029301933E
:1036C000012206924FF48031079108930A92022258
:1036D0000D920E914FF4E0110F91FEF7C3FF18B158
:1036E000FFE7FDF70FFFFFE70F2001900221029196
:1036F000002003904FF480620492059001A8FEF729
:10370000FDFD18B1FFE7FDF7FDFEFFE710B080BD3E
:103710007047000080B582B001900198406A009027
:1037200000990020C8850099C8840098FFF7E6FA40
:1037300002B080BD84B00390FFE7FFE70398006804
:1037400050E8030F20F490700290FFE7029903986D
:10375000026842E803100028F0D1FFE7FFE7FFE727
:10376000FFE70398006850E8050F20F00100019082
:10377000FFE701990398026842E805100028F0D19C
:10378000FFE7FFE70398006B012814D1FFE7FFE78D
:10379000FFE70398006850E8030F20F01000009046
:1037A000FFE700990398026842E803100028F0D16F
:1037B000FFE7FFE7FFE70399202081F84200039924
:1037C0000020086304B0704780B582B00190019872
:1037D0000168C86820F04000C8600199202081F885
:1037E00041000198FFF7E6FD002002B080BD000017
:1037F00080B586B00490049890F84200222840F0EA
:10380000A480FFE704988068B0F5805F15D1FFE7DA
:103810000498006988B9FFE7002003900498806A43
:1038200002900498006840686FF35F200299088056
:103830000499886A0230886225E00498806A0390BF
:103840000020029004988068B0F5805F08D0FFE700
:103850000498806850B9FFE70498006930B9FFE721
:103860000498006840680399087007E004980068AD
:10387000406800F07F0003990870FFE70499886AA8
:1038800001308862FFE70499C88D0138C8850004BB
:10389000002856D1FFE704980168C86820F020008E
:1038A000C86004980168C86820F48070C8600498F3
:1038B0000168486920F0010048610499202081F8DE
:1038C00042000499002048630498006B012830D11D
:1038D000FFE7049900200863FFE7FFE7049800680A
:1038E00050E8030F20F010000190FFE701990498C1
:1038F000026842E803100028F0D1FFE7FFE70498D0
:1039000000680068C00600280ED5FFE7FFE700202A
:10391000009004980068006800900498006840686F
:1039200000900098FFE7FFE70498818DFFF7E0F92A
:1039300003E00498FFF7A2FCFFE700208DF81700D2
:1039400007E000208DF8170003E002208DF8170033
:10395000FFE79DF8170006B080BD000080B584B079
:10396000039003980068006920F44050039A11689E
:10397000D26810430861039988680A69496910434D
:103980000843029003980068C06841F20C618843C4
:103990000299084303990968C86003980068406960
:1039A00020F44070039A11689269104348610398AB
:1039B000006843F60001C4F20101884204D1FFE728
:1039C000FEF7E0FD019003E0FEF7CAFD0190FFE77E
:1039D000019819214843039A116852689200B0FB7C
:1039E000F2FC48F21F52C5F2EB12ACFB0230430965
:1039F000642003FB10CC322000EB0C10A0FB020271
:103A0000F02000EA521000EB0310C2F343121044FE
:103A1000886004B080BD000083B00190019890F8E8
:103A2000410021283AD1FFE701988068B0F5805F16
:103A300013D1FFE70198006978B9FFE70198006AA0
:103A40000090009800886FF35F2001990968486032
:103A50000199086A0230086208E0019A106A411C64
:103A600011620078019909684860FFE70199C88CE4
:103A70000138C884000468B9FFE701980168C86884
:103A800020F08000C86001980168C86840F04000DC
:103A9000C860FFE700208DF80B0003E002208DF8DE
:103AA0000B00FFE79DF80B0003B0704780B586B0B0
:103AB000DDF820C0049003918DF80B200193FFE7FF
:103AC00004980068006803990840401AB0FA80F032
:103AD00040099DF80B1088424DD1FFE7089801304E
:103AE000002847D0FFE7FEF7B9F90199401A089975
:103AF000884203D8FFE7089820B9FFE703208DF834
:103B000017003CE004980068C0684007002830D5E2
:103B1000FFE7039880282CD0FFE70398402828D09F
:103B2000FFE704980068006800F008010120B0EB8E
:103B3000D10F1DD1FFE7FFE7002000900498006837
:103B40000068009004980068406800900098FFE7C3
:103B50000498FFF7EFFD049908204864FFE70499F3
:103B6000002081F84000FFE701208DF8170006E0F3
:103B7000FFE7FFE7A4E700208DF81700FFE79DF8B7
:103B8000170006B080BD000080B540F23810C2F2C8
:103B90000000FFF7B7F880BDFFE7FEE781B08DF8C2
:103BA00003009DF9030000280ED4FFE79DF90310E0
:103BB00001F01F02012090404A094EF20011CEF29E
:103BC000000141F82200FFE701B070474EF60C50AB
:103BD000CEF200000068C0F30220704782B08DF87A
:103BE000070000919DF9070000280AD4FFE700981C
:103BF00000019DF907104EF20042CEF200028854F7
:103C00000BE0009800019DF8071001F00F014EF63F
:103C10001452CEF200028854FFE702B07047000051
:103C200083B00290029800F0070000904EF60C510D
:103C3000CEF200010868019001984FF6FF02104093
:103C400001900198009A40EA02200022C0F2FA5244
:103C5000104301900198086003B0704780B584B0AC
:103C600003900291002000F091F8012000F08EF8FE
:103C700007200DF10201062200F0CCF89DF80200A9
:103C80009DF803209DF80410000440EA0220084437
:103C90006FF39F4001F054F9039908609DF8050007
:103CA0009DF806209DF80710000440EA0220084411
:103CB0006FF39F4001F044F90299086004B080BDA1
:103CC00080B58CB0FFE7FFE741F21800C4F20200B4
:103CD000016841F020010160006800F020000790B9
:103CE0000798FFE7FFE70820019008900020C1F245
:103CF00021000990012006900A9041F20040C4F290
:103D0000010008A9FDF7CEFE0920039000210591CE
:103D100002220092FEF7D0FA0398FEF7C3FA00F0F1
:103D20006BF900F0CFF80098C02100F0D5F80599A4
:103D30000320029000F0D0F80599042000F0CCF8A0
:103D40000599052000F0C8F80599062000F0C4F890
:103D500001986F2100F0C0F80299039800F0BCF8B8
:103D60000A202F2100F0B8F80C203021049100F037
:103D7000B3F804990D2000F0AFF8059800F006F8AC
:103D8000069800F003F80CB080BD000080B582B04A
:103D90008DF8060000208DF8050000F03BFAAE20FB
:103DA00000F0E0F900F08CFA30B1FFE700F062FAC1
:103DB00001208DF8070028E09DF8060000F0D2F9F8
:103DC00000F07EFA30B1FFE700F054FA01208DF8E0
:103DD00007001AE000F01EFAAF2000F0C3F900F06F
:103DE0006FFA30B1FFE700F045FA01208DF80700C7
:103DF0000BE0002000F066F98DF8050000F03AFABB
:103E00009DF805008DF80700FFE79DF8070002B058
:103E100080BD000080B584B08DF80B0001918DF855
:103E2000032000F0F7F9AE2000F09CF900F048FA0A
:103E300028B1FFE700F01EFA012003903FE09DF853
:103E40000B0000F08FF900F03BFA28B1FFE700F01B
:103E500011FA0120039032E000F0DCF9AF2000F00D
:103E600081F900F02DFA28B1FFE700F003FA0120F4
:103E7000039024E000208DF80200FFE79DF8020087
:103E80009DF80310884215DAFFE79DF802009DF8BF
:103E900003100139401A18BF012000F013F90199ED
:103EA0009DF802208854FFE79DF8020001308DF84C
:103EB0000200E3E700F0DEF900200390FFE703983B
:103EC00004B080BD80B50920402100F005F80A202B
:103ED000FDF798FD80BD000080B582B08DF806002A
:103EE0008DF8051000F096F9AE2000F03BF900F0D7
:103EF000E7F930B1FFE700F0BDF901208DF80700C8
:103F000021E09DF8060000F02DF900F0D9F930B15C
:103F1000FFE700F0AFF901208DF8070013E09DF8EE
:103F2000050000F01FF900F0CBF930B1FFE700F019
:103F3000A1F901208DF8070005E000F09BF90020B1
:103F40008DF80700FFE79DF8070002B080BD000074
:103F500080B582B00190009140F23810C2F20000AA
:103F600001A901224FF6FF73FFF78CF9019802B007
:103F700080BD000080B5FFE740F60000C4F20100FC
:103F800004210022FDF752FFFFE700F025F8FFE7CC
:103F900040F60000C4F2010008210122FDF746FFAF
:103FA000FFE700F019F8FFE740F60000C4F2010057
:103FB00008210022FDF73AFFFFE700F00DF8FFE7C8
:103FC00040F60000C4F2010004210122FDF72EFF9B
:103FD000FFE700F001F880BD81B000200090FFE70E
:103FE00000981D2805DCFFE7FFE7009801300090EE
:103FF000F6E701B07047000080B588B0FFE7FFE743
:1040000041F21800C4F20200016841F004010160AD
:10401000006800F0040003900398FFE7FFE7FFE764
:10402000FFE741F21800C4F20200016841F0040108
:104030000160006800F0040002900298FFE7FFE7CB
:10404000082004900120059006900320079040F678
:104050000000C4F20100009004A90191FDF722FDC7
:10406000009801990422049211220592FDF71AFD8D
:1040700000F000F908B080BD80B5FFE740F6000011
:10408000C4F2010004210122FDF7D0FEFFE7FFF793
:10409000A3FFFFE740F60000C4F20100082101225F
:1040A000FDF7C4FEFFE7FFF797FFFFE740F60000CC
:1040B000C4F2010008210022FDF7B8FEFFE7FFF778
:1040C0008BFF80BD80B582B08DF8070000208DF891
:1040D00005008DF80600FFE79DF80600072833DC91
:1040E000FFE79DF8050040008DF80500FFE740F66A
:1040F0000000C4F2010008210122FDF797FEFFE74E
:10410000FFF76AFF40F60000C4F201000421FDF74A
:1041100075FE30B1FFE79DF8050001308DF8050010
:10412000FFE7FFE740F60000C4F20100082100228B
:10413000FDF77CFEFFE7FFF74FFFFFE79DF8060066
:1041400001308DF80600C7E79DF8070018B9FFE7B2
:10415000FFF792FF02E0FFF70DFFFFE79DF8050074
:1041600002B080BD80B582B08DF8070000208DF8C8
:104170000600FFE79DF8060007283FDCFFE7FFE7A2
:104180009DF807100020B0EBD11F09D0FFE740F6E3
:104190000000C4F2010004210122FDF747FE08E0FF
:1041A00040F60000C4F2010004210022FDF73EFEAB
:1041B000FFE7FFE7FFF710FFFFE740F60000C4F25C
:1041C000010008210122FDF731FEFFE7FFF704FFA0
:1041D000FFE740F60000C4F2010008210022FDF7CD
:1041E00025FEFFE79DF8070040008DF80700FFE778
:1041F0009DF8060001308DF80600BBE7FFE740F6AA
:104200000000C4F2010004210122FDF70FFEFFE7C8
:1042100002B080BD80B5FFE740F60000C4F20100A7
:1042200004210122FDF702FEFFE7FFE740F6000050
:10423000C4F2010008210122FDF7F8FDFFE7FFF7B6
:10424000CBFEFFE740F60000C4F20100042100228B
:10425000FDF7ECFDFFE7FFF7BFFEFFE740F60000CC
:10426000C4F2010008210022FDF7E0FDFFE7FFF79F
:10427000B3FE80BD80B5FFE740F60000C4F2010048
:1042800004210022FDF7D2FDFFE7FFF7A5FEFFE7BF
:1042900040F60000C4F2010008210122FDF7C6FD2E
:1042A000FFE7FFF799FEFFE740F60000C4F20100C8
:1042B00004210122FDF7BAFDFFE7FFF78DFE80BD67
:1042C00080B582B000208DF807008DF80600FFE76A
:1042D00040F60000C4F2010004210122FDF7A6FD12
:1042E000FFE7FFF779FEFFE740F60000C4F20100A8
:1042F00008210122FDF79AFDFFE7FFF76DFEFFE7BA
:1043000040F60000C4F201000421FDF777FD88B1FA
:10431000FFE79DF8070001308DF807009DF80700C2
:10432000FB2806DBFFE7FFF7A5FF01208DF806005D
:1043300000E0E5E7FFE740F60000C4F201000821D5
:104340000022FDF773FDFFE7FFF746FE9DF806002C
:1043500002B080BD80B584B0002001900390FDF7CD
:1043600023FFFFF79FF9FFF775F8FFF7F1F8FFF765
:10437000CBF8FFF7A5FC0198ADF80A0045F21A400A
:10438000C0F60000FBF7AEFFFFE740F28410C2F278
:10439000000040F28011C2F20001FDF751F8F4E78D
:1043A0005FEA400C08BF91F0000F4FEA8C234FEA00
:1043B000C12243EA51514FEA1C5018BF00F5F040AA
:1043C0004FEA300018BF41F000415FEA6C5C00F03A
:1043D0002980BCF1FF3F08BF40F080407047130CBC
:1043E00006BF12044FF0100C4FF0000C130E04BF68
:1043F00012020CF1080C130F04BF12010CF1040C93
:10440000930F04BF92000CF1020CD30F04BF5200B3
:104410000CF1010C11464FF00002A0F11F00A0EBBF
:104420000C00704711F0004F08BF704731F0004199
:104430003FF4D5AF0B0C06BF09044FF0100C4FF042
:10444000000C0B0E04BF09020CF1080C0B0F04BF8B
:1044500009010CF1040C8B0F04BF89000CF1020C54
:10446000CB0F04BF49000CF1010CCCF1200322FA60
:1044700003F341EA030102FA0CF2A0EB0C0000F195
:104480000100704723F07F4720F07F4C80EA030053
:1044900000F00040ACEB070303F57C5303F1FF038E
:1044A0002DE9804909B44FEA144324EA03484FEA4E
:1044B000154B25EA0B4E0FF2042606EB13273E7828
:1044C00003FB0667C7F5000707FB06F64FEAD6466B
:1044D00006F102064FEA543707FB066CCCF1005C8C
:1044E0004FEA1C472CEA074C0CFB06F507FB06F4C9
:1044F00004EB15464FEA961649085FEA320234BFCC
:1045000000204FF000404FEAD13706FB07FC4FEA8E
:104510001C4C0CFB0BF7D21B03FB0CF761EB0701E8
:104520000CFB0EF7B0EB074072EB17420CFB08F7E1
:1045300034BFA2EB0742B2EB074261EB17414FEAEF
:104540000C444FEA910706FB07FC4FEA1C4C0CFB9E
:104550000BF7B0EBC74072EB573203FB0CF734BFDD
:10456000A2EBC742B2EBC74261EB57310CFB0EF72F
:10457000B0EBC70072EB57720CFB08F734BFA2EB2D
:10458000C702B2EBC70261EB57714FEA816141EAA2
:1045900092114FEA826242EA90124FEA806004EB85
:1045A000CC04039F4FEAD13706FB07FC4FEA1C4CB3
:1045B0000CFB0BF7D21B03FB0CF761EB07010CFBA9
:1045C0000EF7B0EB074072EB17420CFB08F734BF55
:1045D000A2EB0742B2EB074261EB17414FEA8C5561
:1045E00004EB9C244FEA910706FB07FC4FEA1C4CA6
:1045F0000CFB0BF7B0EBC74072EB573203FB0CF729
:1046000034BFA2EBC742B2EBC74261EB57310CFBA0
:104610000EF7B0EBC70072EB57720CFB08F734BF14
:10462000A2EBC702B2EBC70261EB57714FEA81619F
:1046300041EA92114FEA826242EA90124FEA8060A8
:1046400015EB4C2544F100044FEAD13706FB07FC7B
:104650004FEA1C4C0CFB0BF7D21B03FB0CF761EB76
:1046600007010CFB0EF7B0EB074072EB17420CFB97
:1046700008F734BFA2EB0742B2EB074261EB1741E8
:104680004FEA813141EA92414FEA823242EA904256
:104690004FEA80304FEA0C7615EB1C1544F100040C
:1046A00048EA03434EEA0B484FF0000EB2EB080C09
:1046B00071EB030724BF624639464EEB0E0E4FF0F6
:1046C000000B0018524149414BEB0B0BB2EB080CAD
:1046D00071EB03077BF1000B24BF624639464EEBBA
:1046E0000E0E4FF0000B0018524149414BEB0B0BE3
:1046F000B2EB080C71EB03077BF1000B24BF6246A1
:1047000039464EEB0E0E51EA020718BF46F001067D
:1047100016EB0E7655F1000254F1000103D5BDE809
:104720008901BDE80088BDE88901BDE80048B619E7
:10473000524141EB0101A3F10103704780807F7E6C
:104740007D7C7B7A79787776767574737271717007
:104750006F6E6E6D6C6C6B6A6A69686867666665B9
:104760006464636362616160605F5F5E5E5D5D5C47
:104770005C5B5B5A5A5959585857575656555555B8
:104780005454535352525251515050504F4F4F4E18
:104790004E4D4D4D4C4C4C4B4B4B4A4A4A49494966
:1047A00048484847474747464646454545444444A8
:1047B0004443434343424242424141419C46002BD1
:1047C00030D477002BD04FEA37071CB503B44FF035
:1047D00010004FF01001BAF1000F06D0BCF1000F2D
:1047E000DCBF40F0080040F008014FF000000FBCB3
:1047F000BDE810400BF1010BBBF1010F08BF5FEAF0
:10480000170722BF12F1010211F101014FF000411F
:1048100043F1000300F0004043EA00007047F9D381
:104820005708D0E746EA06464FEA164613F1400F0E
:104830001FDD13F1200FDFBF16430A46002120338E
:104840005B42BED0C3F1200746EA06464FEA164651
:1048500002FA07F746EA070622FA03F2C3F1200735
:1048600001FA07F742EA070221FA03F14FF00003C9
:10487000A7E746EA020646EA06464FEA164646EA31
:104880000106BCBF46EA0646360C4FF000034FF067
:1048900000024FF0000194E72DE9804C70B49A4675
:1048A000934691E8380007C831EA400C48BF34EA23
:1048B000430C03D5FFF7E6FDFFF780FFF0BCBDE832
:1048C000008C2DE9804C70B49A46934691E83800EC
:1048D00007C810F0804F08BF13F0804F03D100F0DD
:1048E00005F8FFF76BFFF0BCBDE8008C20F07F47B8
:1048F00023F07F4C80EA030000F0004007EB0C033C
:10490000A3F57C53A3F1FE0392F0000F00F0B380F7
:1049100095F0000F00F077802DE901494FEA114032
:1049200021EA00484FEA144624EA064700FB06FC49
:1049300008FB06F607FB08F818EB06484CEB164C8C
:1049400000FB07F718EB07484CEB17404FEA124BF8
:1049500022EA0B4E4FEA154625EA06470BFB06FCFA
:104960000EFB06F607FB0EFE1EEB064E4CEB164C3E
:104970000BFB07F71EEB074E4CEB174B18EB0B0826
:1049800040F1000018EB0E0B58EB000840F100005E
:104990008F1A4FF000014FF000063CBFC943661B61
:1049A00014BFB5EB040C00213CBFC943F61B4FEA12
:1049B000174427EA04454FEA1C472CEA074C04FB3E
:1049C000076205FB07F70CFB05F616EB074642EB03
:1049D000174204FB0CFC16EB0C4642EB1C421BEB93
:1049E000060658EB020241414EEA8E0E46EA9E064A
:1049F00001D5BDE80189B619524141EB0101A3F18E
:104A00000103BDE801894FEA144524EA05464FEA4F
:104A1000114721EA074C05FB07F406FB07F70CFBDF
:104A200006F111EB074144EB174405FB0CFC11EBBD
:104A30000C4144EB1C444FEA124722EA074C05FBA9
:104A400007F206FB07F70CFB06F616EB074642EBF0
:104A5000174205FB0CFC16EB0C4642EB1C456A1892
:104A600054F1000148BF7047B619524141EB0101B2
:104A7000A3F10103704795F0000F37D04FEA1142C0
:104A800021EA02464FEA144724EA074C02FB07F1E9
:104A900006FB07F70CFB06F414EB074441EB174148
:104AA00002FB0CFC14EB0C4441EB1C414FEA154794
:104AB00025EA074C02FB07F506FB07F70CFB06F699
:104AC00016EB074645EB174502FB0CFC16EB0C46B4
:104AD00045EB1C42121951F1000148BF7047B6194D
:104AE000524141EB0101A3F1010370474FEA144524
:104AF00024EA05464FEA114721EA074C05FB07F176
:104B000006FB07F70CFB06F212EB074241EB1741DD
:104B100005FB0CFC12EB0C4251EB1C414FF0000664
:104B200048BF7047921841EB0101A3F101037047A0
:104B3000490050EAC12018BF04204A0D18BF40F0B8
:104B4000010040F2FF72B2EB515F08BF40F002007B
:104B5000012808BF0520704730380A2801D20120FB
:104B6000704700207047000010B500290AD008786F
:104B7000002807D005487844FCF718FC002801D02D
:104B8000002010BD0248784410BD00002A09000032
:104B90002209000010B500290AD00878002807D0A3
:104BA00005487844FCF702FC002801D0002010BD25
:104BB0000248784410BD00001A09000012090000E4
:104BC0000808A0F500114FEA3101704743004FEA91
:104BD000D30C4FEA3C0C43401FBF40070CF160511F
:104BE00013F0FE4F70471CF0006F03D10CF0004132
:104BF000002070470CF0004343EA507040EACC00BC
:104C000010B500F0B2FA00BF000000924FEA0001B8
:104C1000FFF7D6BF4FF00041A1F500214FF0000093
:104C20007047000090EA010F48BF81F0004100F199
:104C3000EE82421A3CBF801A89184FEAD052A2EB8A
:104C4000D1534FF07F4C1CEA410F18BF9CEA026F12
:104C500000F03B804FF0004C4CEA00204CEA012170
:104C600021FA03FC10EB0C0C1ED202F1FF325FEABA
:104C70001C2040EBC25038BF70471CF07F0F4FEA3A
:104C8000400C18BFBCF17F4F38BF7047C3F1200301
:104C9000994008BF20F00100BCF17F4F38BF70473A
:104CA000A0F1C04000F0A7BA4FEA3C00000A40EB78
:104CB000C25028BF1CF0FF0F4FEA400CE6D018BFCF
:104CC000BCF17F4F38BF7047EAE79CEA026F05D01E
:104CD00010EA5C0F08BF00F00040704710B500F00C
:104CE00044FA00BF64FBBE3E10B500F0F5F80CBFFF
:104CF0000120002010BD10B500F0EEF814BF012017
:104D0000002010BD10B500F047F98CBF0120002035
:104D100010BD10B500F040F92CBF0120002010BDDF
:104D200010B500F06DF994BF0120002010BD10B542
:104D300000F066F934BF0120002010BD401058BFBC
:104D4000C0F14040491058BFC1F140418142EFF3EA
:104D5000008070474FF47F0C1CEAD0121EBF1CEA83
:104D6000D11392EA0C0F93EA0C0F00F0858090EAC1
:104D7000010F48BF42F4807240F4000C41F400007F
:104D80002CF07F4120F07F4000B5A2EB030281426E
:104D90000FF2081CACEB504E9EF800E0C0F1000092
:104DA0004FEA4E0E00FB0EFC38BF49004FEA2C1CA8
:104DB0000CFB0EF34FEACE1E0EEB635E4FEA112C96
:104DC0000EFB0CFC4FEAC1214FEA1C5300FB031100
:104DD00002F5FA024FEA112C0EFB0CFC4FEA0131EE
:104DE0004FEADC4C00FB0C1142EB2242C14228BFCF
:104DF00009184CEB03335DF804EB10EB410143EB76
:104E0000C250B2F57C0F38BF704729D512F0F00FB1
:104E10001CBF00F1C04000F0004070470081828359
:104E20008485868788898B8C8D8E8F9192939596B9
:104E300097999A9C9D9FA0A2A3A5A7A8AAACAEB043
:104E4000B2B3B5B7B9BCBEC0C2C5C7C9CCCED1D448
:104E5000D7D9DCDFE2E6E9ECF0F3F7FAFE00000078
:104E60004FEA400C0CF1807CBCF17E4F28BF7047AC
:104E7000B0F1C04000F0BFB90CEAD11390EA010FC5
:104E800048BF42F48072624538BF634507D213F4CD
:104E90007F0F16D080EA010000F00040704710B587
:104EA00000F063F9097EFC3E00F005B880EA0100DD
:104EB00000F00040704780EA010000F0004000F080
:104EC0009AB912F47F0F04BF0248704780EA0100CC
:104ED00000F091B90000C07F50EA010C00F113808E
:104EE0001CF5000F58BFBCF5000F01D48842704775
:104EF00007D710F5000F58BF11F5000F15D48842E1
:104F00007047894270471CF5000F04D5BCF5000FAF
:104F1000F7D5814270474FF0807C1CEB400F38BFC3
:104F20001CEB410F01D28142704710B500F01DF912
:104F3000922449004FF000504FF08051FFF7FEBE21
:104F400010F0004148BF4042B0FA80F310FA03F27B
:104F5000C3F19D030BD051EAC35101EB122053065C
:104F600038BF704700F1010008BF20F00100704712
:104F7000B0FA80F310FA03F2C3F19D030AD0D90509
:104F800001EB1220530638BF704700F1010008BF43
:104F900020F001007047000050EA010C00F113807E
:104FA0001CF5000F58BFBCF5000F01D488427047B4
:104FB00007D710F5000F58BF11F5000F15D4884220
:104FC0007047894270471CF5000F04D5BCF5000FEF
:104FD000F7D5814270474FF0807C1CEB400F38BF03
:104FE0001CEB410F01D28142704710B500F0BDF8B3
:104FF000922449004FF080504FF00051FFF79EBEC1
:1050000050EA010C00F113801CF5000F58BFBCF5ED
:10501000000F01D48842704707D710F5000F58BF22
:1050200011F5000F15D488427047894270471CF56E
:10503000000F04D5BCF5000FF7D5814270474FF043
:10504000807C1CEB400F38BF1CEB410F01D281422A
:10505000704710B500F089F8922449004FF00050D5
:105060004FF08051FFF76ABE4FF47F0C1CEAD0125C
:105070001EBF1CEAD11392EA0C0F93EA0C0F00F04A
:10508000478090EA010F48BF42F480724FF0004C15
:105090004CEA00204CEA012102EB0302A0FB0113C1
:1050A000A2F50002002918BF43F001035B0028BFEE
:1050B0004FEA330342EB22425FEA132C4CEBC2501F
:1050C0002EBFBCEB436FB2F57C0F70474FEA036C09
:1050D000BCF1004F08BF20F00100B2F57C0F38BFD3
:1050E00070470BD582F0FF0212F5803FC8BF7047B2
:1050F00000F1C040D8BF00F00040704700F5000C40
:105100005FEA4C0C48BF7047B0F1C04000F073B884
:105110000CEAD11390EA010F48BF42F48072624555
:1051200038BF634504D280EA010000F000407047B8
:1051300010B500F01AF800BF8900013E00F007B872
:1051400000F009B85FEA410C5FEA1C6C08D080EA05
:10515000010000F050B85FEA400C5FEA1C6CF6D129
:105160004FF00040A0F5800070470EF1020E2EF0C7
:10517000030E5EF8044B244204D44FEA4102B2F11C
:105180007F4F11D84FEA4003B3F17F4F0CD80ED1B7
:105190004FEAD07C0CEB4C0C0CF1020CB2F17F4FBF
:1051A00008BF4CEBD17C04E04FF0080C01E04FEA63
:1051B000D17C0CEB4C0324FA03F404F00704B4F1A3
:1051C000040C06D20EEB840CBDE810404CF0010C30
:1051D0006047DFE80CF0070802024FF00040A0F53E
:1051E000800010BD0846420018BFD2F1807288BF0F
:1051F00000F0004010BDFF2141EAD050C0057047CB
:1052000090EA010F48BF81F000413FF512AD421A0C
:1052100004D882F00042A0EB020011444FEAD052C1
:10522000A2EBD1534FF07F4C1CEA410F18BF9CEA10
:10523000026F4AD04FF0004C4CEA00204CEA0121AA
:1052400021FA03FCB0EB0C0C0FD412F0FE0F36D099
:105250005FEA4C001DD5001240EBC25038BF7047CA
:105260001CF03F0F18BF70470BE05FEA1C20A2F153
:10527000010240EBC25038BF70471CF07F0F18BFCF
:105280007047C3F12003994014BF401E20F0010075
:1052900070474FEA1223800808BF7047B0FA80FCBD
:1052A000A2EB0C02CCF1280C60FA0CF093EA122F5E
:1052B00004BF00EBC25070474FEAC3707047130A37
:1052C0005FEADC1008BF7047F6E79CEA026F04D083
:1052D00010EA5C0F08BF0020704710B5FFF745FFCC
:1052E00040DFF63E81F000407047FBF74DBCFBF716
:1052F00081BD0000000000000000000030313233AA
:1053000034353637383941424344454640305800F9
:10531000303132333435363738396162636465662B
:105320004030780004000008000000000000000287
:1053300000010000103031323334353637383961EE
:1053400062636465667870003031323334353637E5
:10535000383941424344454658500000024000005D
:10536000000000A00000000005400000000000C890
:10537000000000000C4000000000409C0000000005
:10538000194000000020BCBE0000000034400000B6
:10539000BFC91B8E00000004B5400000504BCFD0A9
:1053A0006607E2CF010000006C4100003E8251AA76
:1053B000DFEEA73401000000D9420000DCB5A0E216
:1053C0003A301F97FFFFFFFFB4450000FD25A0C83E
:1053D000E9A3C14FFFFFFFFFFF3F00000000008077
:1053E00000000000FF3F00000000008000000000FF
:1053F0000000000000000000010203040607080985
:105400000000000001020304020304050607080966
:105410000A0B0C0D0E0F101001024D4158333031A4
:10542000303220696E697420646F6E650A2C2070BA
:10543000757420796F75722066696E676572206F6A
:105440006E207468652073656E736F72003E3E3E19
:10545000204265617420446574656374656421202D
:1054600042504D3A20252E3166203C3C3C0A0057E4
:10547000617665666F726D3A2025660A000000004D
:10548000D055000800000020100000009401000822
:10549000E05500081000002080070000B40100085B
:1054A0001C00000043000000F8FFFFFF0C0000009C
:1054B0000E0000000F0000002E0000001001000090
:1054C00043000000F8FFFFFF0040404040404040E4
:1054D00040404141414141404040404040404040C7
:1054E000404040404040404040050202020202026B
:1054F00002020202020202020220202020202020BA
:1055000020202002020202020202909090909090CD
:10551000101010101010101010101010101010108B
:1055200010101010020202020202888888888888FF
:1055300008080808080808080808080808080808EB
:1055400008080808020202024000000000000000F3
:10555000000000000000000000000000000000004B
:10556000000000000000000000000000000000003B
:10557000000000000000000000000000000000002B
:10558000000000000000000000000000000000001B
:10559000000000000000000000000000000000000B
:1055A00000000000000000000000000000000000FB
:1055B00000000000000000000000000000000000EB
:1055C00000000000000000000000000000000000DB
:1055D0000000A04100127A0001000000100000004D
:0400000508000131BD
:00000001FF
